:020000040800F2
:1000000000400620D50E0008851C0008931C00083F
:10001000991C00089F1C0008A51C00080000000097
:10002000000000000000000000000000AB1C000801
:10003000B91C000800000000C71C0008D51C0008FF
:10004000250F0008250F0008250F0008250F0008C0
:10005000250F0008250F0008250F00081D1D0008AA
:10006000250F0008250F0008250F0008E11C0008D7
:10007000F51C0008250F0008250F0008250F0008B3
:10008000250F0008250F0008250F0008250F000880
:10009000250F0008250F0008250F0008250F000870
:1000A000250F0008250F0008250F0008250F000860
:1000B000091D0008250F0008250F0008250F00085E
:1000C000250F0008250F0008250F0008250F000840
:1000D000250F0008250F0008250F0008250F000830
:1000E0002B1D0008250F0008250F0008250F00080C
:1000F000250F0008250F0008250F0008000000004C
:10010000250F0008250F0008250F0008A518000876
:10011000250F0008250F0008250F0008250F0008EF
:10012000250F0008250F0008250F0008250F0008DF
:10013000250F0008250F0008250F0008250F0008CF
:10014000250F0008250F0008250F0008250F0008BF
:10015000250F0008250F0008250F0008250F0008AF
:10016000250F0008250F0008250F0008250F00089F
:10017000250F0008250F000800000000250F0008CB
:10018000250F0008250F0008250F0008250F00087F
:10019000250F0008250F00080000000000000000E7
:1001A0000000000000000000250F0008250F0008D7
:0C01B000250F0008250F0008250F00088F
:1001C00010B5054C237833B9044B13B10448AFF391
:1001D00000800123237010BDE80100200000000012
:1001E00050E1000808B5034B1BB103490348AFF3C6
:1001F000008008BD00000000EC01002050E1000874
:1002000001F0FF01102A2BDB10F0070F08D010F8C7
:10021000013B013A8B422DD010F0070F42B3F6D1CB
:10022000F0B441EA012141EA014122F007047FF0E4
:1002300000070023F0E80256083C85EA010586EA3B
:10024000010685FA47F5A3FA87F586FA47F6A5FA77
:1002500087F68EB9EED1F0BC01F0FF0102F0070283
:1002600032B110F8013B013A83EA010313B1F8D12E
:100270000020704701387047002D06BF354603380F
:10028000073815F0010F07D1013015F4807F02BF48
:10029000013015F4C03F0130F0BC0138704700BF99
:1002A000034613F8012B002AFBD1181A01387047B6
:1002B00081F0004102E000BF83F0004330B54FEA17
:1002C00041044FEA430594EA050F08BF90EA020F84
:1002D0001FBF54EA000C55EA020C7FEA645C7FEA17
:1002E000655C00F0E2804FEA5454D4EB5555B8BF3A
:1002F0006D420CDD2C4480EA020281EA030382EAAB
:10030000000083EA010180EA020281EA0303362D3C
:1003100088BF30BD11F0004F4FEA01314FF4801C0F
:100320004CEA113102D0404261EB410113F0004F21
:100330004FEA03334CEA133302D0524263EB4303D8
:1003400094EA050F00F0A780A4F10104D5F1200E76
:100350000DDB02FA0EFC22FA05F2801841F10001D1
:1003600003FA0EF2801843FA05F359410EE0A5F1A5
:1003700020050EF1200E012A03FA0EFC28BF4CF0D6
:10038000020C43FA05F3C01851EBE37101F000458C
:1003900007D54FF0000EDCF1000C7EEB00006EEB99
:1003A0000101B1F5801F1BD3B1F5001F0CD3490823
:1003B0005FEA30004FEA3C0C04F101044FEA44527A
:1003C00012F5800F80F09A80BCF1004F08BF5FEA01
:1003D000500C50F1000041EB045141EA050130BDE1
:1003E0005FEA4C0C404141EB0101013C28BFB1F5F3
:1003F000801FE9D291F0000F04BF01460020B1FA3E
:1004000081F308BF2033A3F10B03B3F120020CDA10
:100410000C3208DD02F1140CC2F10C0201FA0CF0EE
:1004200021FA02F10CE002F11402D8BFC2F1200C53
:1004300001FA02F120FA0CFCDCBF41EA0C01904009
:10044000E41AA2BF01EB0451294330BD6FEA040452
:100450001F3C1CDA0C340EDC04F11404C4F120023D
:1004600020FA04F001FA02F340EA030021FA04F34F
:1004700045EA030130BDC4F10C04C4F1200220FAA6
:1004800002F001FA04F340EA0300294630BD21FAE4
:1004900004F0294630BD94F0000F83F4801306BFAA
:1004A00081F480110134013D4EE77FEA645C18BF9E
:1004B0007FEA655C29D094EA050F08BF90EA020F35
:1004C00005D054EA000C04BF1946104630BD91EA2D
:1004D000030F1EBF0021002030BD5FEA545C05D130
:1004E0004000494128BF41F0004130BD14F580046F
:1004F0003CBF01F5801130BD01F0004545F0FE41E3
:1005000041F470014FF0000030BD7FEA645C1ABF17
:10051000194610467FEA655C1CBF0B46024650EA4E
:10052000013406BF52EA033591EA030F41F400217A
:1005300030BD00BF90F0000F04BF0021704730B500
:100540004FF4806404F132044FF000054FF00001D5
:1005500050E700BF90F0000F04BF0021704730B596
:100560004FF4806404F1320410F0004548BF40426B
:100570004FF000013EE700BF42004FEAE2014FEAC0
:1005800031014FEA02701FBF12F07F4393F07F4F9B
:1005900081F06051704732F07F4208BF704793F09E
:1005A0007F4F04BF41F40021704730B54FF46074B1
:1005B00001F0004521F000411CE700BF50EA0102B4
:1005C00008BF704730B54FF000050AE050EA01025D
:1005D00008BF704730B511F0004502D5404261EBCD
:1005E00041014FF4806404F132045FEA915C3FF40E
:1005F000D8AE4FF003025FEADC0C18BF03325FEAAB
:10060000DC0C18BF033202EBDC02C2F1200300FA5B
:1006100003FC20FA02F001FA03FE40EA0E0021FA80
:1006200002F11444BDE600BF70B54FF0FF0C4CF46E
:10063000E06C1CEA11541DBF1CEA135594EA0C0F20
:1006400095EA0C0F00F0DEF82C4481EA030621EA5B
:100650004C5123EA4C5350EA013518BF52EA033596
:1006600041F4801143F4801338D0A0FB02CE4FF048
:100670000005E1FB02E506F00042E0FB03E54FF078
:100680000006E1FB03569CF0000F18BF4EF0010E70
:10069000A4F1FF04B6F5007F64F5407404D25FEA6C
:1006A0004E0E6D4146EB060642EAC62141EA55511F
:1006B0004FEAC52040EA5E504FEACE2EB4F1FD0C61
:1006C00088BFBCF5E06F1ED8BEF1004F08BF5FEADF
:1006D000500E50F1000041EB045170BD06F0004691
:1006E00046EA010140EA020081EA0301B4EB5C043E
:1006F000C2BFD4EB0C0541EA045170BD41F4801136
:100700004FF0000E013C00F3AB8014F1360FDEBF5A
:10071000002001F0004170BDC4F10004203C35DA36
:100720000C341BDC04F11404C4F1200500FA05F3B9
:1007300020FA04F001FA05F240EA020001F000425A
:1007400021F0004110EBD37021FA04F642EB0601D0
:100750005EEA430E08BF20EAD37070BDC4F10C04FA
:10076000C4F1200500FA04F320FA05F001FA04F2BE
:1007700040EA020001F0004110EBD37041F10001AA
:100780005EEA430E08BF20EAD37070BDC4F12005B5
:1007900000FA05F24EEA020E20FA04F301FA05F21D
:1007A00043EA020321FA04F001F0004121FA04F2C5
:1007B00020EA020000EBD3705EEA430E08BF20EA95
:1007C000D37070BD94F0000F0FD101F000464000CF
:1007D00041EB010111F4801F08BF013CF7D041EA51
:1007E000060195F0000F18BF704703F00046520055
:1007F00043EB030313F4801F08BF013DF7D043EA26
:100800000603704794EA0C0F0CEA135518BF95EADB
:100810000C0F0CD050EA410618BF52EA4306D1D162
:1008200081EA030101F000414FF0000070BD50EA81
:10083000410606BF1046194652EA430619D094EA0B
:100840000C0F02D150EA013613D195EA0C0F05D1F5
:1008500052EA03361CBF104619460AD181EA030149
:1008600001F0004141F0FE4141F470014FF0000001
:1008700070BD41F0FE4141F4780170BD70B54FF09C
:10088000FF0C4CF4E06C1CEA11541DBF1CEA13551C
:1008900094EA0C0F95EA0C0F00F0A7F8A4EB0504FE
:1008A00081EA030E52EA03354FEA013100F08880F5
:1008B0004FEA03334FF0805545EA131343EA1263BE
:1008C0004FEA022245EA111545EA10654FEA002673
:1008D0000EF000419D4208BF964244F1FD0404F52C
:1008E000407402D25B084FEA3202B61A65EB030588
:1008F0005B084FEA32024FF480104FF4002CB6EB45
:10090000020E75EB030E22BFB61A754640EA0C00C4
:100910005B084FEA3202B6EB020E75EB030E22BF04
:10092000B61A754640EA5C005B084FEA3202B6EB45
:10093000020E75EB030E22BFB61A754640EA9C0004
:100940005B084FEA3202B6EB020E75EB030E22BFD4
:10095000B61A754640EADC0055EA060E18D04FEA92
:10096000051545EA16754FEA06164FEAC30343EA32
:1009700052734FEAC2025FEA1C1CC0D111F4801FFF
:100980000BD141EA00014FF000004FF0004CB6E7F8
:1009900011F4801F04BF01430020B4F1FD0C88BF97
:1009A000BCF5E06F3FF6AFAEB5EB030C04BFB6EBA2
:1009B000020C5FEA500C50F1000041EB045170BD95
:1009C0000EF0004E4EEA113114EB5C04C2BFD4EBC2
:1009D0000C0541EA045170BD41F480114FF0000E46
:1009E000013C90E645EA060E8DE60CEA135594EAC2
:1009F0000C0F08BF95EA0C0F3FF43BAF94EA0C0FC5
:100A00000AD150EA01347FF434AF95EA0C0F7FF439
:100A100025AF104619462CE795EA0C0F06D152EA8D
:100A200003353FF4FDAE1046194622E750EA410671
:100A300018BF52EA43067FF4C5AE50EA41047FF482
:100A40000DAF52EA43057FF4EBAE12E74FF0FF3CE7
:100A500006E000BF4FF0010C02E000BF4FF0010CB8
:100A60004DF804CD4FEA410C7FEA6C5C4FEA430C31
:100A700018BF7FEA6C5C1BD001B050EA410C0CBF80
:100A800052EA430C91EA030F02BF90EA020F0020E2
:100A9000704710F1000F91EA030F58BF994208BF49
:100AA00090422CBFD8176FEAE37040F00100704706
:100AB0004FEA410C7FEA6C5C02D150EA013C07D15D
:100AC0004FEA430C7FEA6C5CD6D152EA033CD3D0A8
:100AD0005DF8040B704700BF8446104662468C46A2
:100AE0001946634600E000BF01B5FFF7B7FF0028D5
:100AF00048BF10F1000F01BD4DF808EDFFF7F4FFFE
:100B00000CBF012000205DF808FB00BF4DF808ED88
:100B1000FFF7EAFF34BF012000205DF808FB00BFAB
:100B20004DF808EDFFF7E0FF94BF012000205DF8CD
:100B300008FB00BF4DF808EDFFF7CEFF94BF012082
:100B400000205DF808FB00BF4DF808EDFFF7C4FF7B
:100B500034BF012000205DF808FB00BF4FEA410CC4
:100B60007FEA6C5C02D150EA013C0AD14FEA430CA7
:100B70007FEA6C5C02D152EA033C02D14FF00000E4
:100B800070474FF0010070474FEA410212F5001222
:100B900015D211D56FF47873B3EB625212D94FEAC4
:100BA000C12343F0004343EA505311F0004F23FAAE
:100BB00002F018BF404270474FF00000704750EA03
:100BC000013005D111F0004008BF6FF000407047C0
:100BD0004FF00000704700BF53B94AB9002908BF61
:100BE00000281CBF4FF0FF314FF0FF3000F070B90C
:100BF000ADF1080C6DE904CE00F006F8DDF804E074
:100C0000DDE9022304B070472DE9F047089E0D4648
:100C100004460F46002B4AD18A42944665D9B2FA5F
:100C200082F343B102FA03FCC3F120029F4020FA91
:100C300002F217439C404FEA1C4E1FFA8CF5B7FB9B
:100C4000FEF1220C0EFB117742EA074201FB05F090
:100C500090420AD91CEB020201F1FF3780F01C819F
:100C6000904240F2198102396244121AA4B2B2FBD6
:100C7000FEF00EFB102244EA024400FB05F5A542FB
:100C80000AD91CEB040400F1FF3280F00781A54271
:100C900040F204816444023840EA0140641B0021B0
:100CA0001EB1DC400023C6E90043BDE8F0878B425B
:100CB00008D9002E00F0ED800021C6E900050846A5
:100CC000BDE8F087B3FA83F1002949D1AB4202D3E2
:100CD000824200F2F880841A65EB03020120174675
:100CE000002EE2D0C6E90047DFE702B9FFDEB2FA24
:100CF00082F3002B40F090808A1A4FEA1C471FFABB
:100D00008CFE0121B2FBF7F507FB1520220C42EA0D
:100D100000420EFB05F0904208D91CEB020205F1DF
:100D2000FF3802D2904200F2CB804546121AA4B29C
:100D3000B2FBF7F007FB102244EA02440EFB00FE70
:100D4000A64508D91CEB040400F1FF3202D2A645E7
:100D500000F2BB801046A4EB0E0440EA05409FE77A
:100D6000C1F120078B4022FA07FC4CEA030C05FA7C
:100D700001F420FA07F3FD404FEA1C492343B5FB79
:100D8000F9F81FFA8CFE09FB18551C0C44EA0544BF
:100D900008FB0EF5A54202FA01F200FA01F00BD9A8
:100DA0001CEB040408F1FF3A80F08880A54240F271
:100DB0008580A8F102086444641B9DB2B4FBF9F37A
:100DC00009FB134445EA044403FB0EFEA64508D97B
:100DD0001CEB040403F1FF356CD2A6456AD9023B33
:100DE000644443EA0843A3FB0295A4EB0E04AC421F
:100DF000C846AE4656D353D056B1B0EB080264EBAA
:100E00000E0404FA07F7CA40CC401743C6E9007441
:100E100018460021BDE8F087C3F1200102FA03FC67
:100E200020FA01F225FA01F19D402A434FEA1C47BE
:100E30001FFA8CFEB1FBF7F007FB1015110C41EA0D
:100E4000054100FB0EF58D4204FA03F408D91CEBB2
:100E5000010100F1FF382FD28D422DD902386144B3
:100E6000491B92B2B1FBF7F507FB151142EA0142AB
:100E700005FB0EF1914208D91CEB020205F1FF3887
:100E800016D2914214D9023D6244521A45EA0041F9
:100E900038E73146304608E73946E6E61046FBE6D5
:100EA0004845A9D2B9EB020865EB0C0E013BA3E75C
:100EB0004546EAE72B4694E74046D1E7D0467BE734
:100EC000023D624432E708460AE76444023842E7DA
:100ED000704700BFDFF834D000F0F4FF002103E0DA
:100EE0000B4B5B58435004310A480B4B42189A4253
:100EF000F6D30A4A02E0002342F8043B084B9A4228
:100F0000F9D30BF07DF900F00FF8FEE70040062062
:100F1000401B020800000020E8010020E80100203A
:100F200044970220FEE7000080B500AF02F044FEC7
:100F300000F018FB002002F04DFD0121002002F01E
:100F400079FD00F03DFC00F047FB00F0EBFB00F00A
:100F500085FB0021174802F0FAFF174807F042FD11
:100F6000164B174A1A60154B4FF4E1325A60134B77
:100F700000229A60114B0022DA60104B00221A61A5
:100F80000E4B0C225A610D4B00229A610B4B002232
:100F9000DA610A4B00221A62084B00229A62074962
:100FA000002002F09DFD07480AF00CFF00F00CF84D
:100FB000FEE700BF04020020640300203C950220ED
:100FC0000038014068E1000890B585B002AF00F03C
:100FD00027F903223A493B4802F0C2FB0346002BA3
:100FE00028D10421384802F0FDFB0346002B1BD119
:100FF000354B1B781946344B5B781A46324B9B783D
:101000001846314BDB780093034630480AF06CFEFB
:10101000502300932E4B01220021002002F006FCF9
:101020000346002B12D00BE02A480AF0CBFE4FF00B
:10103000FF3340E028480AF0C5FE4FF0FF333AE0A6
:1010400026480AF0BFFE4FF0FF3334E024480AF090
:10105000B9FE02E02E200AF059FE3A1DBB1C009397
:1010600004234FF47A71002002F010FC0346002B99
:10107000F0D13B7919467B791846BB791C46FB7940
:101080007A88019200932346024616480AF02CFE05
:1010900015480AF097FE00F02DF814480AF092FE69
:1010A000002002F03BFC0346002BCFD010480AF092
:1010B00089FE4FF0FF3318460C37BD4690BD00BF88
:1010C00094E10008A0E10008C8070020A8E100089A
:1010D0003CE20008E4E1000814E2000840E20008F5
:1010E00060E2000880E20008A4E20008B8E200081C
:1010F000D8E2000880B584B002AF3B1D42F2107206
:1011000000924FF47A721D49002002F041FC034620
:10111000002B2ED1BB88002B29D019480AF0E4FD02
:10112000184B1B689BB2BA881146184600F0B2F8FB
:10113000144B1B680133194613480AF0D5FD114BB7
:101140001B6801330F4A13600E4B1B68142B0BD125
:101150000C4B00221A60082300934FF420430B4AE3
:1011600000210B4802F046FF00F014F801E00123D3
:10117000FB71002318460837BD4680BDCC07002010
:10118000F8E20008B48B02200CE30008B40B002046
:101190000402002090B587B002AF1D4BBB601D4B11
:1011A0007B60B9681C480BF051F879681A480AF05E
:1011B00021FF1948FFF774F803469AB2BB1C42F2AC
:1011C000107100911449002002F0C0FB0346FB732C
:1011D000FB7B002B09D07B881C460F48FFF760F88B
:1011E00003469C4201D00123FB730B490B480AF0D4
:1011F0007BFD0948FFF754F803461A4600210648CC
:101200000AF0F0FEFB7B18461437BD4690BD00BFC8
:1012100024E3000864E30008C803002078E3000822
:10122000B0B586B004AF02F06FFA0346002B24D1AC
:1012300015480AF0C7FD3B460621184602F0B2FAEF
:101240000346002B13D13B7818467B781C46BB78AD
:101250001D46FB783A7979790291019200932B46E9
:101260002246014609480AF03FFD002307E00848EE
:101270000AF0A8FD4FF0FF3301E04FF0FF331846AE
:101280000837BD46B0BD00BFA0E30008B8E30008C2
:10129000F8E3000880B5ADF5804D8AB000AF024696
:1012A00007F1280323F8222C07F128030A4623F824
:1012B000242C07F5005303F12803203B4FF4005280
:1012C000002118460AF08EFE07F1280333F8242C7B
:1012D00007F5005303F12803203B19469A4808F00C
:1012E00087FE4FF40061994808F0B2FF0346002BD7
:1012F00003D097480AF066FD21E107F12802203A61
:1013000007F5005101F12801203901238F4809F028
:1013100083F8904B07F5804202F1180213606FF4D6
:10132000000307F5804202F114021360002307F561
:10133000804202F12402136051E007F128031A46AB
:1013400007F5804303F124031B689B001344203BF3
:101350001B6807F5804202F12002136007F5804305
:1013600003F1200393ED007A07F5804303F118039E
:10137000D3ED007AB4EEE77AF1EE10FA09D507F56D
:10138000804303F118031B6807F5804202F1200235
:10139000136007F5804303F1200393ED007A07F50E
:1013A000804303F11403D3ED007AB4EEE77AF1EE53
:1013B00010FA09DD07F5804303F114031B6807F5F4
:1013C000804202F12002136007F5804303F12403F9
:1013D0001B68013307F5804202F12402136007F510
:1013E000804303F124031B68B3F5006FA5DB07F509
:1013F000804303F1140393ED007A07F5804303F172
:101400001803D3ED007A77EE677AF5EE407AF1EEC5
:1014100010FA28D007F5804303F1140393ED007A06
:1014200007F5804303F11803D3ED007A37EE677AAE
:10143000DFED496AC6EE877A07F5804303F11003B2
:10144000C3ED007A07F1280333F8223CDB0207F5ED
:10145000804202F10E021380002307F5804202F160
:101460001C02136063E03D480AF0ACFC67E007F142
:1014700028031A4607F5804303F11C031B689B00F1
:101480001344203B1B6807F5804202F108021360F9
:1014900007F5804303F1080393ED007A07F58043D5
:1014A00003F11803D3ED007A77EE677A07F58043EE
:1014B00003F10803C3ED007A07F5804303F1080345
:1014C00093ED007A07F5804303F11003D3ED007A22
:1014D00067EE277A07F5804303F10803C3ED007A2E
:1014E00007F5804303F1080393ED000A0CF00CFEAE
:1014F000F0EE407AFDEEE77A07F5804303F10E0344
:101500001A8807F5804303F11C031B68134417EE88
:10151000901A134A42F8231007F5804303F11C0385
:101520001B68013307F5804202F11C02136007F5C6
:10153000804303F11C031B68B3F5006F97DB07F5CD
:1015400080472837BD4680BDCC070020B00300206F
:101550001CE40008FFFF7F7F00007F4348E4000891
:10156000B40B002080B596B000AF10233B60012380
:10157000BB6160233B620023FB610223BB6201234A
:10158000FB6201233B6328237B6302233B64072325
:10159000BB630423FB633B46184603F0E3FE0346AC
:1015A000002B00D0FEE70F237B640323BB640023E2
:1015B000FB6400233B6500237B6507F144030421A2
:1015C000184604F0E9FA0346002B00D0FEE700BFFE
:1015D0005837BD4680BD000080B58AB000AF3B469D
:1015E0002822002118460AF0FDFC1A4B1A4A1A60FC
:1015F000184802F08AFC0346002B01D000F06DF978
:1016000000237B600A23BB604FF400433B60002350
:10161000FB6000233B6100237B613B4600221946AF
:101620000C4802F0D1FD0346002B01D000F055F923
:101630000023BB603B4610221946064802F0C4FD59
:101640000346002B01D000F048F900BF2837BD4603
:1016500080BD00BF040200200074004080B500AFD0
:101660002B4B2C4A1A602A4B00225A60284B01222D
:101670001A72274B01225A72254B0022DA61244B41
:1016800064221A62224B01225A62214803F032F886
:101690000346002B01D000F020F91F4B1F4A1A60AF
:1016A0001D4B01221A711C4B00229A601A4B6422B6
:1016B000DA60194B00221A61174B00225A61164B4F
:1016C00000229A61144B0022DA61134B04221A6241
:1016D000114B00225A62104B01229A620E4B0022DB
:1016E000DA620D4B00221A630B4802F043FF0346F7
:1016F000002B01D000F0F1F801220949044803F061
:10170000D3F80346002B01D000F0E7F800BF80BDFE
:101710007802002000610140CC02002040600140BE
:101720000400020080B588B000AF07F1100300226A
:101730001A605A609A60DA603B1D00221A605A6093
:101740009A601E4B4FF080421A601C4B00225A6078
:101750001A4B00229A60194B42F21072DA60174B52
:1017600000221A61154B00229A61144807F0E3F831
:101770000346002B01D000F0B0F84FF480533B61DA
:1017800007F1100319460D4807F09EFA0346002B97
:1017900001D000F0A2F820237B600023FB603B1DFA
:1017A0001946064807F0B6FC0346002B01D000F0AE
:1017B00094F800BF2037BD4680BD00BF6403002001
:1017C00080B582B000AF164B9B6C154A43F0040302
:1017D0009364134B9B6C03F004037B607B68104B9A
:1017E0009B6C0F4A43F0010393640D4B9B6C03F019
:1017F00001033B603B68002200210B2002F04FFBFD
:101800000B2002F068FB002200210C2002F047FBB5
:101810000C2002F060FB00BF0837BD4680BD00BF52
:101820000010024080B582B000AF7860391D4FF6DD
:10183000FF730122034807F06DFD7B6818460837E7
:10184000BD4680BD3C95022080B582B000AF00232C
:10185000FB7100BFF91D49F640430122054807F01E
:10186000E8FD0346002BF5D1FB7918460837BD4645
:1018700080BD00BF3C95022080B582B000AF03461A
:10188000FB80FB88022B05D0B3F5005F05D100F08B
:1018900013F803E001F028FF00E000BF00BF0837A5
:1018A000BD4680BD80B500AF024806F0CDF900BF4F
:1018B00080BD00BFC88B022080B400AF00BFBD4612
:1018C0005DF8047B704780B483B000AF786000BFE0
:1018D0000C37BD465DF8047B704780B400AF72B62C
:1018E00000BFFEE780B483B000AF0F4B1B6E0E4A03
:1018F00043F0010313660C4B1B6E03F001037B6086
:101900007B68094B9B6D084A43F080539365064BF7
:101910009B6D03F080533B603B6800BF0C37BD46B6
:101920005DF8047B704700BF0010024080B58AB0AC
:1019300000AF786007F1140300221A605A609A60C1
:10194000DA601A617B681B682A4A93424ED12A4B9F
:101950009B6D294A43F000539365274B9B6D03F021
:1019600000533B613B69244BDB6C234A43F001038A
:10197000D364214BDB6C03F00103FB60FB68302375
:101980007B610323BB610023FB6107F1140319464C
:101990004FF0904003F0ECFA184B194A1A60174BBD
:1019A00006225A60154B10229A60144B0022DA600E
:1019B000124B80221A61114B00225A610F4B4FF4D7
:1019C00000629A610D4B0022DA610C4B00221A6210
:1019D0000A4802F0FBFF0346002B01D0FFF77DFF12
:1019E0007B68064A9A60054A7B68936200BF283785
:1019F000BD4680BD00740040001002401802002067
:101A00000800024080B5AEB000AF786007F1A403D3
:101A100000221A605A609A60DA601A6107F11003B6
:101A20009422002118460AF0DDFA454B1B68002B72
:101A30004BD14FF480333B610023C7F8943007F15A
:101A40001003184604F066FB0346002B01D0FFF795
:101A500044FF3C4B1B6801333A4A1360394B1B6807
:101A6000012B0BD1384B1B6E374A43F08073136642
:101A7000354B1B6E03F08073FB60FB68324BDB6CF5
:101A8000314A43F01003D3642F4BDB6C03F0100397
:101A9000BB60BB684FF42073C7F8A4300223C7F8BB
:101AA000A8300023C7F8AC300023C7F8B0300623B5
:101AB000C7F8B43007F1A4031946244803F058FAD4
:101AC0001F4B1B6801331E4A13607B681B68204A4A
:101AD000934230D11F4B204A1A601E4B56225A6047
:101AE0001C4B00229A601B4B0022DA60194B8022AB
:101AF0001A61184B4FF400725A61164B4FF4006292
:101B00009A61144B0022DA61124B00221A621148CA
:101B100002F05CFF0346002B01D0FFF7DEFE7B687E
:101B20000C4ADA620B4A7B6893627B68094A9A62C4
:101B3000084A7B68936200BFB837BD4680BD00BFCE
:101B4000BC8B0220B88B022000100240001000481D
:101B500000610140040300201C00024080B5AEB0CB
:101B600000AF786007F1A40300221A605A609A60FF
:101B7000DA601A6107F110039422002118460AF076
:101B800031FA2A4B1B68002B4BD14FF480333B6159
:101B90000023C7F8943007F11003184604F0BAFA8E
:101BA0000346002B01D0FFF798FE214B1B68013341
:101BB0001F4A13601E4B1B68012B0BD11D4B1B6E64
:101BC0001C4A43F0807313661A4B1B6E03F080733C
:101BD000FB60FB68174BDB6C164A43F01003D364C1
:101BE000144BDB6C03F01003BB60BB684FF4207335
:101BF000C7F8A4300223C7F8A8300023C7F8AC30D8
:101C00000023C7F8B0300623C7F8B43007F1A403A7
:101C10001946094803F0ACF9044B1B680133034A29
:101C2000136000BFB837BD4680BD00BFBC8B02202B
:101C3000B88B0220001002400010004880B584B02C
:101C400000AF78607B681B68B3F1804F13D10C4BF9
:101C50009B6D0B4A43F001039365094B9B6D03F0A9
:101C60000103FB60FB68002200211C2002F017F931
:101C70001C2002F030F900BF1037BD4680BD00BF08
:101C80000010024080B400AF00BFBD465DF8047B89
:101C9000704780B400AFFEE780B400AFFEE780B4C9
:101CA00000AFFEE780B400AFFEE780B400AF00BF36
:101CB000BD465DF8047B704780B400AF00BFBD46F1
:101CC0005DF8047B704780B400AF00BFBD465DF88F
:101CD000047B704780B500AF01F0C2FF00BF80BD3C
:101CE00080B500AF024802F0F3FF00BF80BD00BF27
:101CF0001802002080B500AF024802F0E9FF00BFE3
:101D000080BD00BF0403002080B500AF024806F08C
:101D1000D9FE00BF80BD00BF6403002080B500AFC6
:101D2000022003F0E7FA00BF80BD80B500AF4FF49A
:101D3000005003F0DFFA00BF80BD80B400AF012384
:101D40001846BD465DF8047B704780B582B000AF91
:101D5000786039600AF04EFA034616221A604FF096
:101D6000FF3318460837BD4680BD80B582B000AF4E
:101D700078604FF0FF317868FFF7E7FFFEE780B546
:101D800086B000AFF860B9607A6000237B610AE03A
:101D9000FFF75AFD0146BB685A1CBA60CAB21A70F6
:101DA0007B6901337B617A697B689A42F0DB7B68EF
:101DB00018461837BD4680BD80B586B000AFF860C4
:101DC000B9607A6000237B6109E0BB685A1CBA6085
:101DD0001B781846FFF726FD7B6901337B617A6922
:101DE0007B689A42F1DB7B6818461837BD4680BD98
:101DF00080B483B000AF78604FF0FF3318460C37E3
:101E0000BD465DF8047B704780B483B000AF786056
:101E100039603B684FF400525A60002318460C3773
:101E2000BD465DF8047B704780B483B000AF786036
:101E3000012318460C37BD465DF8047B704780B41B
:101E400085B000AFF860B9607A6000231846143797
:101E5000BD465DF8047B704780B586B000AF786002
:101E6000144A154BD31A7B617B693B61134B1B688A
:101E7000002B02D1114B124A1A60104B1A687B6872
:101E800013443A699A4207D20AF0B4F903460C2285
:101E90001A604FF0FF3309E0084B1B68FB60074BEB
:101EA0001A687B681344054A1360FB6818461837A4
:101EB000BD4680BD00400620007F0000C08B022090
:101EC0004897022080B400AF174BD3F88830164AE9
:101ED00043F47003C2F88830144B1B68134A43F074
:101EE00001031360114B00229A60104B1B680F4ACC
:101EF00023F0A85323F4102313600C4B4FF48052AB
:101F0000DA600A4B1B68094A23F480231360074BED
:101F100000229A61044B4FF000629A6000BFBD46F8
:101F20005DF8047B704700BF00ED00E00010024048
:101F300080B483B000AF0346FB71FB792F2B06D929
:101F4000FB79392B03D8FB79303BDBB214E0FB790A
:101F5000602B06D9FB79662B03D8FB79573BDBB2A4
:101F60000AE0FB79402B06D9FB79462B03D8FB7995
:101F7000373BDBB200E0002318460C37BD465DF866
:101F8000047B704780B584B000AF7860396000236F
:101F9000FB730023BB7312E0FB7B1B01FB737B68AD
:101FA0001B781846FFF7C4FF03461A46FB7B134411
:101FB000FB737B6801337B60BB7B0133BB737B6846
:101FC0001B782F2B03D97B681B78392B0FD97B68A3
:101FD0001B78602B03D97B681B78662B07D97B683D
:101FE0001B78402B06D97B681B78462B02D8BB7B1D
:101FF000012BD1D93B68002B02D03B68BA7B1A7009
:10200000FB7B18461037BD4680BD80B485B000AF5D
:10201000786039600023FB730023BB730023BB602F
:102020007B681B782D2B19D10123FB737B6801334F
:102030007B60BB7B0133BB7310E0BA6813469B0027
:1020400013445B001A467B681B78303B1344BB602B
:102050007B6801337B60BB7B0133BB737B681B7880
:102060002F2B03D97B681B78392BE6D93B68002BD3
:1020700002D03B68BA7B1A70FB7B002B02D0BB6896
:102080005B4200E0BB6818461437BD465DF8047B30
:10209000704790B587B000AFF860B9607A600023F0
:1020A000FB75FB68002B27D0BB68002B24D018E001
:1020B0000123BB75FB681B783A2B0DD0FB7D5A1CA6
:1020C000FA751A46BB689C1807F116031946F8689A
:1020D000FFF758FF03462370BB7D1A46FB68134485
:1020E000FB60FB7D7A689A4206D9FB7D052B03D8FD
:1020F000FB681B78002BDBD100BF1C37BD4690BDB1
:1021000080B586B000AFF860B9607A600023FB75D7
:10211000FB68002B27D0BB68002B24D07B68032BE7
:1021200021D919E00123BB75FB681B782E2B0ED03B
:1021300007F116031946F868FFF767FF0146FB7DB4
:102140005A1CFA751A46BB681344CAB21A70BB7D92
:102150001A46FB681344FB60FB7D032B03D8FB6826
:102160001B78002BDED100BF1837BD4680BD0000B4
:1021700080B584B000AF786039600023FB723B68A3
:1021800002334049184609F069FFF86071E0FB7AB4
:102190005A1CFA72062B66D801A252F823F000BF2F
:1021A000BD210008D1210008E92100080122000812
:1021B0001922000831220008452200087B681F22EE
:1021C000F968184609F037FF7B680022DA774BE0A0
:1021D0007B6820331722F968184609F02CFF7B68CA
:1021E000002283F837203FE07B6838330F22F968FC
:1021F000184609F020FF7B68002283F8472033E06F
:102200007B6848330F22F968184609F014FF7B6891
:10221000002283F8572027E07B6858330F22F968A3
:10222000184609F008FF7B68002283F867201BE04E
:102230000021F868FFF7E9FE03461A467B68C3F8F9
:10224000882011E01049F86809F008FFF8607B6801
:1022500068331F22F968184609F0EDFE7B680022FA
:1022600083F8872000E000BF0649002009F0F6FE51
:10227000F860FB68002B8AD100BF00BF1037BD4655
:1022800080BD00BFB0E40008B4E4000880B584B0AD
:1022900000AF786039600023FB737B6802335949D3
:1022A000184609F0DBFEB860A2E0FB7B5A1CFA730B
:1022B0000B2B00F28C8001A252F823F0ED220008D3
:1022C000032300081B2300082F23000843230008D2
:1022D0005723000867230008772300088723000896
:1022E00097230008A7230008BB2300083B6820228F
:1022F000B968184609F09FFE3B68002283F8202049
:1023000066E03B6821332022B968184609F093FE45
:102310003B68002283F841205AE00021B868FFF7AB
:1023200074FE0346DAB23B6883F8422050E0002195
:10233000B868FFF76AFE0346DAB23B6883F84320C9
:1023400046E00021B868FFF760FE0346DAB23B685A
:1023500083F847203CE03B68483304221946B868BC
:10236000FFF7CEFE34E03B684C3304221946B868D0
:10237000FFF7C6FE2CE03B68503304221946B868CC
:10238000FFF7BEFE24E03B68543304221946B868C8
:10239000FFF7B6FE1CE03B68583304221946B868C4
:1023A000FFF7AEFE14E00021B868FFF72EFE0346EB
:1023B000DAB23B6883F844200AE00021B868FFF7EE
:1023C00024FE0346DAB23B6883F8462000E000BFF3
:1023D0000C49002009F042FEB860BB68002B07D012
:1023E000BB68013B1B782C2B02D1FB7B0133FB73B9
:1023F000BB68002B7FF459AF00BF00BF1037BD464C
:1024000080BD00BFB0E4000890B587B000AFF860B1
:10241000B9607A6000233B610023FB82FB68D3F83C
:102420002031002B56D0FB68D3F82431002B51D03B
:10243000FB68D3F82041B868FDF732FF034699B234
:10244000FB68D3F8F8381A46B868A04703463B61E2
:102450003B69002B3EDDFB68D3F82431FA68D2F8E3
:10246000F8284FF4FA61786898470346FB82B7F979
:102470001630002B27DDB7F91630B3F5FA6F22DCE2
:10248000B7F91630B3F5FA6F05D1B7F916309BB22C
:10249000013B9BB2FB82B7F916307A6813440022E5
:1024A0001A700F49786809F035FE0346002B01D0F9
:1024B000002310E00B49786809F02CFE0346002B3E
:1024C00001D0052307E0B7F9163013F1040F01D14D
:1024D000062300E0042318461C37BD4690BD00BF0C
:1024E000C8E40008D4E4000880B586B000AFF86006
:1024F000B9607A607B800023FB820023BB820023CB
:102500007B82B868FDF7CCFE03467B827B8A03F0B2
:102510000103002B01D002235DE0FB68D3F82031DA
:10252000002B57D0FB68D3F82431002B52D0FB6826
:10253000D3F82031FA68D2F8F828798AB868984731
:1025400003463B823A8A7B8A9A4243D1FB68D3F89E
:102550002031FA68D2F8F8287988786898470346D5
:10256000FB82B7F916207B889A4231D1FB68D3F8F9
:102570002431FA68D2F8F8280021386A98470346CF
:10258000BB82B7F91430002B19DDB7F914303A6A61
:10259000134400221A701249386A09F0BBFD034641
:1025A000002B01D0002316E00E49386A09F0B2FD75
:1025B0000346002B01D005230DE002230BE0B7F901
:1025C000143013F1040F01D1062304E0022302E0CA
:1025D000022300E0042318461837BD4680BD00BF23
:1025E000C8E40008D4E4000890B587B000AFF860F4
:1025F000B9607A607B80FB6803F594733B61FB688C
:10260000D3F82031002B00F08780FB68D3F8243109
:10261000002B00F08180FB68D3F82041B868FDF7FB
:102620003FFE034699B2FB68D3F8F8381A46B868FB
:10263000A0470346002B6FDDFB68D3F82431FA680E
:10264000D2F8F82800213869984703467B613B6936
:102650001B780D2B04D13B6901331B780A2B01D069
:1026600004235AE07B69023B7B613B6902333B6197
:102670007B69072B4AD902E07B69013B7B617B695F
:10268000002B06D07B69013B3A6913441B78152B5C
:10269000F2D07B693A69134400221A707B69083BC7
:1026A0003A6913441F49184609F034FD0346002BCC
:1026B00016D07B699BB2083B9AB2BB6A1A80BB6A90
:1026C0001B887A889A4202D2BB6A7A881A80BB6ACF
:1026D0001B881A463969786809F0C0FD00231CE0A0
:1026E0007B69043B3A69134404220F49184609F0F8
:1026F00069FC0346002B04D1BB6A00221A80052323
:102700000BE0BB6A00221A80052306E07B6913F107
:10271000040F01D1062300E0042318461C37BD46F0
:1027200090BD00BFC8E40008DCE4000880B584B0B8
:1027300000AF78600223FB737B6847F23052C3F826
:10274000F8287B68D3F81431002B1BD07B68D3F8B2
:102750001431002098470346002B13D17B6803F502
:1027600094731A460A497868FFF74EFE0346FB73D6
:10277000FB7B002B06D17B6803F5947319467868C0
:10278000FFF7F6FCFB7B18461037BD4680BD00BF47
:10279000E4E4000880B485B000AFF860B9607A6006
:1027A0003B60FB68002B0BD0BB68002B08D07B681C
:1027B000002B05D0BB69002B02D0FB69002B01D197
:1027C000022314E0FB68BA68C3F81421FB687A6836
:1027D000C3F81821FB68BA69C3F82021FB68FA69BD
:1027E000C3F82421FB683A68C3F81C21002318466B
:1027F0001437BD465DF8047B7047000080B586B095
:1028000000AFF860B9607A60FB70FB6803F5947301
:10281000BA683249184609F0DDFAFB6803F594718D
:10282000FB6803F594731A46F868FFF7EDFD03465D
:10283000FB75FB7D002B4BD1FB6803F594737A6825
:102840002749184609F0C6FAFB6803F59471FB683E
:1028500003F594731A46F868FFF7D6FD0346FB7537
:10286000FB7D002B34D1FB68FA7883F88C20FB6861
:1028700003F59473FA781B49184609F0ABFAFB6824
:1028800003F59471FB6803F594731A46F868FFF733
:10289000BBFD0346FB75FB7D002B19D1FB6803F5DF
:1028A00094731149184609F095FAFB6803F5947181
:1028B000FB6803F594731A46F868FFF7A5FD034615
:1028C000FB75FB7D002B03D1FB68012283F8D2202E
:1028D000FB7D18461837BD4680BD00BFFCE40008EC
:1028E00004E500080CE5000814E5000880B584B094
:1028F00000AF78607B6803F594731349184609F0BC
:1029000069FA7B6803F594717B6803F594731A4642
:102910007868FFF779FD0346FB73FB7B002B0BD137
:102920007B6893F82A31312B0CBF01230023DBB2E3
:102930001A467B6883F8D2207B6893F8D230184619
:102940001037BD4680BD00BF18E5000880B584B0D3
:1029500000AF78607B6803F594731049184609F05E
:1029600039FA7B6803F594717B6803F594731A4612
:102970007868FFF749FD0346FB73FB7B002B08D10A
:102980007B6803F594727B688D3319461046FFF718
:102990007DFCFB7B18461037BD4680BD20E5000856
:1029A00080B586B000AFF860B9601346FB71FB6874
:1029B00003F594731349184609F00CFAFB6803F504
:1029C0009471FB6803F594731A46F868FFF71CFDD1
:1029D0000346FB75FB7D002B0ED1FB6803F594735A
:1029E00002330949184609F039FB3861FB791A4668
:1029F000B9683869FFF74DFBFB7D18461837BD46AF
:102A000080BD00BF70E5000874E5000880B584B0A3
:102A100000AF786039600023FB737B6803F5947026
:102A20003B689B781A46494909F0D4F97B6803F55D
:102A300094717B6803F594731A467868FFF7E4FC99
:102A40000346FB73FB7B002B01D0FB7B79E03B68EB
:102A50001B78012B16D03B681B78022B12D07B68A9
:102A600003F594733A49184609F0B4F97B6803F505
:102A700094717B6803F594731A467868FFF7C4FC79
:102A80000346FB73FB7B002B5AD17B6803F59470E4
:102A90003B681B781A462F4909F09CF97B6803F5BF
:102AA00094717B6803F594731A467868FFF7ACFC61
:102AB0000346FB73FB7B002B42D17B6803F59470CC
:102AC0003B681B7C1A46244909F084F97B6803F5AE
:102AD00094717B6803F594731A467868FFF794FC49
:102AE0000346FB73FB7B002B2AD17B6803F59470B4
:102AF0003B68DB881A46194909F06CF97B6803F5D5
:102B000094717B6803F594731A467868FFF77CFC30
:102B10000346FB73FB7B002B12D17B6803F5947398
:102B20000F49184609F056F97B6803F594717B68E4
:102B300003F594731A467868FFF766FC0346FB7347
:102B4000FB7B18461037BD4680BD00BFD8E50008A6
:102B500020E60008E0E500082CE60008E8E50008AB
:102B600034E6000880B58AB000AFF860B9607A60DA
:102B7000002387F8233001F087F878627A6ABB680F
:102B80001344FB61FA697B6A9A4201D200237B629B
:102B9000FB6803F594734FF4FA620021184609F0BC
:102BA00021FAFB6803F594735F49184609F012F99E
:102BB000FB6803F59471FB6803F594731A46F86893
:102BC000FFF722FC034687F8233097F82330002BC9
:102BD00029D1FB6803F594735449184609F09AFA11
:102BE0000346002B21D0FB6803F594735049184627
:102BF00009F090FA0346002B17D0FB6803F5947395
:102C00004C49184609F086FA0346002B0DD1FB68A3
:102C100003F594734849184609F07CFA0346002BE3
:102C200003D102237CE002237AE0FB6803F594736E
:102C30004FF4FA620021184609F0D4F9FB6803F555
:102C400094733E49184609F0C5F8FB6803F5947182
:102C5000FB6803F594731A46F868FFF7D5FB034643
:102C600087F8233097F82330002B40D1FB6803F519
:102C700094730C223249184609F0CBF90346002B15
:102C800037D0FB6803F5947302332E49184609F0D8
:102C9000E5F978612B49002009F0E0F978617B685B
:102CA0000833042219467869FFF72AFA25490020DB
:102CB00009F0D4F9786100217869FFF7A6F9034695
:102CC0009AB27B68DA801F49002009F0C7F9786161
:102CD0001C49002009F0C2F9786100217869FFF7EA
:102CE00094F903469AB27B689A80002318E0022385
:102CF00016E0FB68D3F81C316420984700F0C4FF4D
:102D0000B861BB68002B3FF443AFBA69FB699A42D4
:102D1000FFF43EAFBA697B6A9A42FFF439AF0323EE
:102D200018462837BD4680BDF4E400083CE600089C
:102D300044E600084CE6000858E6000868E600088B
:102D40006CE60008B0E4000880B584B000AF78609D
:102D50000B46FB707B6803F59473FA7816491846A6
:102D600009F038F87B6803F594717B6803F5947378
:102D70001A467868FFF748FB0346FB73FB7B002B82
:102D800001D0FB7B13E07B6803F594730B49184675
:102D900009F020F87B6803F594717B6803F5947360
:102DA0001A467868FFF730FB0346FB73FB7B184637
:102DB0001037BD4680BD00BFD8E500087CE600089E
:102DC00080B588B002AFF8607A601A460B46FB7295
:102DD00013463B810223FB747B6A002B02D1012343
:102DE0007B6101E07B6A7B613B89B3F5966F02D31F
:102DF0004FF496633B813B6A3A891A80FB6803F57E
:102E00009473FA7A2D49184608F0E4FFFB6803F53D
:102E10009471FB6803F594731A46F868FFF7F4FAA7
:102E20000346FB74FB7C002B3CD1FB6803F59473D9
:102E30007A692349184608F0CDFFFB6803F59471C1
:102E4000FB6803F594731A46F868FFF7DDFA03464A
:102E5000FB74FB7C002B25D1FB6803F594733A8946
:102E60001849184608F0B6FFFB6803F59471FB6833
:102E700003F594733A89009313467A68F868FFF76C
:102E800033FB0346FB74FB7C002B0BD1FB6803F583
:102E900094730D49184609F03DF90346002B01D003
:102EA0000223FB74FB7C022B02D13B6A00221A80B6
:102EB000FB7C18461837BD4680BD00BFD8E500082A
:102EC000B4E60008BCE60008C8E6000880B588B093
:102ED00002AFF8607A601A460B46FB7213463B81DC
:102EE0000223FB747B6A002B02D101237B6101E08A
:102EF0007B6A7B613B89B3F5966F62D8FB6803F50B
:102F00009473FA7A3149184608F064FFFB6803F5B8
:102F10009471FB6803F594731A46F868FFF774FA26
:102F20000346FB74FB7C002B46D1FB6803F59473CE
:102F30003A892749184608F04DFFFB6803F594715C
:102F4000FB6803F594731A46F868FFF75DFA0346C9
:102F5000FB74FB7C002B2BD1FB6803F594737A691F
:102F60001C49184608F036FFFB6803F59471FB68AE
:102F700003F594731A46F868FFF746FA0346FB74A4
:102F8000FB7C002B1DD1FB6803F594731249184696
:102F900008F020FFFB6803F594713A893B6A0093BF
:102FA00013467A68F868FFF71FFB0346FB7408E0D6
:102FB0003B6A00221A8004E0084B1B680133074A71
:102FC0001360FB7C18461837BD4680BDD8E5000865
:102FD000D0E60008D8E60008E0E60008C48B02202E
:102FE00080B58CB000AF7860574B9B6D564A43F468
:102FF00000439365544B9B6D03F40043BB61BB6975
:10300000514BDB6C504A43F00203D3644E4BDB6CF4
:1030100003F002037B617B694B4BDB6C4A4A43F054
:103020000403D364484BDB6C03F004033B613B694E
:10303000454BDB6C444A43F01003D364424BDB6CDA
:1030400003F01003FB60FB6800224FF400513F487F
:1030500002F038F94FF40053FB6101233B62002377
:103060007B620023BB6207F11C031946374801F05D
:103070007FFF0223FB614FF488133B6200237B62D6
:103080000023BB6207F11C031946314801F070FFB1
:103090004FF48073FB6101233B6200237B620023BA
:1030A000BB620023FB6207F11C031946284801F0AC
:1030B0005FFF01220121264802F004F90123FB6190
:1030C00001233B6200237B620123BB6207F11C03E7
:1030D00019461F4801F04CFF4FF48063FB61022347
:1030E0003B6200237B620123BB620623FB6207F184
:1030F0001C031946174801F03BFF4FF48053FB6156
:1031000002233B6200237B620123BB620623FB6236
:1031100007F11C0319460F4801F02AFF4FF4006322
:10312000FB6102233B6201237B620123BB62062316
:10313000FB6207F11C031946064801F019FF00BFA6
:103140003037BD4680BD00BF00100240000400487B
:10315000001000480008004880B584B000AF034666
:10316000FB800023FB73FB88002B45D1274B284AAB
:103170001A602648FFF734FF244B4FF482725A60DE
:10318000224B00229A60214B4FF47062DA601F4B91
:1031900000221A611D4B00225A611C4B4FF4007231
:1031A0009A611A4B1022DA61184B00221A62174BEF
:1031B00000225A62154B00229A62144B0022DA62F6
:1031C000124803F0BFFC0346002B02D04FF0FF3340
:1031D00018E000220021072000F061FE072000F027
:1031E0007AFE00220021332000F059FE332000F047
:1031F00072FE0A2000F0FEF900F00CF80346FB73A3
:1032000097F90F3018461037BD4680BDC88B022095
:10321000003C004080B584B000AF00F035FDB860E0
:103220000023FB7300224FF48071304802F04AF80B
:103230000A2000F035FD01224FF480712B4802F086
:1032400041F84FF4FA7000F02BFD002201212748CD
:1032500002F038F80F2000F0CDF920E0FB7B3A4671
:10326000D1184FF6FF730122214803F073FD034686
:10327000FB71FB7B0233FB7300F006FD0246BB686B
:10328000D31AB3F5803F02D2FB79002B07D001227D
:103290000121164802F016F84FF0FF3321E0022119
:1032A000124801F0F7FF0346012BD7D0012201217C
:1032B0000E4802F007F83B78152B0ED17B78152BC2
:1032C0000BD1BB780D2B08D1FB780A2B05D13B79AC
:1032D0003E2B02D17B79202B02D04FF0FF3300E050
:1032E000002318461037BD4680BD00BF00100048BF
:1032F000C88B022080B500AF024803F0EFFC00232A
:10330000184680BDC88B022080B584B000AF7860BD
:1033100000F0BAFC0346FB600AE000F0B5FC024690
:10332000FB68D21A7B689A4202D94FF0FF3307E05C
:103330000221054801F0AEFF0346012BEDD1002329
:1033400018461037BD4680BD0010004880B584B0D7
:1033500000AF786000F098FC0346FB600AE000F0E4
:1033600093FC0246FB68D21A7B689A4202D94FF05E
:10337000FF3304E0044B1B68012BF0D000231846F8
:103380001037BD4680BD00BF348C022080B584B0AC
:1033900000AF786000F078FC0346FB600AE000F0C4
:1033A00073FC0246FB68D21A7B689A4202D94FF03E
:1033B000FF3304E0044B1B68012BF0D000231846B8
:1033C0001037BD4680BD00BF2C8C022080B584B074
:1033D00000AF786000F058FC0346FB600AE000F0A4
:1033E00053FC0246FB68D21A7B689A4202D94FF01E
:1033F000FF3304E0044B1B68012BF0D00023184678
:103400001037BD4680BD00BF308C022080B586B02D
:1034100000AFF8600B467A607B810023FB820122BB
:103420000121344801F04EFF032000F0E3F87B68EF
:103430001846FFF78BFF0346002B02DA6FF00203FA
:1034400054E0002201212B4801F03CFF0F2000F046
:10345000D1F83DE0B7F916207B899A4202DB7B89DF
:10346000002B3CD1244B01221A6007F114030122E6
:103470001946224804F03CFA0346002B07D00122EB
:1034800001211C4801F01EFF4FF0FF332EE07B6846
:103490001846FFF77BFF3A7DFB681A70FB68013323
:1034A0007A7D1A70FB8A02339BB2FB82FB6802337F
:1034B000FB60B7F91630B3F5FA6F09DB0122012181
:1034C0000C4801F0FFFEFFF7A5FE6FF003030DE0CF
:1034D0000221084801F0DEFE0346012BBAD001228A
:1034E0000121044801F0EEFEB7F9163018461837EE
:1034F000BD4680BD001000482C8C0220C88B0220E5
:1035000080B586B000AFF8600B467A607B817B683F
:103510001846FFF7F9FE0346002B02DA4FF0FF339F
:103520004FE02A4B01221A6000220121284801F0B5
:10353000C9FE0F2000F05EF87B89012B19D9254BBD
:1035400001221A607B895B089BB21A46F9682248FF
:1035500004F02EF90346002B07D0012201211C485C
:1035600001F0B0FE4FF0FF332BE07B681846FFF709
:103570002DFF7B8903F00103002B20D07B89013BC9
:10358000FA6813441B783B750A237B75114B0122A3
:103590001A6007F11403012219460F4804F008F9D4
:1035A0000346002B07D001220121094801F08AFEC1
:1035B0004FF0FF3305E07B681846FFF707FFB7F9C8
:1035C0000A3018461837BD4680BD00BF348C022033
:1035D00000100048308C0220C88B022080B582B0D9
:1035E00000AF7860786800F05BFB00BF0837BD462D
:1035F00080BD000080B586B000AF78600023BB605E
:1036000000237B61204B1B68002B22D11F4B1B68C2
:103610001F4AA2FB03239B093B610023FB603B691C
:10362000BB6000F031FBF86002E0BB68013BBB60AF
:10363000BB68002BF9D100F027FB0246FB68D31AC8
:10364000114A1360104B1B68002B02D10E4B012254
:103650001A600E4B1B680F4AA2FB03239A0C0A4BFD
:103660001B68B2FBF3F37B617B687A6902FB03F3AF
:10367000BB6002E0BB68013BBB60BB68002BF9D1BB
:1036800000BF1837BD4680BD388C022000000020E6
:10369000D34D621083DE1B4380B483B000AF7860EB
:1036A000064B1B68002B02D0044B00221A6000BF9F
:1036B0000C37BD465DF8047B704700BF2C8C0220A0
:1036C00080B483B000AF7860064B1B68002B02D03B
:1036D000044B00221A6000BF0C37BD465DF8047B26
:1036E000704700BF308C022080B400AF054B1B68D0
:1036F000012B02D1034B00221A6000BFBD465DF8CA
:10370000047B7047348C022080B584B002AF012363
:10371000FB710D4B01930D4B00930D4B0D4A0E4960
:103720000E48FFF737F80346002B07D10B48FEF78A
:10373000FDFF0346002B01D10023FB71FB791846E6
:103740000837BD4680BD00BF0D34000801350008B4
:10375000DD350008F5320008593100083C8C0220A4
:1037600080B586B000AFF860B9601346FB710123E5
:10377000FB75FB79BA68F9680948FFF73FF803461B
:10378000002B07D10648FFF7E1F80346002B01D1D3
:103790000023FB75FB7D18461837BD4680BD00BF72
:1037A0003C8C022080B584B000AF78600B46FB7083
:1037B0000123FB737B68002B0DD0FB78002B0AD014
:1037C000FB781A4679680648FFF7EAF80346002BAB
:1037D00001D10023FB73FB7B18461037BD4680BD2B
:1037E0003C8C022080B584B000AF78600B46FB7043
:1037F0000123FB737B68002B10D0FB78032B0DD9C2
:103800000948FFF773F80346012B07D1064BD3F89D
:10381000D5301A467B681A600023FB73FB7B184681
:103820001037BD4680BD00BF3C8C022080B58AB0F9
:1038300000AFF8607B600B46FB7213463B810123AF
:1038400087F82730FB68DBB2BB743B8EFB82FB7AC8
:10385000002B14BF01230023DBB23B743B89DBB296
:1038600087F8203007F1100319460748FFF7CEF814
:103870000346002B02D1002387F8273097F8273022
:1038800018462837BD4680BD3C8C022080B58AB0E2
:1038900000AFF860B9607A60FB70FB68DBB2BB74A4
:1038A00007F110031A46B9681B48FFF75BF9034696
:1038B00087F8273097F82730002B10D13B6B002B6F
:1038C00002D0BA8A3B6B1A807B68002B05D0FB784C
:1038D000032B02D9BA697B681A60002317E097F8B6
:1038E0002730032B12D13B6B002B02D03B6B002205
:1038F0001A807B68002B07D0FB78032B04D90422A5
:103900000021786808F06EFB052300E001231846CB
:103910002837BD4680BD00BF3C8C022080B584B0F6
:1039200000AF78600123FB737B68DBB21946064861
:10393000FFF70AFA0346002B01D10023FB73FB7B40
:1039400018461037BD4680BD3C8C022080B588B03B
:1039500002AFF860B9603B601346FB800123FB7542
:10396000FB68D9B2FA883B6A01933B68009313461F
:10397000BA680648FFF724FA0346002B01D100235A
:10398000FB75FB7D18461837BD4680BD3C8C022078
:1039900080B588B002AFF860B9603B601346FB8029
:1039A0000123FB75FB68D9B2FA883B6A01933B6837
:1039B00000931346BA680648FFF788FA0346002BBF
:1039C00001D10023FB75FB7D18461837BD4680BD2D
:1039D0003C8C022080B588B000AF0346FB71FB79B8
:1039E000002B0BD1114BDB6C104A43F00203D36464
:1039F0000E4BDB6C03F00203BB60BB684FF48043EB
:103A0000FB6001233B6100237B610223BB61FB79E7
:103A1000074A52F8233007F10C021146184601F00C
:103A2000A7FA00BF2037BD4680BD00BF001002408E
:103A30000400002080B588B000AF03460A46FB7141
:103A40001346BB71244BDB6C234A43F00403D3645D
:103A5000214BDB6C03F00403BB60BB68BB79002B1C
:103A600012D14FF40053FB6000233B6101237B61C3
:103A70000223BB61FB79194A52F8233007F10C028B
:103A80001146184601F074FABB79012B1FD14FF48F
:103A90000053FB6001237B610323BB614FF4881358
:103AA0003B61FB790D4A52F8233007F10C021146B5
:103AB000184601F05DFA28235BB200220F21184658
:103AC00000F0EDF928235BB2184600F004FA00BFBD
:103AD0002037BD4680BD00BF001002400800002016
:103AE00080B58AB000AF03463960FB71FB79002BCB
:103AF0000BD12D4BDB6C2C4A43F00203D3642A4BD1
:103B0000DB6C03F002033B613B69FB79002B0BD1BB
:103B1000254BDB6C244A43F00203D364224BDB6C5D
:103B200003F00203FB60FB68FB79002B0BD11E4BFB
:103B30001B6E1D4A43F4804313661B4B1B6E03F43C
:103B40008043BB60BB6840237B610223BB610223CF
:103B50003B620023FB6107237B62FB79134A52F827
:103B6000233007F114021146184601F001FA8023B0
:103B70007B610223BB6107237B62FB790C4A52F80D
:103B8000233007F114021146184601F0F1F9FB79D0
:103B9000084A52F823203B681A60386805F060FB39
:103BA00000BF2837BD4680BD001002401000002035
:103BB000140000200C00002080B582B000AF00236C
:103BC000FB71032000F060F90F2000F00DF80346B0
:103BD000002B02D00123FB7101E0FDF783FEFB798E
:103BE00018460837BD4680BD80B584B000AF786008
:103BF0000023FB73174B1B78002B23D0164B1A683E
:103C0000144B1B7819464FF47A73B3FBF1F3B2FBF4
:103C1000F3F3184600F06DF90346002B0FD17B68D3
:103C20000F2B09D8002279684FF0FF3000F037F9E8
:103C30000A4A7B68136007E00123FB7304E0012359
:103C4000FB7301E00123FB73FB7B18461037BD4675
:103C500080BD00BF1C0000200000002018000020D4
:103C600080B400AF064B1B781A46064B1B68134402
:103C7000044A136000BFBD465DF8047B704700BF77
:103C80001C000020D095022080B400AF034B1B68BD
:103C90001846BD465DF8047B704700BFD0950220F2
:103CA00080B584B000AF7860FFF7EEFFB8607B6846
:103CB000FB60FB68B3F1FF3F05D00A4B1B781A4647
:103CC000FB681344FB6000BFFFF7DEFF0246BB68E2
:103CD000D31AFA689A42F7D800BF00BF1037BD4622
:103CE00080BD00BF1C00002080B485B000AF7860AC
:103CF0007B6803F00703FB600C4BDB68BB60BA68B2
:103D00004FF6FF031340BB60FB681A02BB68134306
:103D100043F0BF6343F40033BB60044ABB68D36025
:103D200000BF1437BD465DF8047B704700ED00E02E
:103D300080B400AF044BDB681B0A03F0070318468E
:103D4000BD465DF8047B704700ED00E080B483B0B1
:103D500000AF0346FB7197F90730002B0BDBFB79B3
:103D600003F01F02074997F907305B09012000FAA9
:103D700002F241F8232000BF0C37BD465DF8047BFA
:103D8000704700BF00E100E080B483B000AF03469D
:103D90003960FB7197F90730002B0ADB3B68DAB218
:103DA0000C4997F907301201D2B20B4483F8002373
:103DB0000AE03B68DAB20849FB7903F00F03043BE1
:103DC0001201D2B20B441A7600BF0C37BD465DF823
:103DD000047B704700E100E000ED00E080B489B0B2
:103DE00000AFF860B9607A60FB6803F00703FB611D
:103DF000FB69C3F10703042B28BF0423BB61FB69E4
:103E00000433062B02D9FB69033B00E000237B61EE
:103E10004FF0FF32BB6902FA03F3DA43BB681A4082
:103E20007B699A404FF0FF317B6901FA03F3D94374
:103E30007B680B40134318462437BD465DF8047B6E
:103E40007047000080B582B000AF78607B68013BAE
:103E5000B3F1807F01D301230FE00A4A7B68013B65
:103E600053600F214FF0FF30FFF78EFF054B00220C
:103E70009A60044B07221A60002318460837BD4693
:103E800080BD00BF10E000E080B582B000AF786078
:103E90007868FFF729FF00BF0837BD4680BD80B5B1
:103EA00086B000AF0346B9607A60FB7300237B6184
:103EB000FFF73EFF78617A68B9687869FFF78EFF8F
:103EC000024697F90F3011461846FFF75DFF00BF15
:103ED0001837BD4680BD80B582B000AF0346FB7188
:103EE00097F907301846FFF731FF00BF0837BD4686
:103EF00080BD80B582B000AF78607868FFF7A2FF20
:103F0000034618460837BD4680BD80B582B000AF75
:103F100078607B68002B01D1012314E07B681B795A
:103F2000DBB2002B05D17B6800225A717868FDF75F
:103F3000FDFC7B6802221A717B6800221A617B6893
:103F400001221A71002318460837BD4680BD80B48F
:103F500083B000AF786039607B685B79012B01D159
:103F6000022340E07B6801225A717B6802221A71A9
:103F70007B681B6819683B6803F0100301229A40B4
:103F80007B681B680A431A603B68002B0FD17B6873
:103F90001B681B6803F03E03022B1DD17B681B6866
:103FA0005A687B681B6842F001025A6014E07B6823
:103FB0001B681B6803F478123B6803F010030221AE
:103FC00001FA03F39A4207D17B681B685A687B6841
:103FD0001B6842F002025A607B6801221A717B68FA
:103FE00000225A71002318460C37BD465DF8047B49
:103FF0007047000080B586B000AFF860B9607A60A5
:104000003B6000233B61FB685B79012B01D10223FC
:10401000ABE0FB6801225A71FB6802221A71BB688F
:10402000002B2FD1FB689B68524ADA62FB689B68C1
:10403000514A1A63FB689B68504A5A63FB681B68C5
:104040001A68FB681B6842F480521A603B6A082BAE
:1040500013D03B6A082B45D83B6A002B03D03B6A40
:10406000042B05D03EE0FB681B6808333B613CE055
:10407000FB681B680C333B6137E0FB681B6810333F
:104080003B6132E0FB68DB683D4ADA62FB68DB6873
:104090003C4A1A63FB68DB683B4A5A63FB681B684F
:1040A0001A68FB681B6842F080521A603B6A082B52
:1040B00013D03B6A082B17D83B6A002B03D03B6A0E
:1040C000042B05D010E0FB681B6814333B610CE047
:1040D000FB681B6818333B6107E0FB681B681C33F7
:1040E0003B6102E000BF00E000BFBB68002B11D1C4
:1040F000FB681B681A68FB681B6842F400521A6070
:10410000FB68986879683B683A6900F007FD0346E8
:10411000FB7510E0FB681B681A68FB681B6842F0BF
:1041200000521A60FB68D86879683B683A6900F009
:10413000F5FC0346FB75FB6800225A71FB7D002BE2
:104140000CD1FB681B681968BB6803F010030122DF
:104150009A40FB681B680A431A6005E0FB681B690C
:1041600043F00402FB681A61FB7D18461837BD4610
:1041700080BD00BF61440008834400089F440008DC
:10418000094500082B4500084745000880B483B066
:1041900000AF786000BF0C37BD465DF8047B704708
:1041A00080B483B000AF786000BF0C37BD465DF8C7
:1041B000047B704780B483B000AF786000BF0C37D9
:1041C000BD465DF8047B704780B588B000AFF860ED
:1041D000B9607A600023BB61FB685B79012B01D178
:1041E000022337E1FB6801225A71FB6802221A712F
:1041F000BB685B68042B40F08180FFF745FDB86128
:104200007B68002B40D118E0FFF73EFD0246BB69FA
:10421000D31A012B11D9FB681B685B6B03F40043B5
:10422000002B0AD0FB681B6943F00802FB681A6187
:10423000FB6803221A7103230CE1FB681B685B6BAC
:1042400003F40043002BDFD10120FFF729FDFB68B9
:104250001B68BA68D2691A6423E0FFF715FD0246AD
:10426000BB69D31A012B0FD9FB681B685B6B002B52
:104270000ADAFB681B6943F00802FB681A61FB68F5
:1042800003221A710323E5E0FB681B685B6B002BBC
:10429000E3DB0120FFF704FDFB681B68BA68D26905
:1042A0005A64FB681B689A6C7B6803F0100340F249
:1042B000FF3101FA03F3DB4302EA0301BB681A6A28
:1042C0007B6803F010039A40FB681B680A439A64FA
:1042D000FB681B68DA6C7B6803F01003FF2101FAAE
:1042E00003F3DB4302EA0301BB685A6A7B6803F00D
:1042F00010039A40FB681B680A43DA64BB685B6979
:10430000012B1DD1FB681B689B6BFB617B6803F075
:1043100010031F2202FA03F3DB43FA691340FB6127
:10432000BB689B697B617B6803F010037A6902FAC2
:1043300003F3FA691343FB61FB681B68FA699A632C
:10434000FB681B68DB6BFB617B6803F010030722D3
:1043500002FA03F3DB43FA691340FB61BB685A6856
:10436000BB68DB681A43BB681B6913437B617B68CE
:1043700003F010037A6902FA03F3FA691343FB614D
:10438000FB681B68FA69DA63FB681B6819687B685D
:1043900003F010034FF4804202FA03F3DA43FB68A0
:1043A0001B680A401A60FB681B681B68FB617B681E
:1043B00003F0100340F6FE7202FA03F3DB43FA69DE
:1043C0001340FB61BB689B687B617B6803F0100353
:1043D0007A6902FA03F3FA691343FB61BB681B684D
:1043E000B3F5004F04D1FB6943F40043FB6118E0CF
:1043F000BB681B68002B04D1FB6923F40043FB61FD
:104400000FE001F08FFD38613B69144A934204D9F3
:10441000FB6943F40043FB6103E0FB6923F40043C1
:10442000FB61FB681B68FA691A60FB681B68196806
:104430007B6803F01003C02202FA03F3DA43FB683F
:104440001B680A401A60FB6801221A71FB6800228F
:104450005A71002318462037BD4680BD00B4C404FD
:1044600080B584B000AF78607B689B6AFB60F868B9
:10447000FFF78CFEFB6801221A7100BF1037BD46A2
:1044800080BD80B584B000AF78607B689B6AFB60BC
:10449000F868FFF785FE00BF1037BD4680BD80B5C8
:1044A00084B000AF78607B689B6AFB60FB681B6927
:1044B00043F00402FB681A61F868FFF77BFEFB68B3
:1044C00001221A7100BF1037BD4680BD80B483B091
:1044D00000AF786000BF0C37BD465DF8047B7047C5
:1044E00080B483B000AF786000BF0C37BD465DF884
:1044F000047B704780B483B000AF786000BF0C3796
:10450000BD465DF8047B704780B584B000AF78602D
:104510007B689B6AFB60F868FFF7D8FFFB680122A5
:104520001A7100BF1037BD4680BD80B584B000AFA2
:1045300078607B689B6AFB60F868FFF7D1FF00BF7B
:104540001037BD4680BD80B584B000AF78607B6811
:104550009B6AFB60FB681B6943F00402FB681A61FD
:10456000F868FFF7C7FFFB6801221A7100BF103718
:10457000BD4680BD80B582B000AF78607B68002BFF
:1045800001D10123ACE07B681B68184600F0D2F92A
:104590000346554A52F82330002B01D001239FE0F7
:1045A0007868FDF7DBFA514B1B6801334F4A136003
:1045B0004E4B1B68012B25D14D4B1B684C4A23F0F9
:1045C000804313604A4B1A687B689B6848491343D1
:1045D0000B60474B1B68464A23F47F0313607B68DC
:1045E0001B79012B08D1424B1A687B68DB68013BC1
:1045F0001B043F4913430B603D4B1B683C4A43F08F
:10460000004313607B681B681A687B681B6822F490
:1046100071421A607B681B6819687B681A697B683D
:104620005B691A437B689B691A437B681B680A4372
:104630001A607B681B681A687B681B6822F00F028F
:104640001A607B681B6819687B68DA697B681B6A7B
:104650001A437B681B680A431A607B681B689A6868
:104660007B681B6822F45F029A607B681B6899680C
:104670007B685A6A7B689B6A013B1B041A437B6810
:104680001B680A439A607B681B685A687B681B68D2
:1046900002F007025A607B681B6859687B68DB6A16
:1046A0001A027B681B6BDB001A437B681B680A439A
:1046B0005A607B681B681A687B681B6842F080023E
:1046C0001A607B68012283F834207B681B681846D7
:1046D00000F030F9024604497B6841F8223000239B
:1046E00018460837BD4680BDD8950220D4950220D3
:1046F0000060014080B582B000AF78607B68002B1D
:1047000001D10123CAE07B681B68664A934209D144
:104710007B685B68012B03D07B68DB68012B01D1D0
:104720000123BBE07B6800221A637B6801225A6484
:104730007B6801229A647B6800221A657868FDF71D
:1047400061F97B681B681A687B681B6822F4002289
:104750001A607B681B7A012B08D17B681B681A687A
:104760007B681B6842F000521A6007E07B681B6898
:104770001A687B681B6822F000521A607B685B7ABB
:10478000012B08D17B681B681A687B681B6842F4A0
:1047900000121A6007E07B681B681A687B681B6858
:1047A00022F400121A607B681B681B687A68126822
:1047B00023F4FE4323F0080313607B68DB68022BBD
:1047C00008D17B681B6819687B685A697B681B681D
:1047D0000A431A607B681B7C012B08D17B681B682D
:1047E0001A687B681B6842F010021A6007E07B6859
:1047F0001B681A687B681B6822F010021A607B68CD
:104800005B7C012B08D17B681B681A687B681B687E
:1048100042F020021A6007E07B681B681A687B6818
:104820001B6822F020021A607B681B685B697A684B
:10483000126823F0634303F0FF2353617B681B6816
:1048400059697B68DA697B681B6A013B1B041A4360
:104850007B685B6A013B1A437B681B680A435A61A9
:104860007B685A687B685A637B68DA687B689A63FE
:104870007B689A697B68DA637B681A7C7B6883F85B
:1048800040207B681B681A687B681B6842F0010245
:104890001A607B68012283F84C20002318460837F1
:1048A000BD4680BD0061014080B487B000AFF860B4
:1048B000B9607A600023FB75FB6893F84C30002BDD
:1048C0002ED0FB6893F84C30FF2B29D0FB681B6877
:1048D0001B68FA68126823F0E06323F480231360F6
:1048E0007B68012B0DD1FB681B681A68BB681B0233
:1048F00003F07F431A43FB681B6842F480221A606E
:104900000AE0FB681B681968BB681B0203F07F4262
:10491000FB681B680A431A60FB687A681A6301E047
:104920000123FB75FB7D18461C37BD465DF8047BF3
:104930007047000080B485B000AF78607B681C4A87
:10494000934202D10023FB602BE07B68194A93421B
:1049500002D10123FB6024E07B68174A934202D115
:104960000223FB601DE07B68144A934202D10423BA
:10497000FB6016E07B68124A934202D10523FB607C
:104980000FE07B680F4A934202D10623FB6008E0E8
:104990007B680D4A934202D10723FB6001E00323A9
:1049A000FB60FB6818461437BD465DF8047B704712
:1049B0000060014020600140406001408060014093
:1049C000A0600140C0600140E060014080B584B05B
:1049D00000AF78607B68002B01D101238DE07B68FC
:1049E0001B681A46474B9A420FD87B681B681A46C9
:1049F000454B1344454AA2FB03231B099A007B68DD
:104A00005A647B68424A1A640EE07B681B681A4647
:104A1000404B13443D4AA2FB03231B099A007B68C9
:104A20005A647B683C4A1A647B68022283F825201A
:104A30007B681B681B68FB60FB6823F4FF4323F063
:104A40007003FB607B689A687B68DB681A437B684D
:104A50001B691A437B685B691A437B689B691A432D
:104A60007B68DB691A437B681B6A1343FA6813434C
:104A7000FB607B681B68FA681A60786800F016FAB9
:104A80007B689B68B3F5804F02D17B6800225A6037
:104A90007B685A687B689B6CD2B21A607B68DB6C5F
:104AA0007A68126D5A607B685B68002B10D07B6857
:104AB0005B68042B0CD8786800F036FA7B685B6D75
:104AC00000221A607B689B6D7A68D26D5A6008E09C
:104AD0007B6800225A657B6800229A657B68002209
:104AE000DA657B680022DA637B68012283F825207F
:104AF0007B68002283F82420002318461037BD4627
:104B000080BD00BF07040240F8FFFDBFCDCCCCCC78
:104B100000000240F8FBFDBF0004024080B586B0F3
:104B200000AFF860B9607A603B600023FB75FB68FA
:104B300093F82430012B01D1022366E0FB680122A7
:104B400083F82420FB6893F82530DBB2012B55D184
:104B5000FB68022283F82520FB680022DA63FB68E9
:104B60001B681A68FB681B6822F001021A603B6828
:104B70007A68B968F86800F05AF9FB681B6B002B7B
:104B800008D0FB681B681A68FB681B6842F00E02BD
:104B90001A600FE0FB681B681A68FB681B6822F04C
:104BA00004021A60FB681B681A68FB681B6842F005
:104BB0000A021A60FB689B6C1B6803F48033002BAD
:104BC00007D0FB689B6C1A68FB689B6C42F4807290
:104BD0001A60FB685B6D002B07D0FB685B6D1A6881
:104BE000FB685B6D42F480721A60FB681B681A6890
:104BF000FB681B6842F001021A6005E0FB680022B6
:104C000083F824200223FB75FB7D18461837BD4628
:104C100080BD80B584B000AF78600023FB737B68F3
:104C200093F82530DBB2022B05D07B680422DA63CF
:104C30000123FB7347E07B681B681A687B681B686D
:104C400022F00E021A607B681B681A687B681B687A
:104C500022F001021A607B689B6C1A687B689B6C6F
:104C600022F480721A607B685B6C03F01C027B6824
:104C70001B6C012101FA02F25A607B68DB6C7A68D6
:104C8000126D5A607B685B6D002B0CD07B685B6D8E
:104C90001A687B685B6D22F480721A607B689B6D7A
:104CA0007A68D26D5A607B68012283F825207B6880
:104CB000002283F824207B689B6B002B03D07B6849
:104CC0009B6B78689847FB7B18461037BD4680BDC4
:104CD00080B584B000AF78607B681B6C1B68FB609C
:104CE0007B681B681B68BB607B685B6C03F01C0304
:104CF00004229A40FB681340002B26D0BB6803F0C7
:104D00000403002B21D07B681B681B6803F0200381
:104D1000002B07D17B681B681A687B681B6822F030
:104D200004021A607B685B6C03F01C027B681B6CDE
:104D3000042101FA02F25A607B681B6B002B71D0D0
:104D40007B681B6B786898476CE07B685B6C03F052
:104D50001C0302229A40FB681340002B2ED0BB6834
:104D600003F00203002B29D07B681B681B6803F04B
:104D70002003002B0BD17B681B681A687B681B68BB
:104D800022F00A021A607B68012283F825207B68E2
:104D90005B6C03F01C027B681B6C022101FA02F2BF
:104DA0005A607B68002283F824207B68DB6A002B32
:104DB00038D07B68DB6A7868984733E07B685B6C47
:104DC00003F01C0308229A40FB681340002B2AD0F2
:104DD000BB6803F00803002B25D07B681B681A68AA
:104DE0007B681B6822F00E021A607B685B6C03F024
:104DF0001C027B681B6C012101FA02F25A607B687D
:104E00000122DA637B68012283F825207B68002277
:104E100083F824207B685B6B002B04D07B685B6B82
:104E20007868984700BF00BF1037BD4680BD80B48A
:104E300085B000AFF860B9607A603B60FB68DB6CFE
:104E4000FA68126D5A60FB685B6D002B04D0FB683A
:104E50009B6DFA68D26D5A60FB685B6C03F01C02B4
:104E6000FB681B6C012101FA02F25A60FB681B68A7
:104E70003A685A60FB689B68102B08D1FB681B6876
:104E80007A689A60FB681B68BA68DA6007E0FB68BA
:104E90001B68BA689A60FB681B687A68DA6000BFB2
:104EA0001437BD465DF8047B7047000080B485B0C0
:104EB00000AF78607B681B681A46174B9A420AD885
:104EC0007B685B6C9B089B0003F1804303F5023316
:104ED0007A68936407E07B685B6C9B089A000F4BD1
:104EE00013447A6893647B681B68DBB2083B0C4A06
:104EF000A2FB03231B09FB607B680A4ADA64FB6898
:104F000003F01F0301229A407B681A6500BF143723
:104F1000BD465DF8047B7047070402401C08024050
:104F2000CDCCCCCC8008024080B485B000AF786096
:104F30007B685B68DBB2FB60FA680B4B13449B0039
:104F40001A467B685A657B68084A9A65FB68013B8C
:104F500003F0030301229A407B68DA6500BF14372F
:104F6000BD465DF8047B70473F8200104009024057
:104F700080B487B000AF7860396000237B6166E160
:104F80003B681A6801217B6901FA03F31340FB6057
:104F9000FB68002B00F058813B685B6803F003035B
:104FA000012B05D03B685B6803F00303022B30D173
:104FB0007B689B683B617B695B00032202FA03F319
:104FC000DB433A6913403B613B68DA687B695B000D
:104FD00002FA03F33A6913433B617B683A699A60CA
:104FE0007B685B683B6101227B6902FA03F3DB4368
:104FF0003A6913403B613B685B681B0903F001029F
:105000007B6902FA03F33A6913433B617B683A69AF
:105010005A603B685B6803F00303032B17D07B687F
:10502000DB683B617B695B00032202FA03F3DB432D
:105030003A6913403B613B689A687B695B0002FAFE
:1050400003F33A6913433B617B683A69DA603B6872
:105050005B6803F00303022B23D17B69DA087B68CA
:10506000083253F822303B617B6903F007039B0051
:105070000F2202FA03F3DB433A6913403B613B68BA
:105080001A697B6903F007039B0002FA03F33A698C
:1050900013433B617B69DA087B680832396943F85E
:1050A00022107B681B683B617B695B00032202FA6C
:1050B00003F3DB433A6913403B613B685B6803F0F1
:1050C00003027B695B0002FA03F33A6913433B6115
:1050D0007B683A691A603B685B6803F44033002BD5
:1050E00000F0B280614B1B6E604A43F0010313660F
:1050F0005E4B1B6E03F00103BB60BB685C4A7B69BF
:105100009B08023352F823303B617B6903F00303B1
:105110009B000F2202FA03F3DB433A6913403B6121
:105120007B68B3F1904F2BD07B68524A934225D0D5
:105130007B68514A93421FD07B68504A934219D0F2
:105140007B684F4A934213D07B684E4A93420DD0FE
:105150007B684D4A934207D07B684C4A934201D109
:1051600007230EE008230CE006230AE0052308E0ED
:10517000042306E0032304E0022302E0012300E00D
:1051800000237A6902F00302920093403A691343C4
:105190003B6137497B699B0802333A6941F8232018
:1051A0003B4B9B683B61FB68DB433A6913403B61C7
:1051B0003B685B6803F48013002B03D03A69FB68FB
:1051C00013433B61324A3B699360314BDB683B617F
:1051D000FB68DB433A6913403B613B685B6803F45F
:1051E0000013002B03D03A69FB6813433B61284A44
:1051F0003B69D360264B5B683B61FB68DB433A69E4
:1052000013403B613B685B6803F40033002B03D021
:105210003A69FB6813433B611D4A3B6953601C4B71
:105220001B683B61FB68DB433A6913403B613B68A9
:105230005B6803F48033002B03D03A69FB681343A7
:105240003B61134A3B6913607B6901337B613B68B7
:105250001A687B6922FA03F3002B7FF491AE00BF3A
:1052600000BF1C37BD465DF8047B7047001002404C
:10527000000001400004004800080048000C0048FD
:10528000001000480014004800180048001C0048A6
:105290000004014080B485B000AF78600B467B808D
:1052A0007B681A697B881340002B02D00123FB73B3
:1052B00001E00023FB73FB7B18461437BD465DF805
:1052C000047B704780B483B000AF78600B467B806E
:1052D00013467B707B78002B03D07A887B689A61B9
:1052E00002E07A887B689A6200BF0C37BD465DF8A1
:1052F000047B704780B582B000AF0346FB80084B4B
:105300005A69FB881340002B06D0054AFB8853617D
:10531000FB881846FCF7B0FA00BF0837BD4680BDD1
:105320000004014080B400AF0D4B1B6803F4C06360
:10533000B3F5806F02D14FF480630BE0084BD3F8D4
:10534000803003F48073B3F5807F02D14FF4007393
:1053500000E000231846BD465DF8047B704700BF9F
:105360000070004080B588B000AF78607B68002B8B
:1053700002D1012300F008BC964B9B6803F00C039C
:10538000BB61944BDB6803F003037B617B681B68A4
:1053900003F01003002B00F0E480BB69002B07D062
:1053A000BB690C2B40F08B807B69012B40F0878020
:1053B000884B1B6803F00203002B05D07B689B69B8
:1053C000002B01D10123DFE37B681A6A814B1B6844
:1053D00003F00803002B04D07E4B1B6803F0F0039E
:1053E00005E07C4BD3F894301B0903F0F0039342A3
:1053F00023D27B681B6A184600F0CCFD0346002BC5
:1054000001D00123C0E3734B1B68724A43F00803C9
:105410001360704B1B6823F0F0027B681B6A6D49B8
:1054200013430B606B4B5B6823F47F427B68DB6943
:105430001B02684913434B6025E0664B1B68654AB5
:1054400043F008031360634B1B6823F0F0027B6892
:105450001B6A604913430B605E4B5B6823F47F4219
:105460007B68DB691B025B4913434B60BB69002B04
:1054700009D17B681B6A184600F08CFD0346002B9F
:1054800001D0012380E300F0C1FC0246514B9B6830
:105490001B0903F00F035049CB5C03F01F0322FAF2
:1054A00003F34E4A13604E4B1B681846FEF79CFBF5
:1054B0000346FB73FB7B002B52D0FB7B64E37B68D2
:1054C0009B69002B32D0434B1B68424A43F00103D7
:1054D0001360FEF7D9FB386108E0FEF7D5FB024602
:1054E0003B69D31A022B01D903234DE3394B1B68C7
:1054F00003F00203002BF0D0364B1B68354A43F013
:1055000008031360334B1B6823F0F0027B681B6AAF
:10551000304913430B602F4B5B6823F47F427B6859
:10552000DB691B022B4913434B601AE0294B1B68B4
:10553000284A23F001031360FEF7A6FB386108E058
:10554000FEF7A2FB02463B69D31A022B01D90323C3
:105550001AE3204B1B6803F00203002BF0D100E09C
:1055600000BF7B681B6803F00103002B73D0BB698D
:10557000082B05D0BB690C2B0ED17B69032B0BD1FB
:10558000144B1B6803F40033002B63D07B685B680B
:10559000002B5FD10123F7E27B685B68B3F5803FA6
:1055A00006D10C4B1B680B4A43F48033136025E093
:1055B0007B685B68B3F5A02F14D1064B1B68054AC6
:1055C00043F480231360034B1B68024A43F4803387
:1055D000136013E00010024020E7000800000020E4
:1055E00018000020A04B1B689F4A23F480331360EF
:1055F0009D4B1B689C4A23F4802313607B685B6887
:10560000002B13D0FEF740FB386108E0FEF73CFBAF
:1056100002463B69D31A642B01D90323B4E2924BAF
:105620001B6803F40033002BF0D014E0FEF72CFBD2
:10563000386108E0FEF728FB02463B69D31A642B69
:1056400001D90323A0E2884B1B6803F40033002B2D
:10565000F0D100E000BF7B681B6803F00203002B61
:1056600060D0BB69042B05D0BB690C2B19D17B69B9
:10567000022B16D17C4B1B6803F48063002B05D0F2
:105680007B68DB68002B01D101237DE2764B5B68F0
:1056900023F0FE427B681B691B06734913434B6072
:1056A00040E07B68DB68002B23D06F4B1B686E4AA1
:1056B00043F480731360FEF7E7FA386108E0FEF701
:1056C000E3FA02463B69D31A022B01D903235BE2BA
:1056D000654B1B6803F48063002BF0D0624B5B6862
:1056E00023F0FE427B681B691B065F4913434B6036
:1056F00018E05D4B1B685C4A23F480731360FEF76F
:10570000C3FA386108E0FEF7BFFA02463B69D31AD4
:10571000022B01D9032337E2534B1B6803F4806348
:10572000002BF0D17B681B6803F00803002B3CD0F2
:105730007B685B69002B1CD04B4BD3F894304A4AF2
:1057400043F00103C2F89430FEF79EFA386108E096
:10575000FEF79AFA02463B69D31A022B01D90323BA
:1057600012E2414BD3F8943003F00203002BEFD048
:105770001BE03D4BD3F894303B4A23F00103C2F8C1
:105780009430FEF781FA386108E0FEF77DFA0246B0
:105790003B69D31A022B01D90323F5E1324BD3F82D
:1057A000943003F00203002BEFD17B681B6803F0F9
:1057B0000403002B00F0A6800023FB772A4B9B6D8F
:1057C00003F08053002B0DD1274B9B6D264A43F0ED
:1057D00080539365244B9B6D03F08053BB60BB6883
:1057E0000123FB77214B1B6803F48073002B18D136
:1057F0001E4B1B681D4A43F480731360FEF744FA86
:10580000386108E0FEF740FA02463B69D31A022BE2
:1058100001D90323B8E1154B1B6803F48073002BF7
:10582000F0D07B689B68012B08D10F4BD3F89030E8
:105830000D4A43F00103C2F8903029E07B689B6871
:10584000052B15D1084BD3F89030074A43F00403D9
:10585000C2F89030044BD3F89030034A43F0010370
:10586000C2F8903014E000BF001002400070004009
:105870009D4BD3F890309C4A23F00103C2F890303E
:10588000994BD3F89030984A23F00403C2F8903033
:105890007B689B68002B16D0FEF7F6F938610AE0AA
:1058A000FEF7F2F902463B69D31A41F2883293427D
:1058B00001D9032368E18C4BD3F8903003F0020345
:1058C000002BEDD015E0FEF7DFF938610AE0FEF7B6
:1058D000DBF902463B69D31A41F28832934201D97F
:1058E000032351E1804BD3F8903003F00203002BE7
:1058F000EDD1FB7F012B05D17B4B9B6D7A4A23F0C9
:10590000805393657B681B6803F02003002B3CD019
:105910007B685B6A002B1CD0734BD3F89830724ABB
:1059200043F00103C2F89830FEF7AEF9386108E0A1
:10593000FEF7AAF902463B69D31A022B01D90323C9
:1059400022E1694BD3F8983003F00203002BEFD02B
:105950001BE0654BD3F89830634A23F00103C2F88B
:105960009830FEF791F9386108E0FEF78DF90246AC
:105970003B69D31A022B01D9032305E15A4BD3F813
:10598000983003F00203002BEFD17B689B6A002B59
:1059900000F0F9807B689B6A022B40F0CF80524B6D
:1059A000DB687B617B6903F003027B68DB6A9A42F8
:1059B0002CD17B6903F0F0027B681B6B013B1B0160
:1059C0009A4223D17B6903F4FE427B685B6B1B0226
:1059D0009A421BD17B6903F078427B689B6BDB06A4
:1059E0009A4213D17B6903F4C0027B68DB6B5B08CE
:1059F000013B5B059A4209D17B6903F0C0627B6879
:105A00001B6C5B08013B5B069A4271D0BB690C2B97
:105A100068D0354B1B6803F08063002B05D1324BF7
:105A20001B6803F08053002B01D00123ACE02E4B08
:105A30001B682D4A23F080731360FEF725F9386147
:105A400008E0FEF721F902463B69D31A022B01D97F
:105A5000032399E0244B1B6803F00073002BF0D163
:105A6000214BDA68214B13407A68D16A7A68126B4D
:105A7000013A120111437A68526B120211437A689B
:105A8000D26B5208013A520511437A68126C5208DF
:105A9000013A520611437A68926BD2060A431249C0
:105AA0001343CB60104B1B680F4A43F080731360A5
:105AB0000D4BDB680C4A43F08073D360FEF7E4F8CB
:105AC000386108E0FEF7E0F802463B69D31A022B82
:105AD00001D9032358E0044B1B6803F00073002B2B
