:020000040800F2
:1000000000200320390E0008511900085F1900086C
:10001000651900086B19000871190008000000003C
:100020000000000000000000000000007719000838
:10003000851900080000000093190008A1190008A4
:10004000890E0008890E0008890E0008890E000834
:10005000890E0008890E0008890E0008E9190008B9
:10006000890E0008890E0008890E0008AD190008E5
:10007000C1190008890E0008890E0008890E0008C1
:10008000890E0008890E0008890E0008890E0008F4
:10009000890E0008890E0008890E0008890E0008E4
:1000A000890E0008890E0008890E0008890E0008D4
:1000B000D5190008890E0008890E0008890E00086D
:1000C000890E0008890E0008890E0008890E0008B4
:1000D000890E0008890E0008890E0008890E0008A4
:1000E000F7190008890E0008890E0008890E00081B
:1000F000890E0008890E0008890E00080000000023
:10010000890E0008890E0008890E00089115000864
:10011000890E0008890E0008890E0008890E000863
:10012000890E0008890E0008890E0008890E000853
:10013000890E0008890E0008890E0008890E000843
:10014000890E0008890E0008890E0008890E000833
:10015000890E0008890E0008890E0008890E000823
:10016000890E0008890E0008890E0008890E000813
:10017000890E0008890E000800000000890E0008A2
:10018000890E0008890E0008890E0008890E0008F3
:10019000890E0008890E0008000000000000000021
:1001A0000000000000000000890E0008890E000811
:0C01B000890E0008890E0008890E000866
:1001C00010B5054C237833B9044B13B10448AFF391
:1001D00000800123237010BD780000200000000083
:1001E0004080000808B5034B1BB103490348AFF337
:1001F000008008BD000000007C0000204080000856
:10020000034613F8012B002AFBD1181A0138704756
:1002100001F0FF01102A2BDB10F0070F08D010F8B7
:10022000013B013A8B422DD010F0070F42B3F6D1BB
:10023000F0B441EA012141EA014122F007047FF0D4
:1002400000070023F0E80256083C85EA010586EA2B
:10025000010685FA47F5A3FA87F586FA47F6A5FA67
:1002600087F68EB9EED1F0BC01F0FF0102F0070273
:1002700032B110F8013B013A83EA010313B1F8D11E
:100280000020704701387047002D06BF35460338FF
:10029000073815F0010F07D1013015F4807F02BF38
:1002A000013015F4C03F0130F0BC0138704700BF89
:1002B00081F0004102E000BF83F0004330B54FEA17
:1002C00041044FEA430594EA050F08BF90EA020F84
:1002D0001FBF54EA000C55EA020C7FEA645C7FEA17
:1002E000655C00F0E2804FEA5454D4EB5555B8BF3A
:1002F0006D420CDD2C4480EA020281EA030382EAAB
:10030000000083EA010180EA020281EA0303362D3C
:1003100088BF30BD11F0004F4FEA01314FF4801C0F
:100320004CEA113102D0404261EB410113F0004F21
:100330004FEA03334CEA133302D0524263EB4303D8
:1003400094EA050F00F0A780A4F10104D5F1200E76
:100350000DDB02FA0EFC22FA05F2801841F10001D1
:1003600003FA0EF2801843FA05F359410EE0A5F1A5
:1003700020050EF1200E012A03FA0EFC28BF4CF0D6
:10038000020C43FA05F3C01851EBE37101F000458C
:1003900007D54FF0000EDCF1000C7EEB00006EEB99
:1003A0000101B1F5801F1BD3B1F5001F0CD3490823
:1003B0005FEA30004FEA3C0C04F101044FEA44527A
:1003C00012F5800F80F09A80BCF1004F08BF5FEA01
:1003D000500C50F1000041EB045141EA050130BDE1
:1003E0005FEA4C0C404141EB0101013C28BFB1F5F3
:1003F000801FE9D291F0000F04BF01460020B1FA3E
:1004000081F308BF2033A3F10B03B3F120020CDA10
:100410000C3208DD02F1140CC2F10C0201FA0CF0EE
:1004200021FA02F10CE002F11402D8BFC2F1200C53
:1004300001FA02F120FA0CFCDCBF41EA0C01904009
:10044000E41AA2BF01EB0451294330BD6FEA040452
:100450001F3C1CDA0C340EDC04F11404C4F120023D
:1004600020FA04F001FA02F340EA030021FA04F34F
:1004700045EA030130BDC4F10C04C4F1200220FAA6
:1004800002F001FA04F340EA0300294630BD21FAE4
:1004900004F0294630BD94F0000F83F4801306BFAA
:1004A00081F480110134013D4EE77FEA645C18BF9E
:1004B0007FEA655C29D094EA050F08BF90EA020F35
:1004C00005D054EA000C04BF1946104630BD91EA2D
:1004D000030F1EBF0021002030BD5FEA545C05D130
:1004E0004000494128BF41F0004130BD14F580046F
:1004F0003CBF01F5801130BD01F0004545F0FE41E3
:1005000041F470014FF0000030BD7FEA645C1ABF17
:10051000194610467FEA655C1CBF0B46024650EA4E
:10052000013406BF52EA033591EA030F41F400217A
:1005300030BD00BF90F0000F04BF0021704730B500
:100540004FF4806404F132044FF000054FF00001D5
:1005500050E700BF90F0000F04BF0021704730B596
:100560004FF4806404F1320410F0004548BF40426B
:100570004FF000013EE700BF42004FEAE2014FEAC0
:1005800031014FEA02701FBF12F07F4393F07F4F9B
:1005900081F06051704732F07F4208BF704793F09E
:1005A0007F4F04BF41F40021704730B54FF46074B1
:1005B00001F0004521F000411CE700BF50EA0102B4
:1005C00008BF704730B54FF000050AE050EA01025D
:1005D00008BF704730B511F0004502D5404261EBCD
:1005E00041014FF4806404F132045FEA915C3FF40E
:1005F000D8AE4FF003025FEADC0C18BF03325FEAAB
:10060000DC0C18BF033202EBDC02C2F1200300FA5B
:1006100003FC20FA02F001FA03FE40EA0E0021FA80
:1006200002F11444BDE600BF70B54FF0FF0C4CF46E
:10063000E06C1CEA11541DBF1CEA135594EA0C0F20
:1006400095EA0C0F00F0DEF82C4481EA030621EA5B
:100650004C5123EA4C5350EA013518BF52EA033596
:1006600041F4801143F4801338D0A0FB02CE4FF048
:100670000005E1FB02E506F00042E0FB03E54FF078
:100680000006E1FB03569CF0000F18BF4EF0010E70
:10069000A4F1FF04B6F5007F64F5407404D25FEA6C
:1006A0004E0E6D4146EB060642EAC62141EA55511F
:1006B0004FEAC52040EA5E504FEACE2EB4F1FD0C61
:1006C00088BFBCF5E06F1ED8BEF1004F08BF5FEADF
:1006D000500E50F1000041EB045170BD06F0004691
:1006E00046EA010140EA020081EA0301B4EB5C043E
:1006F000C2BFD4EB0C0541EA045170BD41F4801136
:100700004FF0000E013C00F3AB8014F1360FDEBF5A
:10071000002001F0004170BDC4F10004203C35DA36
:100720000C341BDC04F11404C4F1200500FA05F3B9
:1007300020FA04F001FA05F240EA020001F000425A
:1007400021F0004110EBD37021FA04F642EB0601D0
:100750005EEA430E08BF20EAD37070BDC4F10C04FA
:10076000C4F1200500FA04F320FA05F001FA04F2BE
:1007700040EA020001F0004110EBD37041F10001AA
:100780005EEA430E08BF20EAD37070BDC4F12005B5
:1007900000FA05F24EEA020E20FA04F301FA05F21D
:1007A00043EA020321FA04F001F0004121FA04F2C5
:1007B00020EA020000EBD3705EEA430E08BF20EA95
:1007C000D37070BD94F0000F0FD101F000464000CF
:1007D00041EB010111F4801F08BF013CF7D041EA51
:1007E000060195F0000F18BF704703F00046520055
:1007F00043EB030313F4801F08BF013DF7D043EA26
:100800000603704794EA0C0F0CEA135518BF95EADB
:100810000C0F0CD050EA410618BF52EA4306D1D162
:1008200081EA030101F000414FF0000070BD50EA81
:10083000410606BF1046194652EA430619D094EA0B
:100840000C0F02D150EA013613D195EA0C0F05D1F5
:1008500052EA03361CBF104619460AD181EA030149
:1008600001F0004141F0FE4141F470014FF0000001
:1008700070BD41F0FE4141F4780170BD70B54FF09C
:10088000FF0C4CF4E06C1CEA11541DBF1CEA13551C
:1008900094EA0C0F95EA0C0F00F0A7F8A4EB0504FE
:1008A00081EA030E52EA03354FEA013100F08880F5
:1008B0004FEA03334FF0805545EA131343EA1263BE
:1008C0004FEA022245EA111545EA10654FEA002673
:1008D0000EF000419D4208BF964244F1FD0404F52C
:1008E000407402D25B084FEA3202B61A65EB030588
:1008F0005B084FEA32024FF480104FF4002CB6EB45
:10090000020E75EB030E22BFB61A754640EA0C00C4
:100910005B084FEA3202B6EB020E75EB030E22BF04
:10092000B61A754640EA5C005B084FEA3202B6EB45
:10093000020E75EB030E22BFB61A754640EA9C0004
:100940005B084FEA3202B6EB020E75EB030E22BFD4
:10095000B61A754640EADC0055EA060E18D04FEA92
:10096000051545EA16754FEA06164FEAC30343EA32
:1009700052734FEAC2025FEA1C1CC0D111F4801FFF
:100980000BD141EA00014FF000004FF0004CB6E7F8
:1009900011F4801F04BF01430020B4F1FD0C88BF97
:1009A000BCF5E06F3FF6AFAEB5EB030C04BFB6EBA2
:1009B000020C5FEA500C50F1000041EB045170BD95
:1009C0000EF0004E4EEA113114EB5C04C2BFD4EBC2
:1009D0000C0541EA045170BD41F480114FF0000E46
:1009E000013C90E645EA060E8DE60CEA135594EAC2
:1009F0000C0F08BF95EA0C0F3FF43BAF94EA0C0FC5
:100A00000AD150EA01347FF434AF95EA0C0F7FF439
:100A100025AF104619462CE795EA0C0F06D152EA8D
:100A200003353FF4FDAE1046194622E750EA410671
:100A300018BF52EA43067FF4C5AE50EA41047FF482
:100A40000DAF52EA43057FF4EBAE12E74FEA4102E5
:100A500012F5001215D211D56FF47873B3EB625210
:100A600012D94FEAC12343F0004343EA505311F037
:100A7000004F23FA02F018BF404270474FF00000C9
:100A8000704750EA013005D111F0004008BF6FF007
:100A9000004070474FF00000704700BF4FEA41022E
:100AA000B2F1E04324BFB3F5001CDCF1FE5C0DD9CC
:100AB00001F0004C4FEAC0024CEA5070B2F1004F16
:100AC00040EB830008BF20F00100704711F0804F19
:100AD00021D113F13872BCBF01F00040704741F4DE
:100AE00080114FEA5252C2F11802C2F1200C10FAE2
:100AF0000CF320FA02F018BF40F001004FEAC123C6
:100B00004FEAD32303FA0CFC40EA0C0023FA02F369
:100B10004FEA4303CCE77FEA625307D150EA01333F
:100B20001EBF4FF0FE4040F44000704701F000400F
:100B300040F0FE4040F40000704700BF53B94AB98E
:100B4000002908BF00281CBF4FF0FF314FF0FF30D5
:100B500000F070B9ADF1080C6DE904CE00F006F8B4
:100B6000DDF804E0DDE9022304B070472DE9F04729
:100B7000089E0D4604460F46002B4AD18A429446F1
:100B800065D9B2FA82F343B102FA03FCC3F1200241
:100B90009F4020FA02F217439C404FEA1C4E1FFA76
:100BA0008CF5B7FBFEF1220C0EFB117742EA0742EF
:100BB00001FB05F090420AD91CEB020201F1FF375C
:100BC00080F01C81904240F2198102396244121A6D
:100BD000A4B2B2FBFEF00EFB102244EA024400FB7A
:100BE00005F5A5420AD91CEB040400F1FF3280F0A0
:100BF0000781A54240F204816444023840EA014082
:100C0000641B00211EB1DC400023C6E90043BDE89F
:100C1000F0878B4208D9002E00F0ED800021C6E954
:100C200000050846BDE8F087B3FA83F1002949D1F1
:100C3000AB4202D3824200F2F880841A65EB0302D1
:100C400001201746002EE2D0C6E90047DFE702B9CF
:100C5000FFDEB2FA82F3002B40F090808A1A4FEA4E
:100C60001C471FFA8CFE0121B2FBF7F507FB15208C
:100C7000220C42EA00420EFB05F0904208D91CEB20
:100C8000020205F1FF3802D2904200F2CB804546C5
:100C9000121AA4B2B2FBF7F007FB102244EA024496
:100CA0000EFB00FEA64508D91CEB040400F1FF3240
:100CB00002D2A64500F2BB801046A4EB0E0440EA27
:100CC00005409FE7C1F120078B4022FA07FC4CEA60
:100CD000030C05FA01F420FA07F3FD404FEA1C4922
:100CE0002343B5FBF9F81FFA8CFE09FB18551C0CC1
:100CF00044EA054408FB0EF5A54202FA01F200FAA7
:100D000001F00BD91CEB040408F1FF3A80F0888055
:100D1000A54240F28580A8F102086444641B9DB29C
:100D2000B4FBF9F309FB134445EA044403FB0EFE4C
:100D3000A64508D91CEB040403F1FF356CD2A64587
:100D40006AD9023B644443EA0843A3FB0295A4EB3F
:100D50000E04AC42C846AE4656D353D056B1B0EBA3
:100D6000080264EB0E0404FA07F7CA40CC401743AC
:100D7000C6E9007418460021BDE8F087C3F12001E0
:100D800002FA03FC20FA01F225FA01F19D402A4300
:100D90004FEA1C471FFA8CFEB1FBF7F007FB10155A
:100DA000110C41EA054100FB0EF58D4204FA03F4F3
:100DB00008D91CEB010100F1FF382FD28D422DD94B
:100DC00002386144491B92B2B1FBF7F507FB1511DC
:100DD00042EA014205FB0EF1914208D91CEB0202E6
:100DE00005F1FF3816D2914214D9023D6244521ADD
:100DF00045EA004138E73146304608E73946E6E63D
:100E00001046FBE64845A9D2B9EB020865EB0C0E8B
:100E1000013BA3E74546EAE72B4694E74046D1E786
:100E2000D0467BE7023D624432E708460AE7644465
:100E3000023842E7704700BFDFF834D000F086FE8A
:100E4000002103E00B4B5B58435004310A480B4B25
:100E500042189A42F6D30A4A02E0002342F8043BC1
:100E6000084B9A42F9D306F073FA00F00FF8FEE748
:100E7000002003203C8600080000002078000020AD
:100E80007800002064940120FEE7000080B582B065
:100E900002AF01F051FA00F09BF9002001F0B0F927
:100EA00000F00AFB00F014FA00F0B8FA00F052FA71
:100EB00000F0C8F93E4804F0C7FC3E4B3E4A1A60B9
:100EC0003C4B4FF4E1325A603A4B00229A60394B66
:100ED0000022DA60374B00221A61364B0C225A612D
:100EE000344B00229A61334B0022DA61314B0022ED
:100EF0001A62304B00229A622E49002001F0B0F9AC
:100F00002E4A00212E4806F0A9F942F21072002163
:100F10002C4806F0A3F92C4806F0A0F82B4806F060
:100F20009DF800E030BF2A4B1B78DBB2002BF9D0D4
:100F3000274B00221A7032E044F6206220492548EF
:100F400002F066F80346002B02D0234806F086F82C
:100F500000BF224B1B78DBB2002BFAD01F4B0022C4
:100F60001A701C4802F0D6F8164A44F6206114485C
:100F700000F0A6F80823009344F62063104A0021ED
:100F8000174801F0A5FB0346002B02D0154805F0D9
:100F9000FFFF154806F062F80A4800F027F80C4BEE
:100FA0001B78DBB2002BC7D0094B00221A70B5E7C3
:100FB000F40100205C9201200038014080380100DB
:100FC00044020020C43A01205880000884800008B0
:100FD000E688012008010020B0800008E588012093
:100FE00094000020C8800008DC80000880B586B02E
:100FF00002AF78600A23019350230093284B294ABB
:101000000021002001F082F80346002B05D026487D
:1010100006F024F84FF0FF333DE0244806F01EF8B8
:1010200007F10E0342F21072009244F620627968D2
:10103000002001F0C3F80346002B0ED01C4806F038
:101040000DF87868FFF7DCF803461A460021786847
:1010500006F004F94FF0FF331DE0FB8919461548EF
:1010600005F096FF7868FFF7CBF803461A46002193
:10107000786806F0F3F8002001F084F80346002BAE
:1010800005D00D4805F0EAFF4FF0FF3303E00B48B1
:1010900005F0E4FF002318461037BD4680BD00BFB1
:1010A00040020020FC80000804810008288100081C
:1010B000448100085C810008708100089481000868
:1010C00080B588B000AFF860B9607A604FF47A7389
:1010D000FB824FF61843BB82B7F91620B7F91430DC
:1010E000D31A1846FFF736FA02460B4636A1D1E965
:1010F0000001FFF7C3FB02460B4610461946FFF7F7
:10110000CDFC03463B610023FB6154E0FB699B007F
:10111000FA6813441B68BB61BB691B12BB61B7F95A
:101120001430BA699A4202DCB7F91430BB61B7F9DE
:101130001630BA699A4202DBB7F91630BB61B7F9CB
:101140001430002B04DAB7F91430BA69D31ABB6132
:10115000BB6907EE903AB8EEE77AD7ED047A67EE0E
:10116000277A17EE900AFFF707FA02460B4643EC80
:10117000102B06F01DFF53EC102B10461946FFF7FD
:1011800065FC0346BB61BB69002B0FDBBB69FF2B12
:101190000CDCFB697A681344BA69D2B21A70FB6935
:1011A0009B00FA681344BA691A6001E000F0FAF98A
:1011B000FB690133FB61FB69BA689A42A6D800BF9C
:1011C00000BF2037BD4680BD0000000000E06F403A
:1011D00080B596B000AF10233B600123BB61602354
:1011E0003B620023FB610223BB620123FB620123FC
:1011F0003B6328237B6302233B640723BB630423F5
:10120000FB633B46184602F0C5FD0346002B00D0A9
:10121000FEE70F237B640323BB640023FB640023EE
:101220003B6500237B6507F144030421184603F066
:10123000CBF90346002B00D0FEE700BF5837BD4670
:1012400080BD000080B586B000AF3B1D00221A6053
:101250005A609A60DA601A61124BDB6C114A43F0F3
:101260000403D3640F4BDB6C03F004033B603B6867
:101270004FF400537B604FF48813BB600023FB6086
:101280003B1D1946084802F0BBFB00220021282024
:1012900001F0C5F9282001F0DEF900BF1837BD467E
:1012A00080BD00BF001002400008004880B582B039
:1012B00000AF7860391D4FF6FF730122034804F038
:1012C00065FF7B6818460837BD4680BD5C920120EB
:1012D00080B58AB000AF3B4628220021184605F0B1
:1012E000BDFF1A4B1A4A1A60184801F0CEF903469E
:1012F000002B01D000F056F900237B600A23BB606D
:101300004FF400433B600023FB6000233B6100235C
:101310007B613B46002219460C4801F0C3FA0346A4
:10132000002B01D000F03EF90023BB603B461022A9
:101330001946064801F0B6FA0346002B01D000F02A
:1013400031F900BF2837BD4680BD00BF94000020A2
:101350000074004080B500AF2B4B2C4A1A602A4B1A
:1013600000225A60284B01221A72274B01225A721E
:10137000254B0022DA61244B64221A62224B01229F
:101380005A62214801F024FD0346002B01D000F0F1
:1013900009F91F4B1F4A1A601D4B01221A711C4B81
:1013A00000229A601A4B3222DA60194B00221A612D
:1013B000174B00225A61164B00229A61144B0022EF
:1013C000DA61134B04221A62114B00225A62104B4D
:1013D00001229A620E4B0022DA620D4B00221A6340
:1013E0000B4801F035FC0346002B01D000F0DAF881
:1013F00001220949044801F0C5FD0346002B01D034
:1014000000F0D0F800BF80BD08010020006101405D
:101410005C010020406001400400020080B588B0FB
:1014200000AF07F1100300221A605A609A60DA6078
:101430003B1D00221A605A609A601E4B4FF080429A
:101440001A601C4B00225A601A4B00229A60194BFA
:1014500041F28832DA60174B00221A61154B0022E4
:101460009A61144804F099F90346002B01D000F06A
:1014700099F84FF480533B6107F1100319460D486A
:1014800004F054FB0346002B01D000F08BF820231E
:101490007B600023FB603B1D1946064804F076FD87
:1014A0000346002B01D000F07DF800BF2037BD4679
:1014B00080BD00BFF401002080B582B000AF164BA4
:1014C0009B6C154A43F004039364134B9B6C03F02D
:1014D00004037B607B68104B9B6C0F4A43F0010355
:1014E00093640D4B9B6C03F001033B603B6800224F
:1014F00000210B2001F093F80B2001F0ACF8002242
:1015000000210C2001F08BF80C2001F0A4F800BFA2
:101510000837BD4680BD00BF0010024080B582B0D4
:1015200000AF0346FB80FB88022B03D0B3F5005FBE
:1015300003D006E000F0DAFD03E0044B01221A704C
:1015400000BF00BF0837BD4680BD00BFE688012050
:1015500080B483B000AF7860044B01221A7000BFE2
:101560000C37BD465DF8047B704700BFE58801205D
:1015700080B483B000AF7860044B01221A7000BFC2
:101580000C37BD465DF8047B704700BFE48801203E
:1015900080B500AF024803F0EDFF00BF80BD00BF83
:1015A000F488012080B400AF72B600BFFEE70000EF
:1015B00080B483B000AF0F4B1B6E0E4A43F00103A3
:1015C00013660C4B1B6E03F001037B607B68094BB9
:1015D0009B6D084A43F080539365064B9B6D03F067
:1015E00080533B603B6800BF0C37BD465DF8047B11
:1015F000704700BF0010024080B58AB000AF78602D
:1016000007F1140300221A605A609A60DA601A61C6
:101610007B681B682A4A93424ED12A4B9B6D294A0C
:1016200043F000539365274B9B6D03F000533B61E0
:101630003B69244BDB6C234A43F00103D364214B09
:10164000DB6C03F00103FB60FB6830237B61032349
:10165000BB610023FB6107F1140319464FF0904072
:1016600002F0CEF9184B194A1A60174B06225A603D
:10167000154B10229A60144B0022DA60124B802224
:101680001A61114B00225A610F4B4FF400629A61AC
:101690000D4B0022DA610C4B00221A620A4801F05D
:1016A00081FE0346002B01D0FFF77CFF7B68064AD2
:1016B0009A60054A7B68936200BF2837BD4680BDAB
:1016C0000074004000100240A80000200800024002
:1016D00080B5AEB000AF786007F1A40300221A60B5
:1016E0005A609A60DA601A6107F1100394220021AF
:1016F000184605F0B3FD454B1B68002B4BD14FF44A
:1017000080333B610023C7F8943007F1100318467B
:1017100003F018FA0346002B01D0FFF743FF3C4BC0
:101720001B6801333A4A1360394B1B68012B0BD1FC
:10173000384B1B6E374A43F080731366354B1B6E74
:1017400003F08073FB60FB68324BDB6C314A43F083
:101750001003D3642F4BDB6C03F01003BB60BB683A
:101760004FF42073C7F8A4300223C7F8A830002331
:10177000C7F8AC300023C7F8B0300623C7F8B43040
:1017800007F1A4031946244802F03AF91F4B1B68DD
:1017900001331E4A13607B681B68204A934230D194
:1017A0001F4B204A1A601E4B56225A601C4B0022C7
:1017B0009A601B4B0022DA60194B80221A61184B89
:1017C0004FF400725A61164B4FF400629A61144B49
:1017D0000022DA61124B00221A62114801F0E2FD88
:1017E0000346002B01D0FFF7DDFE7B680C4ADA626E
:1017F0000B4A7B6893627B68094A9A62084A7B6855
:10180000936200BFB837BD4680BD00BFEC880120A1
:10181000E8880120001002400010004800610140EB
:10182000940100201C00024080B5AEB000AF78608B
:1018300007F1A40300221A605A609A60DA601A6104
:1018400007F1100394220021184605F007FD2A4BEA
:101850001B68002B4BD14FF480333B610023C7F84A
:10186000943007F11003184603F06CF90346002B7F
:1018700001D0FFF797FE214B1B6801331F4A13600D
:101880001E4B1B68012B0BD11D4B1B6E1C4A43F0DA
:10189000807313661A4B1B6E03F08073FB60FB684A
:1018A000174BDB6C164A43F01003D364144BDB6C0C
:1018B00003F01003BB60BB684FF42073C7F8A4307B
:1018C0000223C7F8A8300023C7F8AC300023C7F8BC
:1018D000B0300623C7F8B43007F1A403194609480D
:1018E00002F08EF8044B1B680133034A136000BFFB
:1018F000B837BD4680BD00BFEC880120E8880120D4
:10190000001002400010004880B584B000AF78603D
:101910007B681B68B3F1804F13D10C4B9B6D0B4A56
:1019200043F001039365094B9B6D03F00103FB60DA
:10193000FB68002200211C2000F071FE1C2000F03A
:101940008AFE00BF1037BD4680BD00BF00100240B8
:1019500080B400AF00BFBD465DF8047B704780B423
:1019600000AFFEE780B400AFFEE780B400AFFEE753
:1019700080B400AFFEE780B400AF00BFBD465DF8A5
:10198000047B704780B400AF00BFBD465DF8047BA8
:10199000704780B400AF00BFBD465DF8047B704760
:1019A00080B500AF00F01CFD00BF80BD80B500AF6A
:1019B000024801F0D5FE00BF80BD00BFA800002096
:1019C00080B500AF024801F0CBFE00BF80BD00BF74
:1019D0009401002080B500AF024803F0A5FF00BFCE
:1019E00080BD00BFF401002080B500AF022002F0EE
:1019F00099F900BF80BD80B500AF4FF4005002F0F0
:101A000091F900BF80BD80B586B000AFF860B960C5
:101A10007A6000237B610AE0AFF300800146BB6877
:101A20005A1CBA60CAB21A707B6901337B617A6949
:101A30007B689A42F0DB7B6818461837BD4680BD4C
:101A400080B586B000AFF860B9607A6000237B6132
:101A500009E0BB685A1CBA601B781846FFF726FCE1
:101A60007B6901337B617A697B689A42F1DB7B6831
:101A700018461837BD4680BD80B483B000AF78608B
:101A80004FF0FF3318460C37BD465DF8047B7047B6
:101A900080B483B000AF786039603B684FF4005287
:101AA0005A60002318460C37BD465DF8047B70472A
:101AB00080B483B000AF7860012318460C37BD4670
:101AC0005DF8047B704780B485B000AFF860B96002
:101AD0007A60002318461437BD465DF8047B7047D2
:101AE00080B586B000AF7860144A154BD31A7B617D
:101AF0007B693B61134B1B68002B02D1114B124ACF
:101B00001A60104B1A687B6813443A699A4207D2EC
:101B100005F018FC03460C221A604FF0FF3309E071
:101B2000084B1B68FB60074B1A687B681344054A27
:101B30001360FB6818461837BD4680BD002003209F
:101B4000007F0000F08801206894012080B400AF7D
:101B5000174BD3F88830164A43F47003C2F8883024
:101B6000144B1B68134A43F001031360114B00220E
:101B70009A60104B1B680F4A23F0A85323F41023DC
:101B800013600C4B4FF48052DA600A4B1B68094A11
:101B900023F480231360074B00229A61044B4FF01B
:101BA00000629A6000BFBD465DF8047B704700BFCD
:101BB00000ED00E00010024090B587B000AFF86083
:101BC000B9607A6000233B610023FB82FB68D3F895
:101BD0002031002B56D0FB68D3F82431002B51D094
:101BE000FB68D3F82041B868FEF70AFB034699B2B8
:101BF000FB68D3F8F8381A46B868A04703463B613B
:101C00003B69002B3EDDFB68D3F82431FA68D2F83B
:101C1000F8284FF4FA61786898470346FB82B7F9D1
:101C20001630002B27DDB7F91630B3F5FA6F22DC3A
:101C3000B7F91630B3F5FA6F05D1B7F916309BB284
:101C4000013B9BB2FB82B7F916307A68134400223D
:101C50001A700F49786805F009FB0346002B01D084
:101C6000002310E00B49786805F000FB0346002BC9
:101C700001D0052307E0B7F9163013F1040F01D1A5
:101C8000062300E0042318461C37BD4690BD00BF64
:101C9000408300084C83000880B586B000AFF86030
:101CA000B9607A607B800023FB820023BB82002323
:101CB0007B82B868FEF7A4FA03467B827B8A03F036
:101CC0000103002B01D002235DE0FB68D3F8203133
:101CD000002B57D0FB68D3F82431002B52D0FB687F
:101CE000D3F82031FA68D2F8F828798AB86898478A
:101CF00003463B823A8A7B8A9A4243D1FB68D3F8F7
:101D00002031FA68D2F8F82879887868984703462D
:101D1000FB82B7F916207B889A4231D1FB68D3F851
:101D20002431FA68D2F8F8280021386A9847034627
:101D3000BB82B7F91430002B19DDB7F914303A6AB9
:101D4000134400221A701249386A05F08FFA0346CC
:101D5000002B01D0002316E00E49386A05F086FA00
:101D60000346002B01D005230DE002230BE0B7F959
:101D7000143013F1040F01D1062304E0022302E022
:101D8000022300E0042318461837BD4680BD00BF7B
:101D9000408300084C83000890B587B002AF78609C
:101DA00039600023FB733B681B78002B03D03B6832
:101DB0001B78032B05D13B689B88002B01D10223A4
:101DC000C1E07B6803F594703B689B781A466049D4
:101DD00005F04CF97B6803F594717B6803F5947307
:101DE0001A467868FFF7E8FE0346FB73FB7B002B7F
:101DF00014D17B6803F594703B681B781A465549EB
:101E000005F034F97B6803F594717B6803F59473EE
:101E10001A467868FFF7D0FE0346FB73FB7B002B66
:101E200014D17B6803F594703B68DB881A464A49F5
:101E300005F01CF97B6803F594717B6803F59473D6
:101E40001A467868FFF7B8FE0346FB73FB7B002B4E
:101E50001CD13B681B78002B03D03B681B78032BFD
:101E600014D17B6803F594703B689B881A463B4904
:101E700005F0FCF87B6803F594717B6803F59473B7
:101E80001A467868FFF798FE0346FB73FB7B002B2E
:101E900028D13B681B78002B03D03B681B78032BB1
:101EA00020D17B6803F594703B681B7A19463B6828
:101EB0005B7A1C463B689B7A1A463B68DB7A019347
:101EC000009223460A46264905F0D0F87B6803F5C0
:101ED00094717B6803F594731A467868FFF76CFE7B
:101EE0000346FB73FB7B002B16D13B681B78032B4F
:101EF00012D17B6803F594731A49184605F0B6F8B9
:101F00007B6803F594717B6803F594731A467868CF
:101F1000FFF752FE0346FB73FB7B002B12D17B685D
:101F200003F594731049184605F0A0F87B6803F593
:101F300094717B6803F594731A467868FFF73CFE4A
:101F40000346FB73FB7B18461437BD4690BD00BFAC
:101F500050840008588400086084000868840008E1
:101F600070840008808400088884000880B584B0EC
:101F700000AF786039607B6803F594703B689B78AC
:101F80001A46154905F072F87B6803F594717B6871
:101F900003F594731A467868FFF70EFE0346FB7349
:101FA000FB7B002B12D17B6803F594730B49184619
:101FB00005F05CF87B6803F594717B6803F5947316
:101FC0001A467868FFF7F8FD0346FB73FB7B18465B
:101FD0001037BD4680BD00BF5084000890840008C3
:101FE00080B588B002AFF8607A601A460B46FB7283
:101FF00013463B810223FB747B6A002B02D1012331
:102000007B6101E07B6A7B613B89B3F5966F02D30C
:102010004FF496633B813B6A3A891A80FB6803F56B
:102020009473FA7A2D49184605F020F8FB6803F5F9
:102030009471FB6803F594731A46F868FFF7BCFDCA
:102040000346FB74FB7C002B3CD1FB6803F59473C7
:102050007A692349184605F009F8FB6803F594717D
:10206000FB6803F594731A46F868FFF7A5FD03466D
:10207000FB74FB7C002B25D1FB6803F594733A8934
:102080001849184604F0F2FFFB6803F59471FB68E9
:1020900003F594733A89009313467A68F868FFF75A
:1020A000FBFD0346FB74FB7C002B0BD1FB6803F5A7
:1020B00094730D49184605F0D9F80346002B01D05A
:1020C0000223FB74FB7C022B02D13B6A00221A80A4
:1020D000FB7C18461837BD4680BD00BF5084000801
:1020E0002C850008348500084085000880B400AFC6
:1020F000054B1B68012B02D1034B00221A6000BF65
:10210000BD465DF8047B70475889012080B58AB0D0
:1021100000AFF8607A603B600B46FB72012387F8E2
:102120002730FB68DBB2BB743B8EBB82BB8EFB826D
:10213000FB7A002B14BF01230023DBB23B743B6806
:102140001B783B763B6801331B787B763B68023318
:102150001B78BB763B6803331B78FB7607F11003D3
:1021600019460748FFF718FE0346002B02D100234B
:1021700087F8273097F8273018462837BD4680BDA6
:102180005C89012080B588B000AF78600123FB77BF
:102190007B68DBB2BB7207F1080319460648FFF7FC
:1021A000E5FE0346002B01D10023FB77FB7F184699
:1021B0002037BD4680BD00BF5C89012080B588B056
:1021C00002AFF860B9603B601346FB800123FB75EA
:1021D000FB68D9B2FA883B6A01933B6800931346C7
:1021E000BA680648FFF7FCFE0346002B01D1002326
:1021F000FB75FB7D18461837BD4680BD5C89012004
:1022000080B588B000AF0346FB71FB79002B0BD182
:10221000114BDB6C104A43F00203D3640E4BDB6CB2
:1022200003F00203BB60BB684FF48043FB600123F3
:102230003B6100237B610223BB61FB79074A52F8B3
:10224000233007F10C021146184601F0D9FB00BFFC
:102250002037BD4680BD00BF0010024004000020B2
:1022600080B58AB000AF03463960FB71FB79002B63
:102270000BD12D4BDB6C2C4A43F00203D3642A4B69
:10228000DB6C03F002033B613B69FB79002B0BD154
:10229000254BDB6C244A43F00203D364224BDB6CF6
:1022A00003F00203FB60FB68FB79002B0BD11E4B94
:1022B0001B6E1D4A43F4804313661B4B1B6E03F4D5
:1022C0008043BB60BB6840237B610223BB61022368
:1022D0003B620023FB6107237B62FB79134A52F8C0
:1022E000233007F114021146184601F089FB8023C0
:1022F0007B610223BB6107237B62FB790C4A52F8A6
:10230000233007F114021146184601F079FBFB79DE
:10231000084A52F823203B681A60386803F0DCFE54
:1023200000BF2837BD4680BD001002400C000020D1
:10233000100000200800002080B582B000AF00230C
:10234000FB71032000F060F90F2000F00DF8034648
:10235000002B02D00123FB7101E0FFF729F9FB7983
:1023600018460837BD4680BD80B584B000AF7860A0
:102370000023FB73174B1B78002B23D0164B1A68D6
:10238000144B1B7819464FF47A73B3FBF1F3B2FB8D
:10239000F3F3184600F06DF90346002B0FD17B686C
:1023A0000F2B09D8002279684FF0FF3000F037F981
:1023B0000A4A7B68136007E00123FB7304E00123F2
:1023C000FB7301E00123FB73FB7B18461037BD460E
:1023D00080BD00BF18000020000000201400002075
:1023E00080B400AF064B1B781A46064B1B6813449B
:1023F000044A136000BFBD465DF8047B704700BF10
:1024000018000020F092012080B400AF034B1B683D
:102410001846BD465DF8047B704700BFF09201206E
:1024200080B584B000AF7860FFF7EEFFB8607B68DE
:10243000FB60FB68B3F1FF3F05D00A4B1B781A46DF
:10244000FB681344FB6000BFFFF7DEFF0246BB687A
:10245000D31AFA689A42F7D800BF00BF1037BD46BA
:1024600080BD00BF1800002080B485B000AF786048
:102470007B6803F00703FB600C4BDB68BB60BA684A
:102480004FF6FF031340BB60FB681A02BB6813439F
:1024900043F0BF6343F40033BB60044ABB68D360BE
:1024A00000BF1437BD465DF8047B704700ED00E0C7
:1024B00080B400AF044BDB681B0A03F00703184627
:1024C000BD465DF8047B704700ED00E080B483B04A
:1024D00000AF0346FB7197F90730002B0BDBFB794C
:1024E00003F01F02074997F907305B09012000FA42
:1024F00002F241F8232000BF0C37BD465DF8047B93
:10250000704700BF00E100E080B483B000AF034635
:102510003960FB7197F90730002B0ADB3B68DAB2B0
:102520000C4997F907301201D2B20B4483F800230B
:102530000AE03B68DAB20849FB7903F00F03043B79
:102540001201D2B20B441A7600BF0C37BD465DF8BB
:10255000047B704700E100E000ED00E080B489B04A
:1025600000AFF860B9607A60FB6803F00703FB61B5
:10257000FB69C3F10703042B28BF0423BB61FB697C
:102580000433062B02D9FB69033B00E000237B6187
:102590004FF0FF32BB6902FA03F3DA43BB681A401B
:1025A0007B699A404FF0FF317B6901FA03F3D9430D
:1025B0007B680B40134318462437BD465DF8047B07
:1025C0007047000080B582B000AF78607B68013B47
:1025D000B3F1807F01D301230FE00A4A7B68013BFE
:1025E00053600F214FF0FF30FFF78EFF054B0022A5
:1025F0009A60044B07221A60002318460837BD462C
:1026000080BD00BF10E000E080B582B000AF786010
:102610007868FFF729FF00BF0837BD4680BD80B549
:1026200086B000AF0346B9607A60FB7300237B611C
:10263000FFF73EFF78617A68B9687869FFF78EFF27
:10264000024697F90F3011461846FFF75DFF00BFAD
:102650001837BD4680BD80B582B000AF0346FB7120
:1026600097F907301846FFF731FF00BF0837BD461E
:1026700080BD80B582B000AF78607868FFF7A2FFB8
:10268000034618460837BD4680BD80B582B000AF0E
:1026900078607B68002B01D1012314E07B681B79F3
:1026A000DBB2002B05D17B6800225A717868FEF7F7
:1026B000A3FF7B6802221A717B6800221A617B6883
:1026C00001221A71002318460837BD4680BD00005C
:1026D00080B586B000AFF860B9607A603B600023D7
:1026E0003B61FB685B79012B01D10223ABE0FB6806
:1026F00001225A71FB6802221A71BB68002B2FD18C
:10270000FB689B68524ADA62FB689B68514A1A630D
:10271000FB689B68504A5A63FB681B681A68FB6831
:102720001B6842F480521A603B6A082B13D03B6A44
:10273000082B45D83B6A002B03D03B6A042B05D0FD
:102740003EE0FB681B6808333B613CE0FB681B68AC
:102750000C333B6137E0FB681B6810333B6132E0B0
:10276000FB68DB683D4ADA62FB68DB683C4A1A6357
:10277000FB68DB683B4A5A63FB681B681A68FB68A6
:102780001B6842F080521A603B6A082B13D03B6AE8
:10279000082B17D83B6A002B03D03B6A042B05D0CB
:1027A00010E0FB681B6814333B610CE0FB681B689E
:1027B00018333B6107E0FB681B681C333B6102E098
:1027C00000BF00E000BFBB68002B11D1FB681B6895
:1027D0001A68FB681B6842F400521A60FB6898682C
:1027E00079683B683A6900F085FE0346FB7510E0A6
:1027F000FB681B681A68FB681B6842F000521A608D
:10280000FB68D86879683B683A6900F073FE034654
:10281000FB75FB6800225A71FB7D002B0CD1FB6815
:102820001B681968BB6803F0100301229A40FB681B
:102830001B680A431A6005E0FB681B6943F0040249
:10284000FB681A61FB7D18461837BD4680BD00BF86
:102850003D2B00085F2B00087B2B0008E52B0008B0
:10286000072C0008232C000880B483B000AF7860E8
:1028700000BF0C37BD465DF8047B704780B483B061
:1028800000AF786000BF0C37BD465DF8047B704731
:1028900080B483B000AF786000BF0C37BD465DF8F0
:1028A000047B704780B588B000AFF860B9607A608B
:1028B0000023BB61FB685B79012B01D1022337E167
:1028C000FB6801225A71FB6802221A71BB685B68BF
:1028D000042B40F08180FFF797FDB8617B68002BE7
:1028E00040D118E0FFF790FD0246BB69D31A012BD7
:1028F00011D9FB681B685B6B03F40043002B0AD003
:10290000FB681B6943F00802FB681A61FB6803223D
:102910001A7103230CE1FB681B685B6B03F4004333
:10292000002BDFD10120FFF77BFDFB681B68BA6835
:10293000D2691A6423E0FFF767FD0246BB69D31A28
:10294000012B0FD9FB681B685B6B002B0ADAFB6855
:102950001B6943F00802FB681A61FB6803221A71C5
:102960000323E5E0FB681B685B6B002BE3DB0120C6
:10297000FFF756FDFB681B68BA68D2695A64FB68AA
:102980001B689A6C7B6803F0100340F2FF3101FA78
:1029900003F3DB4302EA0301BB681A6A7B6803F0B6
:1029A00010039A40FB681B680A439A64FB681B6823
:1029B000DA6C7B6803F01003FF2101FA03F3DB43B9
:1029C00002EA0301BB685A6A7B6803F010039A406D
:1029D000FB681B680A43DA64BB685B69012B1DD185
:1029E000FB681B689B6BFB617B6803F010031F2275
:1029F00002FA03F3DB43FA691340FB61BB689B698E
:102A00007B617B6803F010037A6902FA03F3FA69C9
:102A10001343FB61FB681B68FA699A63FB681B68D8
:102A2000DB6BFB617B6803F01003072202FA03F300
:102A3000DB43FA691340FB61BB685A68BB68DB681B
:102A40001A43BB681B6913437B617B6803F0100367
:102A50007A6902FA03F3FA691343FB61FB681B68A6
:102A6000FA69DA63FB681B6819687B6803F0100376
:102A70004FF4804202FA03F3DA43FB681B680A4012
:102A80001A60FB681B681B68FB617B6803F010031E
:102A900040F6FE7202FA03F3DB43FA691340FB616E
:102AA000BB689B687B617B6803F010037A6902FA5C
:102AB00003F3FA691343FB61BB681B68B3F5004F6E
:102AC00004D1FB6943F40043FB6118E0BB681B6859
:102AD000002B04D1FB6923F40043FB610FE001F0FC
:102AE00039FF38613B69144A934204D9FB6943F4C6
:102AF0000043FB6103E0FB6923F40043FB61FB68D7
:102B00001B68FA691A60FB681B6819687B6803F028
:102B10001003C02202FA03F3DA43FB681B680A4081
:102B20001A60FB6801221A71FB6800225A710023A7
:102B300018462037BD4680BD00B4C40480B584B0BB
:102B400000AF78607B689B6AFB60F868FFF78CFEDB
:102B5000FB6801221A7100BF1037BD4680BD80B5E9
:102B600084B000AF78607B689B6AFB60F868FFF711
:102B700085FE00BF1037BD4680BD80B584B000AF74
:102B800078607B689B6AFB60FB681B6943F004020A
:102B9000FB681A61F868FFF77BFEFB6801221A7177
:102BA00000BF1037BD4680BD80B483B000AF7860F1
:102BB00000BF0C37BD465DF8047B704780B483B01E
:102BC00000AF786000BF0C37BD465DF8047B7047EE
:102BD00080B483B000AF786000BF0C37BD465DF8AD
:102BE000047B704780B584B000AF78607B689B6AD7
:102BF000FB60F868FFF7D8FFFB6801221A7100BF7D
:102C00001037BD4680BD80B584B000AF78607B686A
:102C10009B6AFB60F868FFF7D1FF00BF1037BD4625
:102C200080BD80B584B000AF78607B689B6AFB6034
:102C3000FB681B6943F00402FB681A61F868FFF740
:102C4000C7FFFB6801221A7100BF1037BD4680BD67
:102C500080B582B000AF78607B68002B01D1012382
:102C6000ACE07B681B68184600F0ACFA0346554A96
:102C700052F82330002B01D001239FE07868FEF743
:102C8000D3FD514B1B6801334F4A13604E4B1B68F9
:102C9000012B25D14D4B1B684C4A23F08043136018
:102CA0004A4B1A687B689B68484913430B60474B43
:102CB0001B68464A23F47F0313607B681B79012B52
:102CC00008D1424B1A687B68DB68013B1B043F4913
:102CD00013430B603D4B1B683C4A43F000431360B9
:102CE0007B681B681A687B681B6822F471421A6053
:102CF0007B681B6819687B681A697B685B691A4383
:102D00007B689B691A437B681B680A431A607B686F
:102D10001B681A687B681B6822F00F021A607B68C8
:102D20001B6819687B68DA697B681B6A1A437B68D1
:102D30001B680A431A607B681B689A687B681B687B
:102D400022F45F029A607B681B6899687B685A6A04
:102D50007B689B6A013B1B041A437B681B680A4320
:102D60009A607B681B685A687B681B6802F00702E0
:102D70005A607B681B6859687B68DB6A1A027B684B
:102D80001B6BDB001A437B681B680A435A607B6835
:102D90001B681A687B681B6842F080021A607B68B7
:102DA000012283F834207B681B68184600F00AFA79
:102DB000024604497B6841F8223000231846083750
:102DC000BD4680BDF8920120F492012000600140D0
:102DD00080B582B000AF78607B68002B01D1012301
:102DE000CAE07B681B68664A934209D17B685B68CE
:102DF000012B03D07B68DB68012B01D10123BBE0F1
:102E00007B6800221A637B6801225A647B68012276
:102E10009A647B6800221A657868FEF759FC7B6823
:102E20001B681A687B681B6822F400221A607B68A2
:102E30001B7A012B08D17B681B681A687B681B68AA
:102E400042F000521A6007E07B681B681A687B68D2
:102E50001B6822F000521A607B685B7A012B08D154
:102E60007B681B681A687B681B6842F400121A6052
:102E700007E07B681B681A687B681B6822F40012F5
:102E80001A607B681B681B687A68126823F4FE432B
:102E900023F0080313607B68DB68022B08D17B6892
:102EA0001B6819687B685A697B681B680A431A604B
:102EB0007B681B7C012B08D17B681B681A687B68C8
:102EC0001B6842F010021A6007E07B681B681A68F2
:102ED0007B681B6822F010021A607B685B7C012B08
:102EE00008D17B681B681A687B681B6842F0200267
:102EF0001A6007E07B681B681A687B681B6822F011
:102F000020021A607B681B685B697A68126823F08C
:102F1000634303F0FF2353617B681B6859697B6837
:102F2000DA697B681B6A013B1B041A437B685B6A96
:102F3000013B1A437B681B680A435A617B685A68E5
:102F40007B685A637B68DA687B689A637B689A69F6
:102F50007B68DA637B681A7C7B6883F840207B6837
:102F60001B681A687B681B6842F001021A607B6864
:102F7000012283F84C20002318460837BD4680BD47
:102F80000061014080B487B000AFF860B9607A603A
:102F90000023FB75FB6893F84C30002B2ED0FB68A8
:102FA00093F84C30FF2B29D0FB681B681B68FA682C
:102FB000126823F0E06323F4802313607B68012B05
:102FC0000DD1FB681B681A68BB681B0203F07F43C6
:102FD0001A43FB681B6842F480221A600AE0FB680F
:102FE0001B681968BB681B0203F07F42FB681B6803
:102FF0000A431A60FB687A681A6301E00123FB75D3
:10300000FB7D18461C37BD465DF8047B7047000009
:1030100080B586B000AFF860B9607A600023FB75B8
:10302000BB68002B02D07B68002B02D10123FB750B
:1030300064E0FB681B681B6803F40013B3F5001F12
:1030400002D00123FB7559E0FB685B6B002B0ED1AE
:10305000FB681B6B002B0AD1FB689B6ADB69002BAA
:1030600005D17B68012B02D00123FB7546E0FB688C
:103070005B6B002B0BD1FB681B6B002B07D1FB6834
:103080009B6ADB69202B02D10123FB7536E0FB68CC
:1030900093F84C30012B04D0FB6893F84C30032B91
:1030A0002AD1FB689B6A184ADA62FB689B6A174A56
:1030B0005A63FB689B6ADB69202B01D1144A00E04C
:1030C0000022FB689B6A1A63FB68986AFB681B68AE
:1030D0001C331946BA687B6800F00CFA0346002BD3
:1030E00006D0FB68FF2283F84C200123FB7505E026
:1030F000F86800F0B3F801E00123FB75FB7D18468A
:103100001837BD4680BD00BF85310008A1310008D9
:103110006931000880B584B000AF78600023FB738C
:103120007B6893F84C30022B07D07B6893F84C30C7
:10313000042B02D00123FB7307E07B689B6A1846CF
:1031400000F053FA786800F0DFF8FB7B1846103780
:10315000BD4680BD80B483B000AF786000BF0C373F
:10316000BD465DF8047B704780B584B000AF7860E1
:103170007B689B6AFB60F868FEF7FAF900BF1037BE
:10318000BD4680BD80B584B000AF78607B689B6A27
:10319000FB60F868FEF7DCF900BF1037BD4680BD64
:1031A00080B584B000AF78607B689B6AFB60FB6889
:1031B00003221A65F868FFF7CDFF00BF1037BD4640
:1031C00080BD000080B485B000AF78607B681C4A89
:1031D000934202D10023FB602BE07B68194A9342A3
:1031E00002D10123FB6024E07B68174A934202D19D
:1031F0000223FB601DE07B68144A934202D1042342
:10320000FB6016E07B68124A934202D10523FB6003
:103210000FE07B680F4A934202D10623FB6008E06F
:103220007B680D4A934202D10723FB6001E0032330
:10323000FB60FB6818461437BD465DF8047B704799
:10324000006001402060014040600140806001401A
:10325000A0600140C0600140E060014080B483B0E4
:1032600000AF78607B685B6B002B08D17B681B68C4
:103270001A687B681B6842F400321A6033E07B688E
:103280001B681A687B681B6822F001021A607B6861
:103290001B681A687B681B6842F400221A607B680E
:1032A0001B681A687B681B6842F001021A607B6821
:1032B00093F84C30032B16D17B689B6B002B07D106
:1032C0007B681B681A687B681B6842F002021A6000
:1032D0007B6893F84030012B02D17B685B6C00E087
:1032E00001237A6893647B6893F84C30012B01D1F9
:1032F000022200E004227B6883F84C2000BF0C37D8
:10330000BD465DF8047B704780B483B000AF786041
:103310007B681B681A687B681B6822F001021A60D0
:103320007B685B6B012B07D17B681B681A687B6825
:103330001B6822F400221A607B681B681A687B688D
:103340001B6842F001021A607B6893F84C30042B32
:1033500016D17B689B6B002B07D17B681B681A68B2
:103360007B681B6842F002021A607B6893F8403069
:10337000012B02D17B685B6C00E001237A689364C7
:103380007B6893F84C30022B01D1012200E003222C
:103390007B6883F84C2000BF0C37BD465DF8047B8A
:1033A0007047000080B584B000AF78607B68002B68
:1033B00001D101238DE07B681B681A46474B9A4276
:1033C0000FD87B681B681A46454B1344454AA2FB3D
:1033D00003231B099A007B685A647B68424A1A647B
:1033E0000EE07B681B681A46404B13443D4AA2FB23
:1033F00003231B099A007B685A647B683C4A1A6461
:103400007B68022283F825207B681B681B68FB60B1
:10341000FB6823F4FF4323F07003FB607B689A682A
:103420007B68DB681A437B681B691A437B685B69AE
:103430001A437B689B691A437B68DB691A437B6884
:103440001B6A1343FA681343FB607B681B68FA68C6
:103450001A60786800F072FA7B689B68B3F5804F59
:1034600002D17B6800225A607B685A687B689B6C3B
:10347000D2B21A607B68DB6C7A68126D5A607B6826
:103480005B68002B10D07B685B68042B0CD87868D5
:1034900000F092FA7B685B6D00221A607B689B6D7E
:1034A0007A68D26D5A6008E07B6800225A657B68B2
:1034B00000229A657B680022DA657B680022DA6365
:1034C0007B68012283F825207B68002283F8242072
:1034D000002318461037BD4680BD00BF07040240D8
:1034E000F8FFFDBFCDCCCCCC00000240F8FBFDBF07
:1034F0000004024080B586B000AFF860B9607A6021
:103500003B600023FB75FB6893F82430012B01D14D
:10351000022366E0FB68012283F82420FB6893F80D
:103520002530DBB2012B55D1FB68022283F8252020
:10353000FB680022DA63FB681B681A68FB681B687B
:1035400022F001021A603B687A68B968F86800F0F6
:10355000B6F9FB681B6B002B08D0FB681B681A6868
:10356000FB681B6842F00E021A600FE0FB681B68E4
:103570001A68FB681B6822F004021A60FB681B686B
:103580001A68FB681B6842F00A021A60FB689B6CB1
:103590001B6803F48033002B07D0FB689B6C1A6810
:1035A000FB689B6C42F480721A60FB685B6D002BB9
:1035B00007D0FB685B6D1A68FB685B6D42F4807234
:1035C0001A60FB681B681A68FB681B6842F00102FE
:1035D0001A6005E0FB68002283F824200223FB75B3
:1035E000FB7D18461837BD4680BD80B485B000AF5E
:1035F00078600023FB737B6893F82530DBB2022BE5
:1036000008D07B680422DA637B68002283F82420D8
:10361000012340E07B681B681A687B681B6822F006
:103620000E021A607B689B6C1A687B689B6C22F4A4
:1036300080721A607B681B681A687B681B6822F0BE
:1036400001021A607B685B6C03F01C027B681B6CD8
:10365000012101FA02F25A607B68DB6C7A68126D14
:103660005A607B685B6D002B0CD07B685B6D1A68C1
:103670007B685B6D22F480721A607B689B6D7A6850
:10368000D26D5A607B68012283F825207B68002276
:1036900083F82420FB7B18461437BD465DF8047B75
:1036A000704780B584B000AF78600023FB737B68FF
:1036B00093F82530DBB2022B05D07B680422DA6355
:1036C0000123FB7347E07B681B681A687B681B68F3
:1036D00022F00E021A607B681B681A687B681B6800
:1036E00022F001021A607B689B6C1A687B689B6CF5
:1036F00022F480721A607B685B6C03F01C027B68AA
:103700001B6C012101FA02F25A607B68DB6C7A685B
:10371000126D5A607B685B6D002B0CD07B685B6D13
:103720001A687B685B6D22F480721A607B689B6DFF
:103730007A68D26D5A607B68012283F825207B6805
:10374000002283F824207B689B6B002B03D07B68CE
:103750009B6B78689847FB7B18461037BD4680BD49
:1037600080B584B000AF78607B681B6C1B68FB6021
:103770007B681B681B68BB607B685B6C03F01C0389
:1037800004229A40FB681340002B26D0BB6803F04C
:103790000403002B21D07B681B681B6803F0200307
:1037A000002B07D17B681B681A687B681B6822F0B6
:1037B00004021A607B685B6C03F01C027B681B6C64
:1037C000042101FA02F25A607B681B6B002B71D056
:1037D0007B681B6B786898476CE07B685B6C03F0D8
:1037E0001C0302229A40FB681340002B2ED0BB68BA
:1037F00003F00203002B29D07B681B681B6803F0D1
:103800002003002B0BD17B681B681A687B681B6840
:1038100022F00A021A607B68012283F825207B6867
:103820005B6C03F01C027B681B6C022101FA02F244
:103830005A607B68002283F824207B68DB6A002BB7
:1038400038D07B68DB6A7868984733E07B685B6CCC
:1038500003F01C0308229A40FB681340002B2AD077
:10386000BB6803F00803002B25D07B681B681A682F
:103870007B681B6822F00E021A607B685B6C03F0A9
:103880001C027B681B6C012101FA02F25A607B6802
:103890000122DA637B68012283F825207B680022FD
:1038A00083F824207B685B6B002B04D07B685B6B08
:1038B0007868984700BF00BF1037BD4680BD80B410
:1038C00085B000AFF860B9607A603B60FB68DB6C84
:1038D000FA68126D5A60FB685B6D002B04D0FB68C0
:1038E0009B6DFA68D26D5A60FB685B6C03F01C023A
:1038F000FB681B6C012101FA02F25A60FB681B682D
:103900003A685A60FB689B68102B08D1FB681B68FB
:103910007A689A60FB681B68BA68DA6007E0FB683F
:103920001B68BA689A60FB681B687A68DA6000BF37
:103930001437BD465DF8047B7047000080B485B045
:1039400000AF78607B681B681A46174B9A420AD80A
:103950007B685B6C9B089B0003F1804303F502339B
:103960007A68936407E07B685B6C9B089A000F4B56
:1039700013447A6893647B681B68DBB2083B0C4A8B
:10398000A2FB03231B09FB607B680A4ADA64FB681D
:1039900003F01F0301229A407B681A6500BF1437A9
:1039A000BD465DF8047B7047070402401C080240D6
:1039B000CDCCCCCC8008024080B485B000AF78601C
:1039C0007B685B68DBB2FB60FA680B4B13449B00BF
:1039D0001A467B685A657B68084A9A65FB68013B12
:1039E00003F0030301229A407B68DA6500BF1437B5
:1039F000BD465DF8047B70473F82001040090240DD
:103A000080B487B000AF7860396000237B6166E1E5
:103A10003B681A6801217B6901FA03F31340FB60DC
:103A2000FB68002B00F058813B685B6803F00303E0
:103A3000012B05D03B685B6803F00303022B30D1F8
:103A40007B689B683B617B695B00032202FA03F39E
:103A5000DB433A6913403B613B68DA687B695B0092
:103A600002FA03F33A6913433B617B683A699A604F
:103A70007B685B683B6101227B6902FA03F3DB43ED
:103A80003A6913403B613B685B681B0903F0010224
:103A90007B6902FA03F33A6913433B617B683A6935
:103AA0005A603B685B6803F00303032B17D07B6805
:103AB000DB683B617B695B00032202FA03F3DB43B3
:103AC0003A6913403B613B689A687B695B0002FA84
:103AD00003F33A6913433B617B683A69DA603B68F8
:103AE0005B6803F00303022B23D17B69DA087B6850
:103AF000083253F822303B617B6903F007039B00D7
:103B00000F2202FA03F3DB433A6913403B613B683F
:103B10001A697B6903F007039B0002FA03F33A6911
:103B200013433B617B69DA087B680832396943F8E3
:103B300022107B681B683B617B695B00032202FAF1
:103B400003F3DB433A6913403B613B685B6803F076
:103B500003027B695B0002FA03F33A6913433B619A
:103B60007B683A691A603B685B6803F44033002B5A
:103B700000F0B280614B1B6E604A43F00103136694
:103B80005E4B1B6E03F00103BB60BB685C4A7B6944
:103B90009B08023352F823303B617B6903F0030337
:103BA0009B000F2202FA03F3DB433A6913403B61A7
:103BB0007B68B3F1904F2BD07B68524A934225D05B
:103BC0007B68514A93421FD07B68504A934219D078
:103BD0007B684F4A934213D07B684E4A93420DD084
:103BE0007B684D4A934207D07B684C4A934201D18F
:103BF00007230EE008230CE006230AE0052308E073
:103C0000042306E0032304E0022302E0012300E092
:103C100000237A6902F00302920093403A69134349
:103C20003B6137497B699B0802333A6941F823209D
:103C30003B4B9B683B61FB68DB433A6913403B614C
:103C40003B685B6803F48013002B03D03A69FB6880
:103C500013433B61324A3B699360314BDB683B6104
:103C6000FB68DB433A6913403B613B685B6803F4E4
:103C70000013002B03D03A69FB6813433B61284AC9
:103C80003B69D360264B5B683B61FB68DB433A6969
:103C900013403B613B685B6803F40033002B03D0A7
:103CA0003A69FB6813433B611D4A3B6953601C4BF7
:103CB0001B683B61FB68DB433A6913403B613B682F
:103CC0005B6803F48033002B03D03A69FB6813432D
:103CD0003B61134A3B6913607B6901337B613B683D
:103CE0001A687B6922FA03F3002B7FF491AE00BFC0
:103CF00000BF1C37BD465DF8047B704700100240D2
:103D0000000001400004004800080048000C004882
:103D1000001000480014004800180048001C00482B
:103D20000004014080B582B000AF0346FB80084B21
:103D30005A69FB881340002B06D0054AFB88536163
:103D4000FB881846FDF7EAFB00BF0837BD4680BD7B
:103D50000004014080B400AF0D4B1B6803F4C06346
:103D6000B3F5806F02D14FF480630BE0084BD3F8BA
:103D7000803003F48073B3F5807F02D14FF4007379
:103D800000E000231846BD465DF8047B704700BF85
:103D90000070004080B588B000AF78607B68002B71
:103DA00002D1012300F008BC964B9B6803F00C0382
:103DB000BB61944BDB6803F003037B617B681B688A
:103DC00003F01003002B00F0E480BB69002B07D048
:103DD000BB690C2B40F08B807B69012B40F0878006
:103DE000884B1B6803F00203002B05D07B689B699E
:103DF000002B01D10123DFE37B681A6A814B1B682A
:103E000003F00803002B04D07E4B1B6803F0F00383
:103E100005E07C4BD3F894301B0903F0F003934288
:103E200023D27B681B6A184600F0CCFD0346002BAA
:103E300001D00123C0E3734B1B68724A43F00803AF
:103E40001360704B1B6823F0F0027B681B6A6D499E
:103E500013430B606B4B5B6823F47F427B68DB6929
:103E60001B02684913434B6025E0664B1B68654A9B
:103E700043F008031360634B1B6823F0F0027B6878
:103E80001B6A604913430B605E4B5B6823F47F42FF
:103E90007B68DB691B025B4913434B60BB69002BEA
:103EA00009D17B681B6A184600F08CFD0346002B85
:103EB00001D0012380E300F0C1FC0246514B9B6816
:103EC0001B0903F00F035049CB5C03F01F0322FAD8
:103ED00003F34E4A13604E4B1B681846FEF744FA34
:103EE0000346FB73FB7B002B52D0FB7B64E37B68B8
:103EF0009B69002B32D0434B1B68424A43F00103BD
:103F00001360FEF781FA386108E0FEF77DFA024699
:103F10003B69D31A022B01D903234DE3394B1B68AC
:103F200003F00203002BF0D0364B1B68354A43F0F8
:103F300008031360334B1B6823F0F0027B681B6A95
:103F4000304913430B602F4B5B6823F47F427B683F
:103F5000DB691B022B4913434B601AE0294B1B689A
:103F6000284A23F001031360FEF74EFA386108E097
:103F7000FEF74AFA02463B69D31A022B01D9032302
:103F80001AE3204B1B6803F00203002BF0D100E082
:103F900000BF7B681B6803F00103002B73D0BB6973
:103FA000082B05D0BB690C2B0ED17B69032B0BD1E1
:103FB000144B1B6803F40033002B63D07B685B68F1
:103FC000002B5FD10123F7E27B685B68B3F5803F8C
:103FD00006D10C4B1B680B4A43F48033136025E079
:103FE0007B685B68B3F5A02F14D1064B1B68054AAC
:103FF00043F480231360034B1B68024A43F480336D
:10400000136013E0001002409885000800000020B3
:1040100014000020A04B1B689F4A23F480331360D8
:104020009D4B1B689C4A23F4802313607B685B686C
:10403000002B13D0FEF7E8F9386108E0FEF7E4F949
:1040400002463B69D31A642B01D90323B4E2924B95
:104050001B6803F40033002BF0D014E0FEF7D4F912
:10406000386108E0FEF7D0F902463B69D31A642BA9
:1040700001D90323A0E2884B1B6803F40033002B13
:10408000F0D100E000BF7B681B6803F00203002B47
:1040900060D0BB69042B05D0BB690C2B19D17B699F
:1040A000022B16D17C4B1B6803F48063002B05D0D8
:1040B0007B68DB68002B01D101237DE2764B5B68D6
:1040C00023F0FE427B681B691B06734913434B6058
:1040D00040E07B68DB68002B23D06F4B1B686E4A87
:1040E00043F480731360FEF78FF9386108E0FEF740
:1040F0008BF902463B69D31A022B01D903235BE2F9
:10410000654B1B6803F48063002BF0D0624B5B6847
:1041100023F0FE427B681B691B065F4913434B601B
:1041200018E05D4B1B685C4A23F480731360FEF754
:104130006BF9386108E0FEF767F902463B69D31A6C
:10414000022B01D9032337E2534B1B6803F480632E
:10415000002BF0D17B681B6803F00803002B3CD0D8
:104160007B685B69002B1CD04B4BD3F894304A4AD8
:1041700043F00103C2F89430FEF746F9386108E0D5
:10418000FEF742F902463B69D31A022B01D90323F9
:1041900012E2414BD3F8943003F00203002BEFD02E
:1041A0001BE03D4BD3F894303B4A23F00103C2F8A7
:1041B0009430FEF729F9386108E0FEF725F9024648
:1041C0003B69D31A022B01D90323F5E1324BD3F813
:1041D000943003F00203002BEFD17B681B6803F0DF
:1041E0000403002B00F0A6800023FB772A4B9B6D75
:1041F00003F08053002B0DD1274B9B6D264A43F0D3
:1042000080539365244B9B6D03F08053BB60BB6868
:104210000123FB77214B1B6803F48073002B18D11B
:104220001E4B1B681D4A43F480731360FEF7ECF8C5
:10423000386108E0FEF7E8F802463B69D31A022B22
:1042400001D90323B8E1154B1B6803F48073002BDD
:10425000F0D07B689B68012B08D10F4BD3F89030CE
:104260000D4A43F00103C2F8903029E07B689B6857
:10427000052B15D1084BD3F89030074A43F00403BF
:10428000C2F89030044BD3F89030034A43F0010356
:10429000C2F8903014E000BF0010024000700040EF
:1042A0009D4BD3F890309C4A23F00103C2F8903024
:1042B000994BD3F89030984A23F00403C2F8903019
:1042C0007B689B68002B16D0FEF79EF838610AE0E9
:1042D000FEF79AF802463B69D31A41F288329342BC
:1042E00001D9032368E18C4BD3F8903003F002032B
:1042F000002BEDD015E0FEF787F838610AE0FEF7F5
:1043000083F802463B69D31A41F28832934201D9BD
:10431000032351E1804BD3F8903003F00203002BCC
:10432000EDD1FB7F012B05D17B4B9B6D7A4A23F0AE
:10433000805393657B681B6803F02003002B3CD0FF
:104340007B685B6A002B1CD0734BD3F89830724AA1
:1043500043F00103C2F89830FEF756F8386108E0E0
:10436000FEF752F802463B69D31A022B01D9032308
:1043700022E1694BD3F8983003F00203002BEFD011
:104380001BE0654BD3F89830634A23F00103C2F871
:104390009830FEF739F8386108E0FEF735F8024644
:1043A0003B69D31A022B01D9032305E15A4BD3F8F9
:1043B000983003F00203002BEFD17B689B6A002B3F
:1043C00000F0F9807B689B6A022B40F0CF80524B53
:1043D000DB687B617B6903F003027B68DB6A9A42DE
:1043E0002CD17B6903F0F0027B681B6B013B1B0146
:1043F0009A4223D17B6903F4FE427B685B6B1B020C
:104400009A421BD17B6903F078427B689B6BDB0689
:104410009A4213D17B6903F4C0027B68DB6B5B08B3
:10442000013B5B059A4209D17B6903F0C0627B685E
:104430001B6C5B08013B5B069A4271D0BB690C2B7D
:1044400068D0354B1B6803F08063002B05D1324BDD
:104450001B6803F08053002B01D00123ACE02E4BEE
:104460001B682D4A23F080731360FDF7CDFF386180
:1044700008E0FDF7C9FF02463B69D31A022B01D9B8
:10448000032399E0244B1B6803F00073002BF0D149
:10449000214BDA68214B13407A68D16A7A68126B33
:1044A000013A120111437A68526B120211437A6881
:1044B000D26B5208013A520511437A68126C5208C5
:1044C000013A520611437A68926BD2060A431249A6
:1044D0001343CB60104B1B680F4A43F0807313608B
:1044E0000D4BDB680C4A43F08073D360FDF78CFF03
:1044F000386108E0FDF788FF02463B69D31A022BBA
:1045000001D9032358E0044B1B6803F00073002B10
:10451000F0D050E001234FE0001002400C809D01DC
:10452000274B1B6803F00073002B44D1244B1B68FE
:10453000234A43F080731360214BDB68204A43F029
:104540008073D360FDF760FF386108E0FDF75CFF22
:1045500002463B69D31A022B01D903232CE0184BE6
:104560001B6803F00073002BF0D024E0BB690C2B18
:104570001FD0134B1B68124A23F080731360FDF7A2
:1045800043FF386108E0FDF73FFF02463B69D31A5D
:10459000022B01D903230FE0094B1B6803F00073C2
:1045A000002BF0D1064BDA680549064B1340CB606F
:1045B00001E0012300E0002318462037BD4680BDFE
:1045C00000100240FCFFEEFE80B586B000AF7860C0
:1045D000396000237B617B68002B01D101231DE141
:1045E000904B1B6803F00F033A689A4210D98D4B29
:1045F0001B6823F00F028B493B6813430B60894B08
:104600001B6803F00F033A689A4201D0012305E1C9
:104610007B681B6803F00203002B10D07B689A684C
:10462000814B9B6803F0F0039A4208D97E4B9B684C
:1046300023F0F0027B689B687B4913438B607B68A7
:104640001B6803F00103002B79D07B685B68032BA8
:104650001ED1754B1B6803F00073002B01D10123A1
:10466000DCE000F009FA0346704A934246D96E4BEB
:104670009B6803F0F003002B40D16B4B9B6823F049
:10468000F003694A43F08003936080237B6135E047
:104690007B685B68022B07D1634B1B6803F4003314
:1046A000002B15D10123B9E07B685B68002B07D193
:1046B0005D4B1B6803F00203002B09D10123ADE021
:1046C000594B1B6803F48063002B01D10123A5E043
:1046D00000F0B4F80346554A93420FD9524B9B68F9
:1046E00003F0F003002B09D14F4B9B6823F0F0033C
:1046F0004D4A43F08003936080237B614A4B9B6863
:1047000023F003027B685B68474913438B60FDF726
:104710007BFE38610AE0FDF777FE02463B69D31A5B
:1047200041F28832934201D9032377E03E4B9B68E4
:1047300003F00C027B685B689B009A42EBD17B69BB
:10474000802B05D1384B9B68374A23F0F0039360E8
:104750007B681B6803F00203002B10D07B689A680B
:10476000314B9B6803F0F0039A4208D22E4B9B68B2
:1047700023F0F0027B689B682B4913438B60294B25
:104780001B6803F00F033A689A4210D2254B1B684E
:1047900023F00F0223493B6813430B60214B1B6836
:1047A00003F00F033A689A4201D0012336E07B6898
:1047B0001B6803F00403002B08D01B4B9B6823F4F9
:1047C000E0627B68DB68184913438B607B681B6879
:1047D00003F00803002B09D0134B9B6823F46052AD
:1047E0007B681B69DB00104913438B6000F026F8DF
:1047F00002460D4B9B681B0903F00F030C49CB5C71
:1048000003F01F0322FA03F30A4A13600A4B1B68E2
:104810001846FDF7A9FD0346FB73FB7B18461837C6
:10482000BD4680BD002002400010024000B4C40418
:1048300098850008000000201400002080B489B092
:1048400000AF0023FB610023BB613E4B9B6803F07C
:104850000C033B613B4BDB6803F00303FB603B69EC
:10486000002B05D03B690C2B21D1FB68012B1ED1FD
:10487000344B1B6803F00803002B07D1314BD3F8EE
:1048800094301B0A03F00F03FB6105E02D4B1B68FE
:104890001B0903F00F03FB612B4AFB6952F823301D
:1048A000FB613B69002B0DD1FB69BB610AE03B69F1
:1048B000042B02D1254BBB6104E03B69082B01D1DD
:1048C000234BBB613B690C2B34D11E4BDB6803F0DF
:1048D0000303BB60BB68022B03D0BB68032B03D070
:1048E00005E01A4B7B6105E0194B7B6102E0FB6937
:1048F0007B6100BF134BDB681B0903F00F0301331F
:104900007B60104BDB681B0A03F07F037A6903FBB3
:1049100002F27B68B2FBF3F37B610A4BDB685B0E50
:1049200003F0030301335B003B607A693B68B2FB31
:10493000F3F3BB61BB6918462437BD465DF8047BC1
:10494000704700BF00100240B08500080024F4004A
:1049500000127A0080B400AF034B1B681846BD46B6
:104960005DF8047B704700BF0000002080B500AFF9
:10497000FFF7F0FF0246064B9B681B0A03F0070394
:104980000449CB5C03F01F0322FA03F3184680BDF1
:1049900000100240A885000880B500AFFFF7DAFFDD
:1049A0000246064B9B68DB0A03F007030449CB5C15
:1049B00003F01F0322FA03F3184680BD00100240E3
:1049C000A885000880B586B000AF786000233B6101
:1049D000274B9B6D03F08053002B03D0FFF7BAF9F0
:1049E000786114E0224B9B6D214A43F0805393651C
:1049F0001F4B9B6D03F08053FB60FB68FFF7AAF928
:104A000078611B4B9B6D1A4A23F0805393657B6939
:104A1000B3F5007F0BD17B68802B13D97B68A02B6B
:104A200002D902233B610DE001233B610AE07B6870
:104A30007F2B02D902233B6104E07B68702B01D1FC
:104A400001233B610B4B1B6823F00F0209493B69B3
:104A500013430B60074B1B6803F00F033A699A423C
:104A600001D0012300E0002318461837BD4680BD61
:104A7000001002400020024080B487B000AF2D4BF0
:104A8000DB6803F00303FB60FB68032B0BD0FB68C0
:104A9000032B25D8FB68012B08D0FB68022B1FD104
:104AA000254B3B611FE0254B3B611CE0214B1B6804
:104AB00003F00803002B07D11E4BD3F894301B0AD8
:104AC00003F00F037B6105E01A4B1B681B0903F021
:104AD0000F037B611A4A7B6952F823303B6102E085
:104AE00000233B6100BF134BDB681B0903F00F037E
:104AF0000133BB600F4BDB681B0A03F07F033A698D
:104B000003FB02F2BB68B2FBF3F33B61094BDB68CA
:104B10005B0E03F0030301335B007B603A697B6843
:104B2000B2FBF3F33B603B6818461C37BD465DF8AB
:104B3000047B7047001002400024F40000127A0049
:104B4000B085000880B586B000AF78600023FB74A4
:104B50000023BB747B681B6803F40063002B40D008
:104B60007B68DB6E802B2AD0802B25D8602B26D04B
:104B7000602B21D8402B06D0402B1DD8002B09D00C
:104B8000202B10D018E0894BDB68884A43F480332F
:104B9000D36015E07B6804330021184600F002FB67
:104BA0000346FB740CE07B6820330021184600F0BC
:104BB000EDFB0346FB7403E00123FB7400E000BF40
:104BC000FB7C002B0BD1794BD3F89C3023F0E00217
:104BD0007B68DB6E75491343C1F89C3001E0FB7CB8
:104BE000BB747B681B6803F48053002B47D07B6841
:104BF0001B6FB3F5806F30D0B3F5806F2AD8B3F553
:104C0000407F2AD0B3F5407F24D8B3F5007F08D089
:104C1000B3F5007F1ED8002B0AD0B3F5807F10D0EB
:104C200018E0624BDB68614A43F48033D36015E0DF
:104C30007B6804330021184600F0B4FA0346FB7485
:104C40000CE07B6820330021184600F09FFB0346F0
:104C5000FB7403E00123FB7400E000BFFB7C002B2E
:104C60000BD1524BD3F89C3023F4E0627B681B6F6E
:104C70004E491343C1F89C3001E0FB7CBB747B6858
:104C80001B6803F40033002B00F09F8000237B742B
:104C9000464B9B6D03F08053002B01D1012300E0B4
:104CA0000023002B0DD0414B9B6D404A43F08053B5
:104CB00093653E4B9B6D03F08053BB60BB68012343
:104CC0007B743B4B1B683A4A43F480731360FDF7D7
:104CD0009BFBF86009E0FDF797FB0246FB68D31ADF
:104CE000022B02D90323FB7405E0314B1B6803F44C
:104CF0008073002BEFD0FB7C002B5BD12B4BD3F8C8
:104D0000903003F440737B617B69002B1FD07B687C
:104D1000D3F890307A699A4219D0244BD3F8903066
:104D200023F440737B61214BD3F890301F4A43F446
:104D30008033C2F890301D4BD3F890301B4A23F4D7
:104D40008033C2F89030194A7B69C2F890307B6991
:104D500003F00103002B16D0FDF756FBF8600BE0C3
:104D6000FDF752FB0246FB68D31A41F288329342A8
:104D700002D90323FB7406E00C4BD3F8903003F008
:104D80000203002BECD0FB7C002B0CD1074BD3F89B
:104D9000903023F440727B68D3F89030034913437A
:104DA000C1F8903008E0FB7CBB7405E000100240C5
:104DB00000700040FB7CBB747B7C012B05D1A04BB9
:104DC0009B6D9F4A23F0805393657B681B6803F0BB
:104DD0000103002B0AD09A4BD3F8883023F003024A
:104DE0007B68DB6B96491343C1F888307B681B688E
:104DF00003F00203002B0AD0914BD3F8883023F044
:104E00000C027B681B6C8E491343C1F888307B68A9
:104E10001B6803F00403002B0AD0894BD3F88830B9
:104E200023F030027B685B6C85491343C1F88830FE
:104E30007B681B6803F00803002B0AD0804BD3F873
:104E4000883023F0C0027B689B6C7D491343C1F816
:104E500088307B681B6803F01003002B0AD0784B66
:104E6000D3F8883023F440727B68DB6C74491343B9
:104E7000C1F888307B681B6803F02003002B0AD040
:104E80006F4BD3F8883023F440627B681B6D6C490C
:104E90001343C1F888307B681B6803F40073002B50
:104EA0000AD0674BD3F8883023F440227B685B6ECE
:104EB00063491343C1F888307B681B6803F480633F
:104EC000002B0AD05E4BD3F8883023F440127B6865
:104ED0009B6E5B491343C1F888307B681B6803F005
:104EE0004003002B0AD0564BD3F8883023F44052AD
:104EF0007B685B6D52491343C1F888307B681B683F
:104F000003F08003002B0AD04D4BD3F8883023F4F4
:104F100040427B689B6D4A491343C1F888307B68E7
:104F20001B6803F48073002B0AD0454BD3F88830FC
:104F300023F440327B68DB6D41491343C1F888306C
:104F40007B681B6803F48013002B0AD03C4BD3F81A
:104F50009C3023F003027B681B6E39491343C1F870
:104F60009C307B681B6803F40053002B28D0344B23
:104F7000D3F8883023F040627B685B6F304913437D
:104F8000C1F888307B685B6FB3F1006F06D12C4BA2
:104F9000DB682B4A43F48013D36011E07B685B6FBE
:104FA000B3F1806F0CD17B6804330121184600F007
:104FB000F9F80346FB74FB7C002B01D0FB7CBB742F
:104FC0007B681B6803F40023002B4DD07B689B6F2C
:104FD000B3F5804F08D11A4BD3F89C30184A43F4EC
:104FE0008043C2F89C3012E0154BD3F89C30144A31
:104FF00023F48043C2F89C30114BD3F8883023F05F
:1050000040627B689B6F0E491343C1F888307B6810
:105010009B6FB3F1006F06D1094BDB68084A43F47C
:105020008013D36020E07B689B6FB3F5804F09D17C
:10503000034BDB68024A43F48033D36014E000BFC3
:10504000001002407B689B6FB3F1806F0CD17B68CE
:1050500004330121184600F0A5F80346FB74FB7CDD
:10506000002B01D0FB7CBB747B681B6803F480239E
:10507000002B28D04A4BD3F8883023F040627B685D
:10508000DB6F47491343C1F888307B68DB6FB3F1AE
:10509000006F06D1424BDB68414A43F48013D36072
:1050A00011E07B68DB6FB3F1806F0CD17B68043358
:1050B0000121184600F076F80346FB74FB7C002BB8
:1050C00001D0FB7CBB747B681B6803F48043002B1E
:1050D0001ED0334BD3F8883023F040527B68D3F88E
:1050E00080302F491343C1F888307B68D3F8803073
:1050F000B3F1805F0CD17B6804330221184600F0C5
:1051000051F80346FB74FB7C002B01D0FB7CBB7485
:105110007B681B6803F48033002B0BD0204BD3F843
:105120009C3023F004027B68D3F884301C4913437D
:10513000C1F89C307B681B6803F40013002B0BD074
:10514000174BD3F89C3023F018027B68D3F88830D3
:1051500013491343C1F89C307B681B6803F08073CC
:10516000002B17D00E4BD3F89C3023F440127B68F1
:10517000D3F88C300A491343C1F89C307B68D3F8CC
:105180008C30B3F5001F05D1054BDB68044A43F4AE
:105190008013D360BB7C18461837BD4680BD00BF66
:1051A0000010024080B584B000AF78603960002301
:1051B000FB73724BDB6803F00303002B0ED06F4BC5
:1051C000DB6803F003027B681B689A4203D17B68AB
:1051D0001B68002B42D10123FB733FE07B681B68F7
:1051E000032B18D0032B25D8012B02D0022B09D07A
:1051F00020E0624B1B6803F00203002B1DD101234A
:10520000FB731AE05D4B1B6803F48063002B16D11F
:105210000123FB7313E0594B1B6803F40033002B8D
:105220000FD1564B1B6803F48023002B09D10123B7
:10523000FB7306E00123FB7304E000BF02E000BF44
:1052400000E000BFFB7B002B08D14C4BDB6823F058
:1052500003027B681B6849491343CB60FB7B002B2F
:1052600040F08680454B1B68444A23F080631360FE
:10527000FDF7CAF8B86009E0FDF7C6F80246BB685A
:10528000D31A022B02D90323FB7305E03B4B1B68A7
:1052900003F00063002BEFD1FB7B002B68D13B6850
:1052A000002B13D1354B1A69354B13407A6892683D
:1052B00011027A68D268D20611437A685268013ABC
:1052C00012010A432D4913430B612DE03B68012B6A
:1052D00015D12A4B1A692B4B13407A689268110238
:1052E0007A6812695208013A520511437A68526885
:1052F000013A12010A43214913430B6114E01F4B89
:105300001A69214B13407A68926811027A685269CF
:105310005208013A520611437A685268013A120162
:105320000A43164913430B61144B1B68134A43F09D
:1053300080631360FDF768F8B86009E0FDF764F872
:105340000246BB68D31A022B02D90323FB7305E084
:105350000A4B1B6803F00063002BEFD0FB7B002B94
:1053600006D1064B1A697B689B69044913430B619C
:10537000FB7B18461037BD4680BD00BF00100240C1
:105380000F80FF070F809FFF0F80FFF980B584B06B
:1053900000AF786039600023FB73724BDB6803F069
:1053A0000303002B0ED06F4BDB6803F003027B6816
:1053B0001B689A4203D17B681B68002B42D10123F2
:1053C000FB733FE07B681B68032B18D0032B25D8A9
:1053D000012B02D0022B09D020E0624B1B6803F0A6
:1053E0000203002B1DD10123FB731AE05D4B1B68E8
:1053F00003F48063002B16D10123FB7313E0594B98
:105400001B6803F40033002B0FD1564B1B6803F4C9
:105410008023002B09D10123FB7306E00123FB73DA
:1054200004E000BF02E000BF00E000BFFB7B002BF8
:1054300008D14C4BDB6823F003027B681B684949A9
:105440001343CB60FB7B002B40F08680454B1B68F1
:10545000444A23F080531360FCF7D6FFB86009E09C
:10546000FCF7D2FF0246BB68D31A022B02D90323F2
:10547000FB7305E03B4B1B6803F00053002BEFD19F
:10548000FB7B002B68D13B68002B13D1354B5A694D
:10549000354B13407A68926811027A68D268D20656
:1054A00011437A685268013A12010A432D491343A5
:1054B0004B612DE03B68012B15D12A4B5A692B4BD0
:1054C00013407A68926811027A6812695208013AA8
:1054D000520511437A685268013A12010A43214980
:1054E00013434B6114E01F4B5A69214B13407A68F8
:1054F000926811027A6852695208013A52061143C1
:105500007A685268013A12010A43164913434B6103
:10551000144B1B68134A43F080531360FCF774FF6D
:10552000B86009E0FCF770FF0246BB68D31A022B93
:1055300002D90323FB7305E00A4B1B6803F00053F9
:10554000002BEFD0FB7B002B06D1064B5A697B6802
:105550009B69044913434B61FB7B18461037BD46DA
:1055600080BD00BF001002400F80FF070F809FFF2B
:105570000F80FFF980B588B000AF78607B681B684A
:105580005B68FB617B681B689B68BB61BB6903F060
:105590004003002B0ED1BB6903F00103002B09D09F
:1055A000FB6903F04003002B04D07B68DB6C786858
:1055B0009847CEE0BB6903F00203002B09D0FB69DA
:1055C00003F08003002B04D07B681B6D786898473C
:1055D000BFE0BB6903F02003002B0AD1BB6903F0D5
:1055E0004003002B05D1BB6903F48073002B00F04E
:1055F000B080FB6903F02003002B00F0AA80BB6998
:1056000003F04003002B23D07B6893F85D30DBB2BE
:10561000032B11D07B681B6E43F004027B681A6673
:1056200000237B617B681B68DB687B617B681B6890
:105630009B687B617B690BE000233B617B681B6897
:10564000DB683B617B681B689B683B613B6980E072
:10565000BB6903F02003002B14D07B681B6E43F062
:1056600001027B681A660023FB607B681B689B68ED
:10567000FB607B681B681A687B681B6822F040022D
:105680001A60FB68BB6903F48073002B0CD07B6845
:105690001B6E43F008027B681A660023BB607B68C0
:1056A0001B689B68BB60BB687B681B6E002B4FD080
:1056B0007B681B685A687B681B6822F0E0025A60AE
:1056C0007B68012283F85D20FB6903F00203002B55
:1056D00004D1FB6903F00103002B34D07B681B6805
:1056E0005A687B681B6822F003025A607B689B6DD6
:1056F000002B11D07B689B6D174A9A637B689B6D6A
:105700001846FDF7CEFF0346002B05D07B681B6EC5
:1057100043F040027B681A667B685B6D002B16D0F5
:105720007B685B6D0C4A9A637B685B6D1846FDF77E
:10573000B8FF0346002B0AD07B681B6E43F0400283
:105740007B681A6603E0786800F008F800E000BFA4
:1057500000BF2037BD4680BD7157000880B483B0BC
:1057600000AF786000BF0C37BD465DF8047B704722
:1057700080B584B000AF78607B689B6AFB60FB6893
:105780000022A3F84620FB680022DA87F868FFF7BA
:10579000E5FF00BF1037BD4680BD80B582B000AFC9
:1057A00078607B68002B01D1012349E07B6893F886
:1057B0003D30DBB2002B06D17B68002283F83C2011
:1057C0007868FCF7A1F87B68022283F83D207B68AB
:1057D0001A687B6804331946104600F0A3FA7B6808
:1057E000012283F848207B68012283F83E207B68F1
:1057F000012283F83F207B68012283F840207B68E8
:10580000012283F841207B68012283F842207B68D3
:10581000012283F843207B68012283F844207B68BF
:10582000012283F845207B68012283F846207B68AB
:10583000012283F847207B68012283F83D20002362
:1058400018460837BD4680BD80B485B000AF78608B
:105850007B6893F83D30DBB2012B01D001234FE090
:105860007B68022283F83D207B681B68DA687B68CE
:105870001B6842F00102DA607B681B68234A93428E
:105880001DD07B681B68B3F1804F18D07B681B6804
:105890001F4A934213D07B681B681E4A93420ED066
:1058A0007B681B681C4A934209D07B681B681B4AB3
:1058B000934204D07B681B68194A934215D17B68D8
:1058C0001B689A68174B1340FB60FB68062B15D0CA
:1058D000FB68B3F5803F11D07B681B681A687B6852
:1058E0001B6842F001021A6008E07B681B681A68B6
:1058F0007B681B6842F001021A6000E000BF0023D1
:1059000018461437BD465DF8047B7047002C0140F3
:105910000004004000080040000C0040003401403A
:10592000004001400700010080B584B000AF7860FE
:105930007B681B68DB68FB607B681B681B69BB605E
:10594000BB6803F00203002B20D0FB6803F00203C6
:10595000002B1BD07B681B686FF002021A617B680A
:1059600001221A777B681B689B6903F00303002BF5
:1059700003D0786800F0B7F905E0786800F0A9F97D
:10598000786800F0BAF97B6800221A77BB6803F0E8
:105990000403002B20D0FB6803F00403002B1BD072
:1059A0007B681B686FF004021A617B6802221A7719
:1059B0007B681B689B6903F44073002B03D07868F5
:1059C00000F091F905E0786800F083F9786800F05C
:1059D00094F97B6800221A77BB6803F00803002B58
:1059E00020D0FB6803F00803002B1BD07B681B68EA
:1059F0006FF008021A617B6804221A777B681B68C3
:105A0000DB6903F00303002B03D0786800F06BF927
:105A100005E0786800F05DF9786800F06EF97B6861
:105A200000221A77BB6803F01003002B20D0FB681C
:105A300003F01003002B1BD07B681B686FF0100273
:105A40001A617B6808221A777B681B68DB6903F49C
:105A50004073002B03D0786800F045F905E07868C2
:105A600000F037F9786800F048F97B6800221A776F
:105A7000BB6803F00103002B0CD0FB6803F00103AB
:105A8000002B07D07B681B686FF001021A617868F1
:105A900000F015F9BB6803F08003002B0CD0FB6805
:105AA00003F08003002B07D07B681B686FF0800237
:105AB0001A61786800F0FCFABB6803F48073002B6D
:105AC0000CD0FB6803F08003002B07D07B681B68B9
:105AD0006FF480721A61786800F0F4FABB6803F022
