:020000040800F2
:1000000000800120390E0008691A0008771A0008DC
:100010007D1A0008831A0008891A000800000000F1
:100020000000000000000000000000008F1A00081F
:100030009D1A000800000000AB1A0008B91A000859
:10004000890E0008890E0008890E0008890E000834
:10005000890E0008890E0008890E0008011B00089F
:10006000890E0008890E0008890E0008C51A0008CC
:10007000D91A0008890E0008890E0008890E0008A8
:10008000890E0008890E0008890E0008890E0008F4
:10009000890E0008890E0008890E0008890E0008E4
:1000A000890E0008890E0008890E0008890E0008D4
:1000B000ED1A0008890E0008890E0008890E000854
:1000C000890E0008890E0008890E0008890E0008B4
:1000D000890E0008890E0008890E0008890E0008A4
:1000E0000F1B0008890E0008890E0008890E000801
:1000F000890E0008890E0008890E00080000000023
:10010000890E0008890E0008890E0008891600086B
:10011000890E0008890E0008890E0008890E000863
:10012000890E0008890E0008890E0008890E000853
:10013000890E0008890E0008890E0008890E000843
:10014000890E0008890E0008890E0008890E000833
:10015000890E0008890E0008890E0008890E000823
:10016000890E0008890E0008890E0008890E000813
:10017000890E0008890E000800000000890E0008A2
:10018000890E0008890E0008890E0008890E0008F3
:10019000890E0008890E0008000000000000000021
:1001A0000000000000000000890E0008890E000811
:0C01B000890E0008890E0008890E000866
:1001C00010B5054C237833B9044B13B10448AFF391
:1001D00000800123237010BD8C000020000000006F
:1001E000C8C3000808B5034B1BB103490348AFF36C
:1001F000008008BD0000000090000020C8C3000877
:10020000034613F8012B002AFBD1181A0138704756
:1002100001F0FF01102A2BDB10F0070F08D010F8B7
:10022000013B013A8B422DD010F0070F42B3F6D1BB
:10023000F0B441EA012141EA014122F007047FF0D4
:1002400000070023F0E80256083C85EA010586EA2B
:10025000010685FA47F5A3FA87F586FA47F6A5FA67
:1002600087F68EB9EED1F0BC01F0FF0102F0070273
:1002700032B110F8013B013A83EA010313B1F8D11E
:100280000020704701387047002D06BF35460338FF
:10029000073815F0010F07D1013015F4807F02BF38
:1002A000013015F4C03F0130F0BC0138704700BF89
:1002B00081F0004102E000BF83F0004330B54FEA17
:1002C00041044FEA430594EA050F08BF90EA020F84
:1002D0001FBF54EA000C55EA020C7FEA645C7FEA17
:1002E000655C00F0E2804FEA5454D4EB5555B8BF3A
:1002F0006D420CDD2C4480EA020281EA030382EAAB
:10030000000083EA010180EA020281EA0303362D3C
:1003100088BF30BD11F0004F4FEA01314FF4801C0F
:100320004CEA113102D0404261EB410113F0004F21
:100330004FEA03334CEA133302D0524263EB4303D8
:1003400094EA050F00F0A780A4F10104D5F1200E76
:100350000DDB02FA0EFC22FA05F2801841F10001D1
:1003600003FA0EF2801843FA05F359410EE0A5F1A5
:1003700020050EF1200E012A03FA0EFC28BF4CF0D6
:10038000020C43FA05F3C01851EBE37101F000458C
:1003900007D54FF0000EDCF1000C7EEB00006EEB99
:1003A0000101B1F5801F1BD3B1F5001F0CD3490823
:1003B0005FEA30004FEA3C0C04F101044FEA44527A
:1003C00012F5800F80F09A80BCF1004F08BF5FEA01
:1003D000500C50F1000041EB045141EA050130BDE1
:1003E0005FEA4C0C404141EB0101013C28BFB1F5F3
:1003F000801FE9D291F0000F04BF01460020B1FA3E
:1004000081F308BF2033A3F10B03B3F120020CDA10
:100410000C3208DD02F1140CC2F10C0201FA0CF0EE
:1004200021FA02F10CE002F11402D8BFC2F1200C53
:1004300001FA02F120FA0CFCDCBF41EA0C01904009
:10044000E41AA2BF01EB0451294330BD6FEA040452
:100450001F3C1CDA0C340EDC04F11404C4F120023D
:1004600020FA04F001FA02F340EA030021FA04F34F
:1004700045EA030130BDC4F10C04C4F1200220FAA6
:1004800002F001FA04F340EA0300294630BD21FAE4
:1004900004F0294630BD94F0000F83F4801306BFAA
:1004A00081F480110134013D4EE77FEA645C18BF9E
:1004B0007FEA655C29D094EA050F08BF90EA020F35
:1004C00005D054EA000C04BF1946104630BD91EA2D
:1004D000030F1EBF0021002030BD5FEA545C05D130
:1004E0004000494128BF41F0004130BD14F580046F
:1004F0003CBF01F5801130BD01F0004545F0FE41E3
:1005000041F470014FF0000030BD7FEA645C1ABF17
:10051000194610467FEA655C1CBF0B46024650EA4E
:10052000013406BF52EA033591EA030F41F400217A
:1005300030BD00BF90F0000F04BF0021704730B500
:100540004FF4806404F132044FF000054FF00001D5
:1005500050E700BF90F0000F04BF0021704730B596
:100560004FF4806404F1320410F0004548BF40426B
:100570004FF000013EE700BF42004FEAE2014FEAC0
:1005800031014FEA02701FBF12F07F4393F07F4F9B
:1005900081F06051704732F07F4208BF704793F09E
:1005A0007F4F04BF41F40021704730B54FF46074B1
:1005B00001F0004521F000411CE700BF50EA0102B4
:1005C00008BF704730B54FF000050AE050EA01025D
:1005D00008BF704730B511F0004502D5404261EBCD
:1005E00041014FF4806404F132045FEA915C3FF40E
:1005F000D8AE4FF003025FEADC0C18BF03325FEAAB
:10060000DC0C18BF033202EBDC02C2F1200300FA5B
:1006100003FC20FA02F001FA03FE40EA0E0021FA80
:1006200002F11444BDE600BF70B54FF0FF0C4CF46E
:10063000E06C1CEA11541DBF1CEA135594EA0C0F20
:1006400095EA0C0F00F0DEF82C4481EA030621EA5B
:100650004C5123EA4C5350EA013518BF52EA033596
:1006600041F4801143F4801338D0A0FB02CE4FF048
:100670000005E1FB02E506F00042E0FB03E54FF078
:100680000006E1FB03569CF0000F18BF4EF0010E70
:10069000A4F1FF04B6F5007F64F5407404D25FEA6C
:1006A0004E0E6D4146EB060642EAC62141EA55511F
:1006B0004FEAC52040EA5E504FEACE2EB4F1FD0C61
:1006C00088BFBCF5E06F1ED8BEF1004F08BF5FEADF
:1006D000500E50F1000041EB045170BD06F0004691
:1006E00046EA010140EA020081EA0301B4EB5C043E
:1006F000C2BFD4EB0C0541EA045170BD41F4801136
:100700004FF0000E013C00F3AB8014F1360FDEBF5A
:10071000002001F0004170BDC4F10004203C35DA36
:100720000C341BDC04F11404C4F1200500FA05F3B9
:1007300020FA04F001FA05F240EA020001F000425A
:1007400021F0004110EBD37021FA04F642EB0601D0
:100750005EEA430E08BF20EAD37070BDC4F10C04FA
:10076000C4F1200500FA04F320FA05F001FA04F2BE
:1007700040EA020001F0004110EBD37041F10001AA
:100780005EEA430E08BF20EAD37070BDC4F12005B5
:1007900000FA05F24EEA020E20FA04F301FA05F21D
:1007A00043EA020321FA04F001F0004121FA04F2C5
:1007B00020EA020000EBD3705EEA430E08BF20EA95
:1007C000D37070BD94F0000F0FD101F000464000CF
:1007D00041EB010111F4801F08BF013CF7D041EA51
:1007E000060195F0000F18BF704703F00046520055
:1007F00043EB030313F4801F08BF013DF7D043EA26
:100800000603704794EA0C0F0CEA135518BF95EADB
:100810000C0F0CD050EA410618BF52EA4306D1D162
:1008200081EA030101F000414FF0000070BD50EA81
:10083000410606BF1046194652EA430619D094EA0B
:100840000C0F02D150EA013613D195EA0C0F05D1F5
:1008500052EA03361CBF104619460AD181EA030149
:1008600001F0004141F0FE4141F470014FF0000001
:1008700070BD41F0FE4141F4780170BD70B54FF09C
:10088000FF0C4CF4E06C1CEA11541DBF1CEA13551C
:1008900094EA0C0F95EA0C0F00F0A7F8A4EB0504FE
:1008A00081EA030E52EA03354FEA013100F08880F5
:1008B0004FEA03334FF0805545EA131343EA1263BE
:1008C0004FEA022245EA111545EA10654FEA002673
:1008D0000EF000419D4208BF964244F1FD0404F52C
:1008E000407402D25B084FEA3202B61A65EB030588
:1008F0005B084FEA32024FF480104FF4002CB6EB45
:10090000020E75EB030E22BFB61A754640EA0C00C4
:100910005B084FEA3202B6EB020E75EB030E22BF04
:10092000B61A754640EA5C005B084FEA3202B6EB45
:10093000020E75EB030E22BFB61A754640EA9C0004
:100940005B084FEA3202B6EB020E75EB030E22BFD4
:10095000B61A754640EADC0055EA060E18D04FEA92
:10096000051545EA16754FEA06164FEAC30343EA32
:1009700052734FEAC2025FEA1C1CC0D111F4801FFF
:100980000BD141EA00014FF000004FF0004CB6E7F8
:1009900011F4801F04BF01430020B4F1FD0C88BF97
:1009A000BCF5E06F3FF6AFAEB5EB030C04BFB6EBA2
:1009B000020C5FEA500C50F1000041EB045170BD95
:1009C0000EF0004E4EEA113114EB5C04C2BFD4EBC2
:1009D0000C0541EA045170BD41F480114FF0000E46
:1009E000013C90E645EA060E8DE60CEA135594EAC2
:1009F0000C0F08BF95EA0C0F3FF43BAF94EA0C0FC5
:100A00000AD150EA01347FF434AF95EA0C0F7FF439
:100A100025AF104619462CE795EA0C0F06D152EA8D
:100A200003353FF4FDAE1046194622E750EA410671
:100A300018BF52EA43067FF4C5AE50EA41047FF482
:100A40000DAF52EA43057FF4EBAE12E74FEA4102E5
:100A500012F5001215D211D56FF47873B3EB625210
:100A600012D94FEAC12343F0004343EA505311F037
:100A7000004F23FA02F018BF404270474FF00000C9
:100A8000704750EA013005D111F0004008BF6FF007
:100A9000004070474FF00000704700BF4FEA41022E
:100AA000B2F1E04324BFB3F5001CDCF1FE5C0DD9CC
:100AB00001F0004C4FEAC0024CEA5070B2F1004F16
:100AC00040EB830008BF20F00100704711F0804F19
:100AD00021D113F13872BCBF01F00040704741F4DE
:100AE00080114FEA5252C2F11802C2F1200C10FAE2
:100AF0000CF320FA02F018BF40F001004FEAC123C6
:100B00004FEAD32303FA0CFC40EA0C0023FA02F369
:100B10004FEA4303CCE77FEA625307D150EA01333F
:100B20001EBF4FF0FE4040F44000704701F000400F
:100B300040F0FE4040F40000704700BF53B94AB98E
:100B4000002908BF00281CBF4FF0FF314FF0FF30D5
:100B500000F070B9ADF1080C6DE904CE00F006F8B4
:100B6000DDF804E0DDE9022304B070472DE9F04729
:100B7000089E0D4604460F46002B4AD18A429446F1
:100B800065D9B2FA82F343B102FA03FCC3F1200241
:100B90009F4020FA02F217439C404FEA1C4E1FFA76
:100BA0008CF5B7FBFEF1220C0EFB117742EA0742EF
:100BB00001FB05F090420AD91CEB020201F1FF375C
:100BC00080F01C81904240F2198102396244121A6D
:100BD000A4B2B2FBFEF00EFB102244EA024400FB7A
:100BE00005F5A5420AD91CEB040400F1FF3280F0A0
:100BF0000781A54240F204816444023840EA014082
:100C0000641B00211EB1DC400023C6E90043BDE89F
:100C1000F0878B4208D9002E00F0ED800021C6E954
:100C200000050846BDE8F087B3FA83F1002949D1F1
:100C3000AB4202D3824200F2F880841A65EB0302D1
:100C400001201746002EE2D0C6E90047DFE702B9CF
:100C5000FFDEB2FA82F3002B40F090808A1A4FEA4E
:100C60001C471FFA8CFE0121B2FBF7F507FB15208C
:100C7000220C42EA00420EFB05F0904208D91CEB20
:100C8000020205F1FF3802D2904200F2CB804546C5
:100C9000121AA4B2B2FBF7F007FB102244EA024496
:100CA0000EFB00FEA64508D91CEB040400F1FF3240
:100CB00002D2A64500F2BB801046A4EB0E0440EA27
:100CC00005409FE7C1F120078B4022FA07FC4CEA60
:100CD000030C05FA01F420FA07F3FD404FEA1C4922
:100CE0002343B5FBF9F81FFA8CFE09FB18551C0CC1
:100CF00044EA054408FB0EF5A54202FA01F200FAA7
:100D000001F00BD91CEB040408F1FF3A80F0888055
:100D1000A54240F28580A8F102086444641B9DB29C
:100D2000B4FBF9F309FB134445EA044403FB0EFE4C
:100D3000A64508D91CEB040403F1FF356CD2A64587
:100D40006AD9023B644443EA0843A3FB0295A4EB3F
:100D50000E04AC42C846AE4656D353D056B1B0EBA3
:100D6000080264EB0E0404FA07F7CA40CC401743AC
:100D7000C6E9007418460021BDE8F087C3F12001E0
:100D800002FA03FC20FA01F225FA01F19D402A4300
:100D90004FEA1C471FFA8CFEB1FBF7F007FB10155A
:100DA000110C41EA054100FB0EF58D4204FA03F4F3
:100DB00008D91CEB010100F1FF382FD28D422DD94B
:100DC00002386144491B92B2B1FBF7F507FB1511DC
:100DD00042EA014205FB0EF1914208D91CEB0202E6
:100DE00005F1FF3816D2914214D9023D6244521ADD
:100DF00045EA004138E73146304608E73946E6E63D
:100E00001046FBE64845A9D2B9EB020865EB0C0E8B
:100E1000013BA3E74546EAE72B4694E74046D1E786
:100E2000D0467BE7023D624432E708460AE7644465
:100E3000023842E7704700BFDFF834D000F034FFDB
:100E4000002103E00B4B5B58435004310A480B4B25
:100E500042189A42F6D30A4A02E0002342F8043BC1
:100E6000084B9A42F9D30AF081FB00F00FF8FEE735
:100E700000800120FCCB0008000000208C00002036
:100E80008C0000205C640020FEE7000080B500AF0D
:100E900002F0A4FF00F058FA002002F041FD012109
:100EA000002002F06DFD00F07DFB00F087FA00F0FD
:100EB0002BFB00F0C5FA0021214803F05AF9214824
:100EC00008F062FC204B214A1A601F4B4FF4E132BC
:100ED0005A601D4B00229A601B4B0022DA601A4BAD
:100EE00000221A61184B0C225A61174B00229A619A
:100EF000154B0022DA61144B00221A62124B0022B9
:100F00009A621149002002F091FD02F04BFF41F27C
:100F100088331A460E490F4803F0AAFC0346002BFB
:100F200002D00D480AF008F941F288331946084802
:100F300000F086F909480AF0FFF800F011F8FEE722
:100F4000A800002008020020506200200038014064
:100F5000580600201C010020E0C30008F8C3000868
:100F600090B589B002AF00F02FF93F4B7B613F4B4A
:100F70003B610323FB73FB7B1A463969786902F0F6
:100F8000E1FA0346002B28D10421394802F01CFB6A
:100F90000346002B1BD1364B1B781946344B5B782C
:100FA0001A46334B9B781846314BDB780093034647
:100FB00030480AF053F8502300932F4B01220021B0
:100FC000002002F025FB0346002B12D00BE02B483B
:100FD0000AF0B2F84FF0FF3341E029480AF0ACF8CC
:100FE0004FF0FF333BE027480AF0A6F84FF0FF33FD
:100FF00035E025480AF0A0F802E02E200AF040F87B
:1010000007F10802BB1D009304234FF47A710020FE
:1010100002F02EFB0346002BEFD13B7A19467B7A78
:101020001846BB7A1C46FB7AFA8801920093234645
:10103000024616480AF012F815480AF07DF800F04A
:101040002DF814480AF078F8002002F059FB034606
:10105000002BCED010480AF06FF84FF0FF3318463F
:101060001C37BD4690BD00BF24C4000830C4000832
:101070005406002040C40008D4C400087CC4000802
:10108000ACC40008D8C40008F8C4000818C500089B
:101090003CC5000850C5000870C5000880B584B084
:1010A00002AF3B1D42F2107200924FF47A721C495B
:1010B000002002F05FFB0346002B2CD1BB88002BE5
:1010C00027D0184916480AF0DFF90346002B07D04D
:1010D00015480AF031F81249144809F0BFFF1AE028
:1010E00013490F480AF0D0F90346002B07D01148E6
:1010F0000AF022F80A490D4809F0B0FF0BE00E484B
:101100000AF01AF80649094809F0A8FF00F016F895
:1011100001E00123FB71002318460837BD4680BD5E
:101120007854002090C5000898C50008ACC5000898
:10113000BCC50008C0C50008D4C5000890B587B07C
:1011400002AF1D4BBB601D4B7B60B9681C480AF0A9
:1011500033FA79681A480AF007F91948FFF750F886
:1011600003469AB2BB1C42F2107100911449002050
:1011700002F0DEFA0346FB73FB7B002B09D07B8871
:101180001C460F48FFF73CF803469C4201D0012360
:10119000FB730B490B4809F061FF0948FFF730F872
:1011A00003461A46002106480AF0D6F8FB7B18468B
:1011B0001437BD4690BD00BF14C7000854C70008CF
:1011C0005402002068C70008B0B586B004AF02F032
:1011D0008DF90346002B24D1154809F0ADFF3B469D
:1011E0000621184602F0D0F90346002B13D13B78B4
:1011F00018467B781C46BB781D46FB783A7979798E
:101200000291019200932B4622460146094809F0BB
:1012100025FF002307E0084809F08EFF4FF0FF3359
:1012200001E04FF0FF3318460837BD46B0BD00BFA0
:1012300090C70008A8C70008E8C700080000000021
:1012400080B586B000AF7860396000237B616BE0C9
:101250007B699B007A6813441B683B613B691B12E6
:101260003B614FF4FA63FB814FF62423BB81B7F94E
:101270000E20B7F90C30D31A1846FFF76BF9024667
:101280000B462FA1D1E90001FFF7F8FA02460B4601
:1012900010461946FFF702FC0346BB60B7F90C3055
:1012A0003A699A4202DCB7F90C303B61B7F90E306B
:1012B0003A699A4202DBB7F90E303B61B7F90C305C
:1012C000002B04DAB7F90C303A69D31A3B613B6959
:1012D00007EE903AB8EEE77AD7ED027A67EE277A12
:1012E00017EE900AFFF748F902460B4643EC102B25
:1012F0000BF022F853EC102B10461946FFF7A6FB13
:1013000003463B613B69002B09DB3B69FF2B06DC95
:101310007B699B007A6813443A691A6001E000F027
:10132000CEF97B6901337B617B693A689A428FD839
:1013300000BF00BF1837BD4680BD00BFAFF30080BF
:101340000000000000E06F4080B596B000AF1023B1
:101350003B600123BB6160233B620023FB610223EE
:10136000BB620123FB6201233B6328237B630223CF
:101370003B640723BB630423FB633B46184604F02E
:10138000C3FE0346002B00D0FEE70F237B6403233C
:10139000BB640023FB6400233B6500237B6507F1EE
:1013A00044030421184605F0C9FA0346002B00D077
:1013B000FEE700BF5837BD4680BD000080B58AB04B
:1013C00000AF3B4628220021184609F0C5FF1A4B02
:1013D0001A4A1A60184802F0AAFE0346002B01D0F0
:1013E00000F06DF900237B600A23BB604FF40043DB
:1013F0003B600023FB6000233B6100237B613B4695
:10140000002219460C4802F007FF0346002B01D0CA
:1014100000F055F90023BB603B46102219460648F0
:1014200002F0FAFE0346002B01D000F048F900BF9D
:101430002837BD4680BD00BFA800002000740040D2
:1014400080B500AF2B4B2C4A1A602A4B00225A6001
:10145000284B01221A72274B01225A72254B002277
:10146000DA61244B64221A62224B01225A6221481B
:1014700003F0DEF80346002B01D000F020F91F4BEB
:101480001F4A1A601D4B01221A711C4B00229A60E0
:101490001A4B3222DA60194B00221A61174B0022D4
:1014A0005A61164B00229A61144B0022DA61134BE9
:1014B00004221A62114B00225A62104B01229A62D6
:1014C0000E4B0022DA620D4B00221A630B4802F029
:1014D000EFFF0346002B01D000F0F1F8012209498B
:1014E000044803F07FF90346002B01D000F0E7F831
:1014F00000BF80BD1C010020006101407001002080
:10150000406001400400020080B588B000AF07F1E0
:10151000100300221A605A609A60DA603B1D0022B4
:101520001A605A609A601E4B4FF080421A601C4B42
:1015300000225A601A4B00229A60194B41F28832FD
:10154000DA60174B00221A61154B00229A61144889
:1015500008F0C3F80346002B01D000F0B0F84FF4B8
:1015600080533B6107F1100319460D4808F07EFADD
:101570000346002B01D000F0A2F820237B6000235B
:10158000FB603B1D1946064808F096FC0346002BFD
:1015900001D000F094F800BF2037BD4680BD00BFE9
:1015A0000802002080B582B000AF164B9B6C154A34
:1015B00043F004039364134B9B6C03F004037B60C0
:1015C0007B68104B9B6C0F4A43F0010393640D4BF7
:1015D0009B6C03F001033B603B68002200210B2061
:1015E00002F06FFD0B2002F088FD002200210C208C
:1015F00002F067FD0C2002F080FD00BF0837BD46F9
:1016000080BD00BF0010024080B582B000AF78609E
:10161000391D4FF6FF730122034808F04DFD7B682A
:1016200018460837BD4680BD5062002080B582B0A4
:1016300000AF0023FB7100BFF91D49F640430122B2
:10164000054808F0C8FD0346002BF5D1FB79184684
:101650000837BD4680BD00BF5062002080B582B013
:1016600000AF0346FB80FB88022B05D0B3F5005F7B
:1016700005D100F013F803E001F028FF00E000BFFF
:1016800000BF0837BD4680BD80B500AF024807F0F7
:10169000ADF900BF80BD00BF8858002080B400AF06
:1016A00000BFBD465DF8047B704780B483B000AFD7
:1016B000786000BF0C37BD465DF8047B704780B48E
:1016C00000AF72B600BFFEE780B483B000AF0F4B2F
:1016D0001B6E0E4A43F0010313660C4B1B6E03F0A6
:1016E00001037B607B68094B9B6D084A43F0805384
:1016F0009365064B9B6D03F080533B603B6800BFD6
:101700000C37BD465DF8047B704700BF00100240F7
:1017100080B58AB000AF786007F1140300221A6028
:101720005A609A60DA601A617B681B682A4A9342A1
:101730004ED12A4B9B6D294A43F000539365274BAA
:101740009B6D03F000533B613B69244BDB6C234AE8
:1017500043F00103D364214BDB6C03F00103FB6016
:10176000FB6830237B610323BB610023FB6107F12E
:10177000140319464FF0904003F0BCFC184B194A73
:101780001A60174B06225A60154B10229A60144BB0
:101790000022DA60124B80221A61114B00225A613A
:1017A0000F4B4FF400629A610D4B2022DA610C4B13
:1017B00000221A620A4803F0CBF90346002B01D03D
:1017C000FFF77DFF7B68064A9A60054A7B68936253
:1017D00000BF2837BD4680BD0074004000100240A5
:1017E000BC0000200800024080B5AEB000AF7860B9
:1017F00007F1A40300221A605A609A60DA601A6145
:1018000007F1100394220021184609F0A5FD454B6D
:101810001B68002B4BD14FF480333B610023C7F88A
:10182000943007F11003184605F046FB0346002BE1
:1018300001D0FFF744FF3C4B1B6801333A4A136069
:10184000394B1B68012B0BD1384B1B6E374A43F0C9
:1018500080731366354B1B6E03F08073FB60FB686F
:10186000324BDB6C314A43F01003D3642F4BDB6CFB
:1018700003F01003BB60BB684FF42073C7F8A430BB
:101880000223C7F8A8300023C7F8AC300023C7F8FC
:10189000B0300623C7F8B43007F1A4031946244832
:1018A00003F028FC1F4B1B6801331E4A13607B6842
:1018B0001B68204A934230D11F4B204A1A601E4BAE
:1018C00056225A601C4B00229A601B4B0022DA60A1
:1018D000194B80221A61184B4FF400725A61164B53
:1018E0004FF400629A61144B0022DA61124B00221D
:1018F0001A62114803F02CF90346002B01D0FFF7C0
:10190000DEFE7B680C4ADA620B4A7B6893627B6876
:10191000094A9A62084A7B68936200BFB837BD469D
:1019200080BD00BF7C580020785800200010024085
:101930000010004800610140A80100201C00024086
:1019400080B5AEB000AF786007F1A40300221A6042
:101950005A609A60DA601A6107F11003942200213C
:10196000184609F0F9FC2A4B1B68002B4BD14FF4A9
:1019700080333B610023C7F8943007F11003184609
:1019800005F09AFA0346002B01D0FFF798FE214B91
:101990001B6801331F4A13601E4B1B68012B0BD1C0
:1019A0001D4B1B6E1C4A43F0807313661A4B1B6E53
:1019B00003F08073FB60FB68174BDB6C164A43F047
:1019C0001003D364144BDB6C03F01003BB60BB68E3
:1019D0004FF42073C7F8A4300223C7F8A8300023BF
:1019E000C7F8AC300023C7F8B0300623C7F8B430CE
:1019F00007F1A4031946094803F07CFB044B1B685C
:101A00000133034A136000BFB837BD4680BD00BF35
:101A10007C58002078580020001002400010004838
:101A200080B584B000AF78607B681B68B3F1804FED
:101A300013D10C4B9B6D0B4A43F001039365094B8B
:101A40009B6D03F00103FB60FB68002200211C205A
:101A500002F037FB1C2002F050FB00BF1037BD46E0
:101A600080BD00BF0010024080B400AF00BFBD4683
:101A70005DF8047B704780B400AFFEE780B400AF30
:101A8000FEE780B400AFFEE780B400AFFEE780B4AD
:101A900000AF00BFBD465DF8047B704780B400AF67
:101AA00000BFBD465DF8047B704780B400AF00BF47
:101AB000BD465DF8047B704780B500AF02F0E2F9E7
:101AC00000BF80BD80B500AF024803F0C3F900BF7E
:101AD00080BD00BFBC00002080B500AF024803F00D
:101AE000B9F900BF80BD00BFA801002080B500AFDC
:101AF000024807F0B9FE00BF80BD00BF0802002009
:101B000080B500AF022003F0B7FC00BF80BD80B5F8
:101B100000AF4FF4005003F0AFFC00BF80BD80B4B5
:101B200000AF01231846BD465DF8047B704780B5C1
:101B300082B000AF7860396009F012FD03461622CA
:101B40001A604FF0FF3318460837BD4680BD80B598
:101B500082B000AF78604FF0FF317868FFF7E7FFA1
:101B6000FEE780B586B000AFF860B9607A60002308
:101B70007B610AE0FFF75AFD0146BB685A1CBA6058
:101B8000CAB21A707B6901337B617A697B689A42B9
:101B9000F0DB7B6818461837BD4680BD80B586B03F
:101BA00000AFF860B9607A6000237B6109E0BB6830
:101BB0005A1CBA601B781846FFF726FD7B69013373
:101BC0007B617A697B689A42F1DB7B68184618373B
:101BD000BD4680BD80B483B000AF78604FF0FF3366
:101BE00018460C37BD465DF8047B704780B483B05F
:101BF00000AF786039603B684FF400525A600023B0
:101C000018460C37BD465DF8047B704780B483B03E
:101C100000AF7860012318460C37BD465DF8047BA1
:101C2000704780B485B000AFF860B9607A60002377
:101C300018461437BD465DF8047B704780B586B002
:101C400000AF7860144A154BD31A7B617B693B6106
:101C5000134B1B68002B02D1114B124A1A60104B18
:101C60001A687B6813443A699A4207D209F078FCF3
:101C700003460C221A604FF0FF3309E0084B1B6843
:101C8000FB60074B1A687B681344054A1360FB68C6
:101C900018461837BD4680BD00800120007F000037
:101CA000805800206064002080B400AF174BD3F848
:101CB0008830164A43F47003C2F88830144B1B680E
:101CC000134A43F001031360114B00229A60104B3A
:101CD0001B680F4A23F0A85323F4102313600C4B06
:101CE0004FF48052DA600A4B1B68094A23F48023C0
:101CF0001360074B00229A61044B4FF000629A6018
:101D000000BFBD465DF8047B704700BF00ED00E0FA
:101D10000010024080B483B000AF0346FB71FB7932
:101D20002F2B06D9FB79392B03D8FB79303BDBB25B
:101D300014E0FB79602B06D9FB79662B03D8FB797D
:101D4000573BDBB20AE0FB79402B06D9FB79462BE7
:101D500003D8FB79373BDBB200E0002318460C3791
:101D6000BD465DF8047B704780B584B000AF7860F5
:101D700039600023FB730023BB7312E0FB7B1B0164
:101D8000FB737B681B781846FFF7C4FF03461A46AF
:101D9000FB7B1344FB737B6801337B60BB7B0133AC
:101DA000BB737B681B782F2B03D97B681B78392B7F
:101DB0000FD97B681B78602B03D97B681B78662B57
:101DC00007D97B681B78402B06D97B681B78462B8C
:101DD00002D8BB7B012BD1D93B68002B02D03B68DA
:101DE000BA7B1A70FB7B18461037BD4680BD80B4A5
:101DF00085B000AF786039600023FB730023BB73AC
:101E00000023BB607B681B782D2B19D10123FB734A
:101E10007B6801337B60BB7B0133BB7310E0BA6826
:101E200013469B0013445B001A467B681B78303BCB
:101E30001344BB607B6801337B60BB7B0133BB73A6
:101E40007B681B782F2B03D97B681B78392BE6D94D
:101E50003B68002B02D03B68BA7B1A70FB7B002BDF
:101E600002D0BB685B4200E0BB6818461437BD4631
:101E70005DF8047B704790B587B000AFF860B9603B
:101E80007A600023FB75FB68002B27D0BB68002B12
:101E900024D018E00123BB75FB681B783A2B0DD0CA
:101EA000FB7D5A1CFA751A46BB689C1807F116038D
:101EB0001946F868FFF758FF03462370BB7D1A46A2
:101EC000FB681344FB60FB7D7A689A4206D9FB7D70
:101ED000052B03D8FB681B78002BDBD100BF1C3718
:101EE000BD4690BD80B586B000AFF860B9607A603D
:101EF0000023FB75FB68002B27D0BB68002B24D088
:101F00007B68032B21D919E00123BB75FB681B7883
:101F10002E2B0ED007F116031946F868FFF767FF5E
:101F20000146FB7D5A1CFA751A46BB681344CAB2B7
:101F30001A70BB7D1A46FB681344FB60FB7D032BC4
:101F400003D8FB681B78002BDED100BF1837BD46D5
:101F500080BD000080B584B000AF78603960002398
:101F6000FB723B6802334049184609F031FAF860C9
:101F700071E0FB7A5A1CFA72062B66D801A252F85D
:101F800023F000BFA11F0008B51F0008CD1F0008E7
:101F9000E51F0008FD1F0008152000082920000883
:101FA0007B681F22F968184609F0FFF97B68002258
:101FB000DA774BE07B6820331722F968184609F07E
:101FC000F4F97B68002283F837203FE07B683833E0
:101FD0000F22F968184609F0E8F97B68002283F8B7
:101FE000472033E07B6848330F22F968184609F030
:101FF000DCF97B68002283F8572027E07B685833A0
:102000000F22F968184609F0D0F97B68002283F89E
:1020100067201BE00021F868FFF7E9FE03461A4637
:102020007B68C3F8882011E01049F86809F0D0F9FE
:10203000F8607B6868331F22F968184609F0B5F923
:102040007B68002283F8872000E000BF064900205B
:1020500009F0BEF9F860FB68002B8AD100BF00BF11
:102060001037BD4680BD00BF3CC8000840C800080E
:1020700080B584B000AF786039600023FB737B6863
:1020800002335949184609F0A3F9B860A2E0FB7B76
:102090005A1CFA730B2B00F28C8001A252F823F029
:1020A000D1200008E7200008FF20000813210008C5
:1020B000272100083B2100084B2100085B21000874
:1020C0006B2100087B2100088B2100089F2100085C
:1020D0003B682022B968184609F067F93B6800227E
:1020E00083F8202066E03B6821332022B968184637
:1020F00009F05BF93B68002283F841205AE0002197
:10210000B868FFF774FE0346DAB23B6883F84220F2
:1021100050E00021B868FFF76AFE0346DAB23B6878
:1021200083F8432046E00021B868FFF760FE0346CD
:10213000DAB23B6883F847203CE03B68483304222E
:102140001946B868FFF7CEFE34E03B684C330422F2
:102150001946B868FFF7C6FE2CE03B6850330422EE
:102160001946B868FFF7BEFE24E03B6854330422EA
:102170001946B868FFF7B6FE1CE03B6858330422E6
:102180001946B868FFF7AEFE14E00021B868FFF703
:102190002EFE0346DAB23B6883F844200AE00021B1
:1021A000B868FFF724FE0346DAB23B6883F846209E
:1021B00000E000BF0C49002009F00AF9B860BB68D4
:1021C000002B07D0BB68013B1B782C2B02D1FB7B7B
:1021D0000133FB73BB68002B7FF459AF00BF00BF16
:1021E0001037BD4680BD00BF3CC8000890B587B021
:1021F00000AFF860B9607A6000233B610023FB8286
:10220000FB68D3F82031002B56D0FB68D3F824317B
:10221000002B51D0FB68D3F82041B868FDF7F0FFE0
:10222000034699B2FB68D3F8F8381A46B868A04755
:1022300003463B613B69002B3EDDFB68D3F824314C
:10224000FA68D2F8F8284FF4FA617868984703469C
:10225000FB82B7F91630002B27DDB7F91630B3F53E
:10226000FA6F22DCB7F91630B3F5FA6F05D1B7F97A
:1022700016309BB2013B9BB2FB82B7F916307A68ED
:10228000134400221A700F49786809F0FDF80346DC
:10229000002B01D0002310E00B49786809F0F4F816
:1022A0000346002B01D0052307E0B7F9163013F1E0
:1022B000040F01D1062300E0042318461C37BD4655
:1022C00090BD00BF54C8000860C8000880B586B043
:1022D00000AFF860B9607A607B800023FB82002346
:1022E000BB8200237B82B868FDF78AFF03467B82AE
:1022F0007B8A03F00103002B01D002235DE0FB6821
:10230000D3F82031002B57D0FB68D3F82431002BB1
:1023100052D0FB68D3F82031FA68D2F8F828798ACD
:10232000B868984703463B823A8A7B8A9A4243D1EF
:10233000FB68D3F82031FA68D2F8F82879887868F1
:1023400098470346FB82B7F916207B889A4231D121
:10235000FB68D3F82431FA68D2F8F8280021386AEB
:1023600098470346BB82B7F91430002B19DDB7F943
:1023700014303A6A134400221A701249386A09F07C
:1023800083F80346002B01D0002316E00E49386A7B
:1023900009F07AF80346002B01D005230DE0022353
:1023A0000BE0B7F9143013F1040F01D1062304E058
:1023B000022302E0022300E0042318461837BD463A
:1023C00080BD00BF54C8000860C8000890B587B041
:1023D00000AFF860B9607A607B80FB6803F59473A6
:1023E0003B61FB68D3F82031002B00F08780FB684D
:1023F000D3F82431002B00F08180FB68D3F8204112
:10240000B868FDF7FDFE034699B2FB68D3F8F838CB
:102410001A46B868A0470346002B6FDDFB68D3F867
:102420002431FA68D2F8F828002138699847034621
:102430007B613B691B780D2B04D13B6901331B7811
:102440000A2B01D004235AE07B69023B7B613B6984
:1024500002333B617B69072B4AD902E07B69013B70
:102460007B617B69002B06D07B69013B3A69134491
:102470001B78152BF2D07B693A69134400221A703D
:102480007B69083B3A6913441F49184608F0FCFF72
:102490000346002B16D07B699BB2083B9AB2BB6AFD
:1024A0001A80BB6A1B887A889A4202D2BB6A7A88F1
:1024B0001A80BB6A1B881A463969786809F084F863
:1024C00000231CE07B69043B3A69134404220F4952
:1024D000184608F031FF0346002B04D1BB6A0022E6
:1024E0001A8005230BE0BB6A00221A80052306E050
:1024F0007B6913F1040F01D1062300E00423184681
:102500001C37BD4690BD00BF54C8000868C800080D
:1025100080B584B000AF78600223FB737B6847F21C
:102520003052C3F8F8287B68D3F81431002B1BD045
:102530007B68D3F81431002098470346002B13D151
:102540007B6803F594731A460A497868FFF74EFED4
:102550000346FB73FB7B002B06D17B6803F594736A
:1025600019467868FFF7F6FCFB7B18461037BD4626
:1025700080BD00BF70C8000880B485B000AFF860AF
:10258000B9607A603B60FB68002B0BD0BB68002B06
:1025900008D07B68002B05D0BB69002B02D0FB69FB
:1025A000002B01D1022314E0FB68BA68C3F81421A0
:1025B000FB687A68C3F81821FB68BA69C3F8202160
:1025C000FB68FA69C3F82421FB683A68C3F81C2148
:1025D000002318461437BD465DF8047B70470000A1
:1025E00080B586B000AFF860B9607A60FB70FB68B8
:1025F00003F59473BA683249184608F0A5FDFB68E4
:1026000003F59471FB6803F594731A46F868FFF7B5
:10261000EDFD0346FB75FB7D002B4BD1FB6803F5FD
:1026200094737A682749184608F08EFDFB6803F515
:102630009471FB6803F594731A46F868FFF7D6FDAA
:102640000346FB75FB7D002B34D1FB68FA7883F8D9
:102650008C20FB6803F59473FA781B49184608F040
:1026600073FDFB6803F59471FB6803F594731A46D8
:10267000F868FFF7BBFD0346FB75FB7D002B19D106
:10268000FB6803F594731149184608F05DFDFB687B
:1026900003F59471FB6803F594731A46F868FFF725
:1026A000A5FD0346FB75FB7D002B03D1FB680122D2
:1026B00083F8D220FB7D18461837BD4680BD00BF89
:1026C00088C8000890C8000898C80008A0C800087A
:1026D00080B584B000AF78607B6803F594731349CC
:1026E000184608F031FD7B6803F594717B6803F5AB
:1026F00094731A467868FFF779FD0346FB73FB7BFA
:10270000002B0BD17B6893F82A31312B0CBF0123AE
:102710000023DBB21A467B6883F8D2207B6893F8EB
:10272000D23018461037BD4680BD00BFA4C800088F
:1027300080B584B000AF78607B6803F5947310496E
:10274000184608F001FD7B6803F594717B6803F57A
:1027500094731A467868FFF749FD0346FB73FB7BC9
:10276000002B08D17B6803F594727B688D33194682
:102770001046FFF77DFCFB7B18461037BD4680BD39
:10278000ACC8000880B586B000AFF860B9601346E9
:10279000FB71FB6803F594731349184608F0D4FCE9
:1027A000FB6803F59471FB6803F594731A46F868A7
:1027B000FFF71CFD0346FB75FB7D002B0ED1FB686C
:1027C00003F5947302330949184608F001FE386195
:1027D000FB791A46B9683869FFF74DFBFB7D18464F
:1027E0001837BD4680BD00BFFCC8000800C90008FE
:1027F00080B584B000AF786039600023FB737B68DC
:1028000003F594703B689B781A46494908F09CFC94
:102810007B6803F594717B6803F594731A467868B6
:10282000FFF7E4FC0346FB73FB7B002B01D0FB7B33
:1028300079E03B681B78012B16D03B681B78022B94
:1028400012D07B6803F594733A49184608F07CFC73
:102850007B6803F594717B6803F594731A46786876
:10286000FFF7C4FC0346FB73FB7B002B5AD17B684C
:1028700003F594703B681B781A462F4908F064FCF6
:102880007B6803F594717B6803F594731A46786846
:10289000FFF7ACFC0346FB73FB7B002B42D17B684C
:1028A00003F594703B681B7C1A46244908F04CFCE5
:1028B0007B6803F594717B6803F594731A46786816
:1028C000FFF794FC0346FB73FB7B002B2AD17B684C
:1028D00003F594703B68DB881A46194908F034FC0C
:1028E0007B6803F594717B6803F594731A467868E6
:1028F000FFF77CFC0346FB73FB7B002B12D17B684C
:1029000003F594730F49184608F01EFC7B6803F525
:1029100094717B6803F594731A467868FFF766FC38
:102920000346FB73FB7B18461037BD4680BD00BFD6
:1029300064C90008ACC900086CC90008B8C900081F
:1029400074C90008C0C9000880B58AB000AFF8603B
:10295000B9607A60002387F8233001F0A7FA786223
:102960007A6ABB681344FB61FA697B6A9A4201D2B6
:1029700000237B62FB6803F594734FF4FA62002135
:10298000184608F0E9FCFB6803F594735F491846A4
:1029900008F0DAFBFB6803F59471FB6803F59473A8
:1029A0001A46F868FFF722FC034687F8233097F8A9
:1029B0002330002B29D1FB6803F594735449184642
:1029C00008F062FD0346002B21D0FB6803F59473E9
:1029D0005049184608F058FD0346002B17D0FB68F5
:1029E00003F594734C49184608F04EFD0346002B3E
:1029F0000DD1FB6803F594734849184608F044FD6F
:102A00000346002B03D102237CE002237AE0FB681B
:102A100003F594734FF4FA620021184608F09CFC09
:102A2000FB6803F594733E49184608F08DFBFB687C
:102A300003F59471FB6803F594731A46F868FFF781
:102A4000D5FB034687F8233097F82330002B40D17D
:102A5000FB6803F594730C223249184608F093FC86
:102A60000346002B37D0FB6803F5947302332E49DD
:102A7000184608F0ADFC78612B49002008F0A8FC4E
:102A800078617B680833042219467869FFF72AFACF
:102A90002549002008F09CFC786100217869FFF747
:102AA000A6F903469AB27B68DA801F49002008F035
:102AB0008FFC78611C49002008F08AFC78610021B5
:102AC0007869FFF794F903469AB27B689A800023ED
:102AD00018E0022316E0FB68D3F81C316420984705
:102AE00001F0E4F9B861BB68002B3FF443AFBA6969
:102AF000FB699A42FFF43EAFBA697B6A9A42FFF4DF
:102B000039AF032318462837BD4680BD80C800086A
:102B1000C8C90008D0C90008D8C90008E4C900081D
:102B2000F4C90008F8C900083CC8000880B584B0A2
:102B300000AF78600B46FB707B6803F59473FA78FE
:102B40001649184608F000FB7B6803F594717B6812
:102B500003F594731A467868FFF748FB0346FB7346
:102B6000FB7B002B01D0FB7B13E07B6803F59473A8
:102B70000B49184608F0E8FA7B6803F594717B6806
:102B800003F594731A467868FFF730FB0346FB732E
:102B9000FB7B18461037BD4680BD00BF64C90008E6
:102BA00008CA000880B588B002AFF8607A601A469B
:102BB0000B46FB7213463B810223FB747B6A002B9E
:102BC00002D101237B6101E07B6A7B613B89B3F524
:102BD000966F02D34FF496633B813B6A3A891A8021
:102BE000FB6803F59473FA7A2D49184608F0ACFA9D
:102BF000FB6803F59471FB6803F594731A46F86853
:102C0000FFF7F4FA0346FB74FB7C002B3CD1FB6816
:102C100003F594737A692349184608F095FAFB681E
:102C200003F59471FB6803F594731A46F868FFF78F
:102C3000DDFA0346FB74FB7C002B25D1FB6803F512
:102C400094733A891849184608F07EFAFB6803F530
:102C50009471FB6803F594733A89009313467A687C
:102C6000F868FFF733FB0346FB74FB7C002B0BD1AA
:102C7000FB6803F594730D49184608F005FC0346FC
:102C8000002B01D00223FB74FB7C022B02D13B6A98
:102C900000221A80FB7C18461837BD4680BD00BF55
:102CA00064C9000840CA000848CA000854CA00089D
:102CB00080B588B002AFF8607A601A460B46FB72A6
:102CC00013463B810223FB747B6A002B02D1012354
:102CD0007B6101E07B6A7B613B89B3F5966F62D8CB
:102CE000FB6803F59473FA7A3149184608F02CFA18
:102CF000FB6803F59471FB6803F594731A46F86852
:102D0000FFF774FA0346FB74FB7C002B46D1FB688B
:102D100003F594733A892749184608F015FAFB68B9
:102D200003F59471FB6803F594731A46F868FFF78E
:102D30005DFA0346FB74FB7C002B2BD1FB6803F58B
:102D400094737A691C49184608F0FEF9FB6803F58C
:102D50009471FB6803F594731A46F868FFF746FA16
:102D60000346FB74FB7C002B1DD1FB6803F59473B9
:102D70001249184608F0E8F9FB6803F594713A899E
:102D80003B6A009313467A68F868FFF71FFB034617
:102D9000FB7408E03B6A00221A8004E0084B1B68C1
:102DA0000133074A1360FB7C18461837BD4680BDC7
:102DB00064C900085CCA000864CA00086CCA00083C
:102DC0008458002080B58CB000AF7860574B9B6D65
:102DD000564A43F400439365544B9B6D03F4004300
:102DE000BB61BB69514BDB6C504A43F00203D364B7
:102DF0004E4BDB6C03F002037B617B694B4BDB6C5E
:102E00004A4A43F00403D364484BDB6C03F00403E9
:102E10003B613B69454BDB6C444A43F01003D36490
:102E2000424BDB6C03F01003FB60FB6800224FF4A5
:102E300000513F4802F008FB4FF40053FB610123AF
:102E40003B6200237B620023BB6207F11C0319462F
:102E5000374802F04FF90223FB614FF488133B62BD
:102E600000237B620023BB6207F11C031946314833
:102E700002F040F94FF48073FB6101233B620023B1
:102E80007B620023BB620023FB6207F11C0319462F
:102E9000284802F02FF901220121264802F0D4FA35
:102EA0000123FB6101233B6200237B620123BB62A0
:102EB00007F11C0319461F4802F01CF94FF4806308
:102EC000FB6102233B6200237B620123BB6206237A
:102ED000FB6207F11C031946174802F00BF94FF487
:102EE0008053FB6102233B6200237B620123BB62B0
:102EF0000623FB6207F11C0319460F4802F0FAF89B
:102F00004FF40063FB6102233B6201237B620123D8
:102F1000BB620623FB6207F11C031946064802F058
:102F2000E9F800BF3037BD4680BD00BF0010024049
:102F300000040048001000480008004880B584B034
:102F400000AF0346FB800023FB73FB88002B45D1B9
:102F5000274B284A1A602648FFF734FF244B4FF4CA
:102F600082725A60224B00229A60214B4FF47062A9
:102F7000DA601F4B00221A611D4B00225A611C4B64
:102F80004FF400729A611A4B1022DA61184B00223A
:102F90001A62174B00225A62154B00229A62144B98
:102FA0000022DA62124804F09FFC0346002B02D094
:102FB0004FF0FF3318E000220021072001F081F8D4
:102FC000072001F09AF800220021332001F079F85F
:102FD000332001F092F80A2000F0FEF900F00CF81E
:102FE0000346FB7397F90F3018461037BD4680BD76
:102FF00088580020003C004080B584B000AF00F04D
:1030000055FFB8600023FB7300224FF480713048F5
:1030100002F01AFA0A2000F055FF01224FF48071E5
:103020002B4802F011FA4FF4FA7000F04BFF002227
:103030000121274802F008FA0F2000F0CDF920E026
:10304000FB7B3A46D1184FF6FF730122214804F06A
:1030500053FD0346FB71FB7B0233FB7300F026FF3D
:103060000246BB68D31AB3F5803F02D2FB79002B2E
:1030700007D001220121164802F0E6F94FF0FF3394
:1030800021E00221124802F0C7F90346012BD7D0F4
:10309000012201210E4802F0D7F93B78152B0ED101
:1030A0007B78152B0BD1BB780D2B08D1FB780A2B25
:1030B00005D13B793E2B02D17B79202B02D04FF0FA
:1030C000FF3300E0002318461037BD4680BD00BF27
:1030D000001000488858002080B500AF024804F076
:1030E000CFFC0023184680BD8858002080B584B0EE
:1030F00000AF786000F0DAFE0346FB600AE000F003
:10310000D5FE0246FB68D21A7B689A4202D94FF07C
:10311000FF3307E00221054802F07EF90346012B48
:10312000EDD1002318461037BD4680BD0010004881
:1031300080B584B000AF786000F0B8FE0346FB6055
:103140000AE000F0B3FE0246FB68D21A7B689A429E
:1031500002D94FF0FF3304E0044B1B68012BF0D081
:10316000002318461037BD4680BD00BFF45800202C
:1031700080B584B000AF786000F098FE0346FB6035
:103180000AE000F093FE0246FB68D21A7B689A427E
:1031900002D94FF0FF3304E0044B1B68012BF0D041
:1031A000002318461037BD4680BD00BFEC580020F4
:1031B00080B584B000AF786000F078FE0346FB6015
:1031C0000AE000F073FE0246FB68D21A7B689A425E
:1031D00002D94FF0FF3304E0044B1B68012BF0D001
:1031E000002318461037BD4680BD00BFF0580020B0
:1031F00080B586B000AFF8600B467A607B81002313
:10320000FB8201220121344802F01EF9032000F064
:10321000E3F87B681846FFF78BFF0346002B02DAC2
:103220006FF0020354E0002201212B4802F00CF958
:103230000F2000F0D1F83DE0B7F916207B899A42C3
:1032400002DB7B89002B3CD1244B01221A6007F161
:10325000140301221946224805F01CFA0346002BEC
:1032600007D0012201211C4802F0EEF84FF0FF3395
:103270002EE07B681846FFF77BFF3A7DFB681A70EB
:10328000FB6801337A7D1A70FB8A02339BB2FB82A2
:10329000FB680233FB60B7F91630B3F5FA6F09DB50
:1032A000012201210C4802F0CFF8FFF7A5FE6FF0D4
:1032B00003030DE00221084802F0AEF80346012B9B
:1032C000BAD001220121044802F0BEF8B7F9163045
:1032D00018461837BD4680BD00100048EC58002045
:1032E0008858002080B586B000AFF8600B467A6041
:1032F0007B817B681846FFF7F9FE0346002B02DA54
:103300004FF0FF334FE02A4B01221A6000220121C7
:10331000284802F099F80F2000F05EF87B89012B15
:1033200019D9254B01221A607B895B089BB21A468A
:10333000F968224805F00EF90346002B07D0012258
:1033400001211C4802F080F84FF0FF332BE07B682E
:103350001846FFF72DFF7B8903F00103002B20D0D7
:103360007B89013BFA6813441B783B750A237B7504
:10337000114B01221A6007F11403012219460F486C
:1033800005F0E8F80346002B07D001220121094887
:1033900002F05AF84FF0FF3305E07B681846FFF75C
:1033A00007FFB7F90A3018461837BD4680BD00BF81
:1033B000F458002000100048F058002088580020E1
:1033C00080B582B000AF7860786800F07BFD00BF08
:1033D0000837BD4680BD000080B586B000AF78607C
:1033E0000023BB6000237B61204B1B68002B22D194
:1033F0001F4B1B681F4AA2FB03239B093B61002351
:10340000FB603B69BB6000F051FDF86002E0BB6807
:10341000013BBB60BB68002BF9D100F047FD0246C1
:10342000FB68D31A114A1360104B1B68002B02D1A2
:103430000E4B01221A600E4B1B680F4AA2FB03239E
:103440009A0C0A4B1B68B2FBF3F37B617B687A69C9
:1034500002FB03F3BB6002E0BB68013BBB60BB68DF
:10346000002BF9D100BF1837BD4680BDF8580020A9
:1034700000000020D34D621083DE1B4380B483B074
:1034800000AF7860064B1B68002B02D0044B002273
:103490001A6000BF0C37BD465DF8047B704700BF63
:1034A000EC58002080B483B000AF7860064B1B68F6
:1034B000002B02D0044B00221A6000BF0C37BD461F
:1034C0005DF8047B704700BFF058002080B400AF67
:1034D000054B1B68012B02D1034B00221A6000BF71
:1034E000BD465DF8047B7047F458002080B584B079
:1034F00002AF0123FB710D4B01930D4B00930D4B5C
:103500000D4A0E490E48FFF737F80346002B07D146
:103510000B48FEF7FDFF0346002B01D10023FB7192
:10352000FB7918460837BD4680BD00BFF131000861
:10353000E5320008C1330008D93000083D2F0008EB
:10354000FC58002080B586B000AFF860B960134623
:10355000FB710123FB75FB79BA68F9680948FFF72D
:103560003FF80346002B07D10648FFF7E1F8034672
:10357000002B01D10023FB75FB7D18461837BD4693
:1035800080BD00BFFC58002080B584B000AF7860DB
:103590000B46FB700123FB737B68002B0DD0FB787F
:1035A000002B0AD0FB781A4679680648FFF7EAF83C
:1035B0000346002B01D10023FB73FB7B1846103719
:1035C000BD4680BDFC58002080B584B000AF786057
:1035D0000B46FB700123FB737B68002B10D0FB783C
:1035E000032B0DD90948FFF773F80346012B07D1C8
:1035F000064BD3F8D5301A467B681A600023FB735C
:10360000FB7B18461037BD4680BD00BFFC5800202C
:1036100080B58AB000AFF8607B600B46FB72134642
:103620003B81012387F82730FB68DBB2BB743B8EFC
:10363000FB82FB7A002B14BF01230023DBB23B7417
:103640003B89DBB287F8203007F1100319460748A1
:10365000FFF7CEF80346002B02D1002387F827306E
:1036600097F8273018462837BD4680BDFC58002003
:1036700080B58AB000AFF860B9607A60FB70FB6813
:10368000DBB2BB7407F110031A46B9681B48FFF799
:103690005BF9034687F8273097F82730002B10D1C5
:1036A0003B6B002B02D0BA8A3B6B1A807B68002BE5
:1036B00005D0FB78032B02D9BA697B681A60002316
:1036C00017E097F82730032B12D13B6B002B02D069
:1036D0003B6B00221A807B68002B07D0FB78032B02
:1036E00004D904220021786807F036FE052300E0A3
:1036F000012318462837BD4680BD00BFFC58002076
:1037000080B584B000AF78600123FB737B68DBB2C7
:1037100019460648FFF70AFA0346002B01D1002399
:10372000FB73FB7B18461037BD4680BDFC5800205C
:1037300080B588B002AFF860B9603B601346FB808B
:103740000123FB75FB68D9B2FA883B6A01933B6899
:1037500000931346BA680648FFF724FA0346002B85
:1037600001D10023FB75FB7D18461837BD4680BD8F
:10377000FC58002080B588B002AFF860B9603B60AB
:103780001346FB800123FB75FB68D9B2FA883B6ABC
:1037900001933B6800931346BA680648FFF788FA1E
:1037A0000346002B01D10023FB75FB7D184618371B
:1037B000BD4680BDFC58002080B584B000AF0346F4
:1037C0003960FB80FB88DBB22021184600F0AEFA9E
:1037D0000346FB73FB7B23F00403FB73FB7B43F08B
:1037E0000403FB73FB7B23F00303FB73FB7B43F0BE
:1037F0000103FB73FB7B63F07F03FB73FB88DBB28E
:10380000FA7B2021184600F077FA00BF1037BD463A
:1038100080BD80B588B000AF0346FB80FB88D8B27E
:1038200007F108020223B22100F09EFAFB88DBB206
:103830003521184600F07AFA0346FB77FB7F1B021E
:103840001BB203F440731AB23B7A1BB21343BB831F
:10385000FB7F9B011BB203F440731AB27B7A1BB24D
:1038600013437B83B7F91C30DB103B83B7F91A3065
:10387000DB10FB82FB88D8B207F108020423BC21CD
:1038800000F072FA7B7A1B021AB23B7A1BB2134326
:10389000BB82FB7A1B021AB2BB7A1BB213437B8238
:1038A000FB88D8B207F108020223AA2100F05CFAD3
:1038B0007B7A1B021AB23B7A1BB213433B82B7F9E5
:1038C0001020B7F91430D31A07EE903AB8EEE77A21
:1038D000B7F91620B7F91830D31A07EE903AF8EE78
:1038E000E77A67EE276AB7F91220B7F91430D31ACE
:1038F00007EE903AF8EEE77A86EEA77AB7F9183035
:1039000007EE903AF8EEE77A77EE277AC7ED037A7A
:10391000FB6807EE903AB0EE670A2037BD4680BDDF
:1039200080B588B000AF0346FB71FB79002B0BD14B
:10393000114BDB6C104A43F00203D3640E4BDB6C7B
:1039400003F00203BB60BB684FF48043FB600123BC
:103950003B6100237B610223BB61FB79074A52F87C
:10396000233007F10C021146184601F0C3FB00BFDB
:103970002037BD4680BD00BF00100240140000206B
:1039800080B588B000AF03460A46FB711346BB7191
:10399000244BDB6C234A43F00403D364214BDB6CE0
:1039A00003F00403BB60BB68BB79002B12D14FF45A
:1039B0000053FB6000233B6101237B610223BB6159
:1039C000FB79194A52F8233007F10C0211461846C8
:1039D00001F090FBBB79012B1FD14FF40053FB602A
:1039E00001237B610323BB614FF488133B61FB79A7
:1039F0000D4A52F8233007F10C021146184601F027
:103A000079FB28235BB200220F21184600F059FBF6
:103A100028235BB2184600F070FB00BF2037BD467C
:103A200080BD00BF001002401800002080B58AB0A1
:103A300000AF03463960FB71FB79002B0BD12D4B96
:103A4000DB6C2C4A43F00203D3642A4BDB6C03F09B
:103A500002033B613B69FB79002B0BD1254BDB6CEF
:103A6000244A43F00203D364224BDB6C03F00203CD
:103A7000FB60FB68FB79002B0BD11E4B1B6E1D4AB4
:103A800043F4804313661B4B1B6E03F48043BB60FF
:103A9000BB6840237B610223BB6102233B6200239E
:103AA000FB6107237B62FB79134A52F8233007F14D
:103AB00014021146184601F01DFB80237B6102238E
:103AC000BB6107237B62FB790C4A52F8233007F174
:103AD00014021146184601F00DFBFB79084A52F812
:103AE00023203B681A60386806F08CFA00BF28373C
:103AF000BD4680BD001002402000002024000020B0
:103B00001C00002080B58AB000AF7860274BDB6CCA
:103B1000264A43F00203D364244BDB6C03F0020318
:103B20003B613B694FF440637B611223BB6101231E
:103B3000FB6103233B6204237B6207F114031946F4
:103B40001B4801F0D7FA07F114031946184801F091
:103B5000D1FA164B9B6D154A43F480039365134BC2
:103B60009B6D03F48003FB60FB68104B9B6B0F4A5B
:103B700043F4800393630D4B9B6B0C4A23F4800347
:103B8000936300220F21212000F09BFA212000F0F6
:103B9000B4FA00220F21222000F093FA222000F034
:103BA000ACFA00BF2837BD4680BD00BF0010024000
:103BB0000004004880B582B000AF78607B68124A8C
:103BC0001A607B68114A5A607B6800229A607B68A1
:103BD0000122DA607B6800221A617B6800225A6148
:103BE0007B680022DA617B6800221A627868FFF73E
:103BF00089FF786801F058FC0021786802F018FA13
:103C000000BF0837BD4680BD0058004081267000C7
:103C100080B58AB004AFF860084611461A460346DC
:103C2000FB720B463B811346FB800023FB75FB7A3E
:103C300099B2F8883A894FF47A730293BB8C019356
:103C40003B6A00930346F86801F020FE0346FB75CB
:103C5000FB7D002B04D0FB7A1946F86800F032F89F
:103C6000FB7D18461837BD4680BD80B58AB004AFCD
:103C7000F860084611461A460346FB720B463B8124
:103C80001346FB800023FB75FB7A99B2F8883A89CA
:103C90004FF47A730293BB8C01933B6A0093034603
:103CA000F86801F0DFFC0346FB75FB7D002B04D0B8
:103CB000FB7A1946F86800F005F8FB7D18461837BE
:103CC000BD4680BD80B582B000AF78600B46FB700A
:103CD000786801F084FC7868FFF76CFF00BF083754
:103CE000BD4680BD80B500AF0248FFF763FF00BF4F
:103CF00080BD00BFFC61002080B584B002AF0346E8
:103D0000FB710B46BB7113467B71BB799AB2F97993
:103D1000012301937B1D009301230348FFF7A5FFB7
:103D200000BF0837BD4680BDFC61002080B586B06D
:103D300002AF03460A46FB711346BB710023FB73B7
:103D4000BB799AB2F9790123019307F10F0300932C
:103D500001230448FFF75CFFFB7B18461037BD4684
:103D600080BD00BFFC61002080B584B002AF3A6026
:103D70001A460346FB710B46BB711346BB80BB79E9
:103D80009AB2F979BB8801933B68009301230448F8
:103D9000FFF73EFF03469BB218460837BD4680BD7D
:103DA000FC61002080B582B000AF0123FB71094B9C
:103DB000094A1A60FFF796FF064B1B681B68002133
:103DC000BE2098470023FB71FB7918460837BD4693
:103DD00080BD00BFE46200200400002080B582B0F6
:103DE00000AF0023FB71032000F060F90F2000F00A
:103DF0000DF80346002B02D00123FB7101E0FDF713
:103E000063FCFB7918460837BD4680BD80B584B099
:103E100000AF78600023FB73174B1B78002B23D077
:103E2000164B1A68144B1B7819464FF47A73B3FB80
:103E3000F1F3B2FBF3F3184600F06DF90346002BE3
:103E40000FD17B680F2B09D8002279684FF0FF3023
:103E500000F037F90A4A7B68136007E00123FB731F
:103E600004E00123FB7301E00123FB73FB7B184695
:103E70001037BD4680BD00BF2C0000200000002090
:103E80002800002080B400AF064B1B781A46064B72
:103E90001B681344044A136000BFBD465DF8047BF1
:103EA000704700BF2C000020E862002080B400AF03
:103EB000034B1B681846BD465DF8047B704700BF86
:103EC000E862002080B584B000AF7860FFF7EEFFB5
:103ED000B8607B68FB60FB68B3F1FF3F05D00A4B1D
:103EE0001B781A46FB681344FB6000BFFFF7DEFF38
:103EF0000246BB68D31AFA689A42F7D800BF00BFDF
:103F00001037BD4680BD00BF2C00002080B485B0B6
:103F100000AF78607B6803F00703FB600C4BDB6845
:103F2000BB60BA684FF6FF031340BB60FB681A0220
:103F3000BB68134343F0BF6343F40033BB60044AE0
:103F4000BB68D36000BF1437BD465DF8047B704783
:103F500000ED00E080B400AF044BDB681B0A03F007
:103F600007031846BD465DF8047B704700ED00E08E
:103F700080B483B000AF0346FB7197F90730002B84
:103F80000BDBFB7903F01F02074997F907305B0948
:103F9000012000FA02F241F8232000BF0C37BD4691
:103FA0005DF8047B704700BF00E100E080B483B09F
:103FB00000AF03463960FB7197F90730002B0ADB2D
:103FC0003B68DAB20C4997F907301201D2B20B44C0
:103FD00083F800230AE03B68DAB20849FB7903F072
:103FE0000F03043B1201D2B20B441A7600BF0C3708
:103FF000BD465DF8047B704700E100E000ED00E0A5
:1040000080B489B000AFF860B9607A60FB6803F0F3
:104010000703FB61FB69C3F10703042B28BF0423DB
:10402000BB61FB690433062B02D9FB69033B00E04B
:1040300000237B614FF0FF32BB6902FA03F3DA43DE
:10404000BB681A407B699A404FF0FF317B6901FAE7
:1040500003F3D9437B680B40134318462437BD460E
:104060005DF8047B7047000080B582B000AF7860D7
:104070007B68013BB3F1807F01D301230FE00A4A43
:104080007B68013B53600F214FF0FF30FFF78EFF3D
:10409000054B00229A60044B07221A600023184641
:1040A0000837BD4680BD00BF10E000E080B582B09B
:1040B00000AF78607868FFF729FF00BF0837BD467A
:1040C00080BD80B586B000AF0346B9607A60FB73EF
:1040D00000237B61FFF73EFF78617A68B9687869F1
:1040E000FFF78EFF024697F90F3011461846FFF78B
:1040F0005DFF00BF1837BD4680BD80B582B000AF00
:104100000346FB7197F907301846FFF731FF00BFF0
:104110000837BD4680BD80B582B000AF7860786852
:10412000FFF7A2FF034618460837BD4680BD80B59D
:1041300082B000AF78607B68002B01D1012314E0CE
:104140007B681B79DBB2002B05D17B6800225A719A
:104150007868FDF7DDFA7B6802221A717B6800221D
:104160001A617B6801221A71002318460837BD4680
:1041700080BD80B483B000AF786039607B685B79C4
:10418000012B01D1022340E07B6801225A717B6838
:1041900002221A717B681B6819683B6803F01003E0
:1041A00001229A407B681B680A431A603B68002B17
:1041B0000FD17B681B681B6803F03E03022B1DD1E7
:1041C0007B681B685A687B681B6842F001025A6072
:1041D00014E07B681B681B6803F478123B6803F0EB
:1041E0001003022101FA03F39A4207D17B681B688E
:1041F0005A687B681B6842F002025A607B680122A1
:104200001A717B6800225A71002318460C37BD468C
:104210005DF8047B7047000080B588B000AFF8609F
:10422000B9607A600023BB61FB685B79012B01D127
:10423000022337E1FB6801225A71FB6802221A71DE
:10424000BB685B68042B40F08180FFF72FFEB861EC
:104250007B68002B40D118E0FFF728FE0246BB69BF
:10426000D31A012B11D9FB681B685B6B03F4004365
:10427000002B0AD0FB681B6943F00802FB681A6137
:10428000FB6803221A7103230CE1FB681B685B6B5C
:1042900003F40043002BDFD10120FFF713FEFB687E
:1042A0001B68BA68D2691A6423E0FFF7FFFD024673
:1042B000BB69D31A012B0FD9FB681B685B6B002B02
:1042C0000ADAFB681B6943F00802FB681A61FB68A5
:1042D00003221A710323E5E0FB681B685B6B002B6C
:1042E000E3DB0120FFF7EEFDFB681B68BA68D269CB
:1042F0005A64FB681B689A6C7B6803F0100340F2F9
:10430000FF3101FA03F3DB4302EA0301BB681A6AD7
:104310007B6803F010039A40FB681B680A439A64A9
:10432000FB681B68DA6C7B6803F01003FF2101FA5D
:1043300003F3DB4302EA0301BB685A6A7B6803F0BC
:1043400010039A40FB681B680A43DA64BB685B6928
:10435000012B1DD1FB681B689B6BFB617B6803F025
:1043600010031F2202FA03F3DB43FA691340FB61D7
:10437000BB689B697B617B6803F010037A6902FA72
:1043800003F3FA691343FB61FB681B68FA699A63DC
:10439000FB681B68DB6BFB617B6803F01003072283
:1043A00002FA03F3DB43FA691340FB61BB685A6806
:1043B000BB68DB681A43BB681B6913437B617B687E
:1043C00003F010037A6902FA03F3FA691343FB61FD
:1043D000FB681B68FA69DA63FB681B6819687B680D
:1043E00003F010034FF4804202FA03F3DA43FB6850
:1043F0001B680A401A60FB681B681B68FB617B68CE
:1044000003F0100340F6FE7202FA03F3DB43FA698D
:104410001340FB61BB689B687B617B6803F0100302
:104420007A6902FA03F3FA691343FB61BB681B68FC
:10443000B3F5004F04D1FB6943F40043FB6118E07E
:10444000BB681B68002B04D1FB6923F40043FB61AC
:104450000FE002F039FC38613B69144A934204D9F9
:10446000FB6943F40043FB6103E0FB6923F4004371
:10447000FB61FB681B68FA691A60FB681B681968B6
:104480007B6803F01003C02202FA03F3DA43FB68EF
:104490001B680A401A60FB6801221A71FB6800223F
:1044A0005A71002318462037BD4680BD00B4C404AD
:1044B00080B582B000AF78607B68002B01D101230A
:1044C000ACE07B681B68184600F0A0FA0346554A2A
:1044D00052F82330002B01D001239FE07868FDF7CC
:1044E0002FFA514B1B6801334F4A13604E4B1B6828
:1044F000012B25D14D4B1B684C4A23F080431360A0
:104500004A4B1A687B689B68484913430B60474BCA
:104510001B68464A23F47F0313607B681B79012BD9
:1045200008D1424B1A687B68DB68013B1B043F499A
:1045300013430B603D4B1B683C4A43F00043136040
:104540007B681B681A687B681B6822F471421A60DA
:104550007B681B6819687B681A697B685B691A430A
:104560007B689B691A437B681B680A431A607B68F7
:104570001B681A687B681B6822F00F021A607B6850
:104580001B6819687B68DA697B681B6A1A437B6859
:104590001B680A431A607B681B689A687B681B6803
:1045A00022F45F029A607B681B6899687B685A6A8C
:1045B0007B689B6A013B1B041A437B681B680A43A8
:1045C0009A607B681B685A687B681B6802F0070268
:1045D0005A607B681B6859687B68DB6A1A027B68D3
:1045E0001B6BDB001A437B681B680A435A607B68BD
:1045F0001B681A687B681B6842F080021A607B683F
:10460000012283F834207B681B68184600F0FEF90D
:10461000024604497B6841F82230002318460837D7
:10462000BD4680BDF0620020EC62002000600140C9
:1046300080B582B000AF78607B68002B01D1012388
:10464000CAE07B681B68664A934209D17B685B6855
:10465000012B03D07B68DB68012B01D10123BBE078
:104660007B6800221A637B6801225A647B680122FE
:104670009A647B6800221A657868FDF7B5F87B6854
:104680001B681A687B681B6822F400221A607B682A
:104690001B7A012B08D17B681B681A687B681B6832
:1046A00042F000521A6007E07B681B681A687B685A
:1046B0001B6822F000521A607B685B7A012B08D1DC
:1046C0007B681B681A687B681B6842F400121A60DA
:1046D00007E07B681B681A687B681B6822F400127D
:1046E0001A607B681B681B687A68126823F4FE43B3
:1046F00023F0080313607B68DB68022B08D17B681A
:104700001B6819687B685A697B681B680A431A60D2
:104710007B681B7C012B08D17B681B681A687B684F
:104720001B6842F010021A6007E07B681B681A6879
:104730007B681B6822F010021A607B685B7C012B8F
:1047400008D17B681B681A687B681B6842F02002EE
:104750001A6007E07B681B681A687B681B6822F098
:1047600020021A607B681B685B697A68126823F014
:10477000634303F0FF2353617B681B6859697B68BF
:10478000DA697B681B6A013B1B041A437B685B6A1E
:10479000013B1A437B681B680A435A617B685A686D
:1047A0007B685A637B68DA687B689A637B689A697E
:1047B0007B68DA637B681A7C7B6883F840207B68BF
:1047C0001B681A687B681B6842F001021A607B68EC
:1047D000012283F84C20002318460837BD4680BDCF
:1047E0000061014080B487B000AFF860B9607A60C2
:1047F0000023FB75FB6893F84C30002B2ED0FB6830
:1048000093F84C30FF2B29D0FB681B681B68FA68B3
:10481000126823F0E06323F4802313607B68012B8C
:104820000DD1FB681B681A68BB681B0203F07F434D
:104830001A43FB681B6842F480221A600AE0FB6896
:104840001B681968BB681B0203F07F42FB681B688A
:104850000A431A60FB687A681A6301E00123FB755A
:10486000FB7D18461C37BD465DF8047B7047000091
:1048700080B586B000AFF860B9607A600023FB7540
:10488000BB68002B02D07B68002B02D10123FB7593
:1048900064E0FB681B681B6803F40013B3F5001F9A
:1048A00002D00123FB7559E0FB685B6B002B0ED136
:1048B000FB681B6B002B0AD1FB689B6ADB69002B32
:1048C00005D17B68012B02D00123FB7546E0FB6814
:1048D0005B6B002B0BD1FB681B6B002B07D1FB68BC
:1048E0009B6ADB69202B02D10123FB7536E0FB6854
:1048F00093F84C30012B04D0FB6893F84C30032B19
:104900002AD1FB689B6A184ADA62FB689B6A174ADD
:104910005A63FB689B6ADB69202B01D1144A00E0D3
:104920000022FB689B6A1A63FB68986AFB681B6835
:104930001C331946BA687B6800F0B2F90346002BB5
:1049400006D0FB68FF2283F84C200123FB7505E0AD
:10495000F86800F0A7F801E00123FB75FB7D18461D
:104960001837BD4680BD00BFCD490008E9490008A1
:10497000B149000880B483B000AF786000BF0C3745
:10498000BD465DF8047B704780B483B000AF7860AB
:1049900000BF0C37BD465DF8047B704780B483B020
:1049A00000AF786000BF0C37BD465DF8047B7047F0
:1049B00080B584B000AF78607B689B6AFB60F86864
:1049C000FFF7E2FF00BF1037BD4680BD80B584B061
:1049D00000AF78607B689B6AFB60F868FFF7CAFFEE
:1049E00000BF1037BD4680BD80B584B000AF786091
:1049F0007B689B6AFB60FB6803221A65F868FFF717
:104A0000CDFF00BF1037BD4680BD000080B485B02B
:104A100000AF78607B681C4A934202D10023FB60A0
:104A20002BE07B68194A934202D10123FB6024E00A
:104A30007B68174A934202D10223FB601DE07B682A
:104A4000144A934202D10423FB6016E07B68124AA9
:104A5000934202D10523FB600FE07B680F4A93422B
:104A600002D10623FB6008E07B680D4A934202D125
:104A70000723FB6001E00323FB60FB681846143743
:104A8000BD465DF8047B7047006001402060014036
:104A90004060014080600140A0600140C060014072
:104AA000E060014080B483B000AF78607B685B6BEE
:104AB000002B08D17B681B681A687B681B6842F46E
:104AC00000321A6033E07B681B681A687B681B68D9
:104AD00022F001021A607B681B681A687B681B68F9
:104AE00042F400221A607B681B681A687B681B68A6
:104AF00042F001021A607B6893F84C30032B16D108
:104B00007B689B6B002B07D17B681B681A687B68EE
:104B10001B6842F002021A607B6893F84030012B58
:104B200002D17B685B6C00E001237A6893647B6848
:104B300093F84C30012B01D1022200E004227B6863
:104B400083F84C2000BF0C37BD465DF8047B7047EE
:104B500080B584B000AF78607B68002B01D1012361
:104B60008DE07B681B681A46474B9A420FD87B68DA
:104B70001B681A46454B1344454AA2FB03231B09F5
:104B80009A007B685A647B68424A1A640EE07B682C
:104B90001B681A46404B13443D4AA2FB03231B09E2
:104BA0009A007B685A647B683C4A1A647B680222DC
:104BB00083F825207B681B681B68FB60FB6823F477
:104BC000FF4323F07003FB607B689A687B68DB68B7
:104BD0001A437B681B691A437B685B691A437B68CD
:104BE0009B691A437B68DB691A437B681B6A134322
:104BF000FA681343FB607B681B68FA681A60786880
:104C000000F016FA7B689B68B3F5804F02D17B6891
:104C100000225A607B685A687B689B6CD2B21A602B
:104C20007B68DB6C7A68126D5A607B685B68002B6E
:104C300010D07B685B68042B0CD8786800F036FADB
:104C40007B685B6D00221A607B689B6D7A68D26D11
:104C50005A6008E07B6800225A657B6800229A65EA
:104C60007B680022DA657B680022DA637B680122B8
:104C700083F825207B68002283F82420002318462F
:104C80001037BD4680BD00BF07040240F8FFFDBFDE
:104C9000CDCCCCCC00000240F8FBFDBF00040240AC
:104CA00080B586B000AFF860B9607A603B600023E1
:104CB000FB75FB6893F82430012B01D1022366E0D9
:104CC000FB68012283F82420FB6893F82530DBB2CF
:104CD000012B55D1FB68022283F82520FB680022B6
:104CE000DA63FB681B681A68FB681B6822F0010224
:104CF0001A603B687A68B968F86800F05AF9FB688E
:104D00001B6B002B08D0FB681B681A68FB681B68CC
:104D100042F00E021A600FE0FB681B681A68FB681D
:104D20001B6822F004021A60FB681B681A68FB68A3
:104D30001B6842F00A021A60FB689B6C1B6803F454
:104D40008033002B07D0FB689B6C1A68FB689B6C58
:104D500042F480721A60FB685B6D002B07D0FB6821
:104D60005B6D1A68FB685B6D42F480721A60FB68C9
:104D70001B681A68FB681B6842F001021A6005E0B4
:104D8000FB68002283F824200223FB75FB7D184674
:104D90001837BD4680BD80B584B000AF7860002371
:104DA000FB737B6893F82530DBB2022B05D07B6860
:104DB0000422DA630123FB7347E07B681B681A68EF
:104DC0007B681B6822F00E021A607B681B681A68F9
:104DD0007B681B6822F001021A607B689B6C1A6872
:104DE0007B689B6C22F480721A607B685B6C03F0BA
:104DF0001C027B681B6C012101FA02F25A607B687D
:104E0000DB6C7A68126D5A607B685B6D002B0CD08E
:104E10007B685B6D1A687B685B6D22F480721A6038
:104E20007B689B6D7A68D26D5A607B68012283F83B
:104E300025207B68002283F824207B689B6B002B55
:104E400003D07B689B6B78689847FB7B18461037CC
:104E5000BD4680BD80B584B000AF78607B681B6CB8
:104E60001B68FB607B681B681B68BB607B685B6CB6
:104E700003F01C0304229A40FB681340002B26D049
:104E8000BB6803F00403002B21D07B681B681B6800
:104E900003F02003002B07D17B681B681A687B682E
:104EA0001B6822F004021A607B685B6C03F01C0232
:104EB0007B681B6C042101FA02F25A607B681B6B51
:104EC000002B71D07B681B6B786898476CE07B681F
:104ED0005B6C03F01C0302229A40FB681340002B1A
:104EE0002ED0BB6803F00203002B29D07B681B681F
:104EF0001B6803F02003002B0BD17B681B681A682A
:104F00007B681B6822F00A021A607B68012283F822
:104F100025207B685B6C03F01C027B681B6C022104
:104F200001FA02F25A607B68002283F824207B6831
:104F3000DB6A002B38D07B68DB6A7868984733E0FF
:104F40007B685B6C03F01C0308229A40FB681340EB
:104F5000002B2AD0BB6803F00803002B25D07B6808
:104F60001B681A687B681B6822F00E021A607B6857
:104F70005B6C03F01C027B681B6C012101FA02F2DE
:104F80005A607B680122DA637B68012283F825205E
:104F90007B68002283F824207B685B6B002B04D0A5
:104FA0007B685B6B7868984700BF00BF1037BD46D1
:104FB00080BD80B485B000AFF860B9607A603B60B6
:104FC000FB68DB6CFA68126D5A60FB685B6D002B46
:104FD00004D0FB689B6DFA68D26D5A60FB685B6C0D
:104FE00003F01C02FB681B6C012101FA02F25A60FB
:104FF000FB681B683A685A60FB689B68102B08D1F5
:10500000FB681B687A689A60FB681B68BA68DA609C
:1050100007E0FB681B68BA689A60FB681B687A68DF
:10502000DA6000BF1437BD465DF8047B70470000AE
:1050300080B485B000AF78607B681B681A46174B58
:105040009A420AD87B685B6C9B089B0003F1804303
:1050500003F502337A68936407E07B685B6C9B0816
:105060009A000F4B13447A6893647B681B68DBB229
:10507000083B0C4AA2FB03231B09FB607B680A4A1E
:10508000DA64FB6803F01F0301229A407B681A650B
:1050900000BF1437BD465DF8047B7047070402402B
:1050A0001C080240CDCCCCCC8008024080B485B036
:1050B00000AF78607B685B68DBB2FB60FA680B4B23
:1050C00013449B001A467B685A657B68084A9A65B8
:1050D000FB68013B03F0030301229A407B68DA6519
:1050E00000BF1437BD465DF8047B70473F82001057
:1050F0004009024080B487B000AF78603960002377
:105100007B6166E13B681A6801217B6901FA03F360
:105110001340FB60FB68002B00F058813B685B6824
:1051200003F00303012B05D03B685B6803F0030326
:10513000022B30D17B689B683B617B695B0003225B
:1051400002FA03F3DB433A6913403B613B68DA68D8
:105150007B695B0002FA03F33A6913433B617B68A6
:105160003A699A607B685B683B6101227B6902FA5D
:1051700003F3DB433A6913403B613B685B681B09FF
:1051800003F001027B6902FA03F33A6913433B61BE
:105190007B683A695A603B685B6803F00303032B42
:1051A00017D07B68DB683B617B695B00032202FAF6
:1051B00003F3DB433A6913403B613B689A687B69C0
:1051C0005B0002FA03F33A6913433B617B683A6977
:1051D000DA603B685B6803F00303022B23D17B6931
:1051E000DA087B68083253F822303B617B6903F0B0
:1051F00007039B000F2202FA03F3DB433A691340D3
:105200003B613B681A697B6903F007039B0002FA64
:1052100003F33A6913433B617B69DA087B68083220
:10522000396943F822107B681B683B617B695B002E
:10523000032202FA03F3DB433A6913403B613B6804
:105240005B6803F003027B695B0002FA03F33A69CF
:1052500013433B617B683A691A603B685B6803F4FF
:105260004033002B00F0B280614B1B6E604A43F06C
:10527000010313665E4B1B6E03F00103BB60BB684A
:105280005C4A7B699B08023352F823303B617B699F
:1052900003F003039B000F2202FA03F3DB433A6996
:1052A00013403B617B68B3F1904F2BD07B68524A2F
:1052B000934225D07B68514A93421FD07B68504A65
:1052C000934219D07B684F4A934213D07B684E4A71
:1052D00093420DD07B684D4A934207D07B684C4A7D
:1052E000934201D107230EE008230CE006230AE0D5
:1052F000052308E0042306E0032304E0022302E080
:10530000012300E000237A6902F003029200934037
:105310003A6913433B6137497B699B0802333A6919
:1053200041F823203B4B9B683B61FB68DB433A69B8
:1053300013403B613B685B6803F48013002B03D090
:105340003A69FB6813433B61324A3B699360314BD6
:10535000DB683B61FB68DB433A6913403B613B68B8
:105360005B6803F40013002B03D03A69FB68134316
:105370003B61284A3B69D360264B5B683B61FB6815
:10538000DB433A6913403B613B685B6803F40033DD
:10539000002B03D03A69FB6813433B611D4A3B690C
:1053A00053601C4B1B683B61FB68DB433A6913404D
:1053B0003B613B685B6803F48033002B03D03A69A0
:1053C000FB6813433B61134A3B6913607B690133FC
:1053D0007B613B681A687B6922FA03F3002B7FF438
:1053E00091AE00BF00BF1C37BD465DF8047B70471F
:1053F000001002400000014000040048000800487E
:10540000000C004800100048001400480018004834
:10541000001C00480004014080B485B000AF7860F3
:105420000B467B807B681A697B881340002B02D077
:105430000123FB7301E00023FB73FB7B1846143749
:10544000BD465DF8047B704780B483B000AF7860E0
:105450000B467B8013467B707B78002B03D07A88C9
:105460007B689A6102E07A887B689A6200BF0C3799
:10547000BD465DF8047B704780B582B000AF03463F
:10548000FB80084B5A69FB881340002B06D0054A65
:10549000FB885361FB881846FCF7E0F800BF08372B
:1054A000BD4680BD0004014080B582B000AF786089
:1054B0007B68002B01D101238DE07B6893F841309C
:1054C000DBB2002B06D17B68002283F8402078688D
:1054D00000F0B4F87B68242283F841207B681B68C5
:1054E0001A687B681B6822F001021A607B685A68A0
:1054F0007B681B6822F070621A617B681B689A687F
:105500007B681B6822F400429A607B68DB68012B91
:1055100007D17B689A687B681B6842F400429A60F6
:1055200006E07B689A687B681B6842F404429A60D4
:105530007B68DB68022B08D17B681B685A687B6834
:105540001B6842F400625A6007E07B681B685A6877
:105550007B681B6822F400625A607B681B685B688A
:105560007A68126843F0007343F4004353607B6829
:105570001B68DA687B681B6822F40042DA607B688B
:105580001A697B685B6942EA03017B689B691A02BE
:105590007B681B680A43DA607B68D9697B681A6A92
:1055A0007B681B680A431A607B681B681A687B6803
:1055B0001B6842F001021A607B6800225A647B6813
:1055C000202283F841207B6800221A637B68002236
:1055D00083F84220002318460837BD4680BD80B5B9
:1055E00082B000AF78607B68002B01D1012321E0FD
:1055F0007B68242283F841207B681B681A687B68DB
:105600001B6822F001021A60786800F021F87B68BC
:1056100000225A647B68002283F841207B680022C4
:105620001A637B68002283F842207B68002283F89B
:105630004020002318460837BD4680BD80B483B0A3
:1056400000AF786000BF0C37BD465DF8047B704743
:1056500080B483B000AF786000BF0C37BD465DF802
:10566000047B704780B588B002AFF86008461146E9
:105670001A4603467B810B463B811346FB80FB6841
:1056800093F84130DBB2202B40F0F9803B6A002BCD
:1056900002D0BB8C002B05D1FB684FF400725A641A
:1056A0000123EDE0FB6893F84030012B01D1022388
:1056B000E6E0FB68012283F84020FEF7F7FB786103
:1056C0007B690093192301224FF40041F86800F030
:1056D000C3FA0346002B01D00123D1E0FB6821224D
:1056E00083F84120FB68402283F84220FB680022B7
:1056F0005A64FB683A6A5A62FB68BA8C5A85FB683E
:1057000000225A63F8883A8979897B690193BB6AD8
:1057100000930346F86800F0D3F90346002B05D048
:10572000FB68002283F840200123A9E0FB685B8D21
:105730009BB2FF2B0ED9FB68FF221A85FB681B8DDD
:10574000DAB27989002300934FF08073F86800F093
:105750003DFC0FE0FB685B8D9AB2FB681A85FB6825
:105760001B8DDAB27989002300934FF00073F8683B
:1057700000F02CFC7A69B96AF86800F0BCFA0346BC
:10578000002B01D001237BE0FB685B6A1A78FB6881
:105790001B689A62FB685B6A5A1CFB685A62FB686A
:1057A0005B8D9BB2013B9AB2FB685A85FB681B8DEF
:1057B000013B9AB2FB681A85FB685B8D9BB2002B9C
:1057C00034D0FB681B8D002B30D17B690093BB6A02
:1057D00000228021F86800F03FFA0346002B01D038
:1057E00001234DE0FB685B8D9BB2FF2B0ED9FB685C
:1057F000FF221A85FB681B8DDAB27989002300939A
:105800004FF08073F86800F0E1FB0FE0FB685B8D00
:105810009AB2FB681A85FB681B8DDAB2798900237E
:1058200000934FF00073F86800F0D0FBFB685B8DCD
:105830009BB2002B9ED17A69B96AF86800F0A2FA8F
:105840000346002B01D001231AE0FB681B682022CD
:10585000DA61FB681B685968FB681A680A4B0B40E1
:105860005360FB68202283F84120FB68002283F804
:105870004220FB68002283F84020002300E002233E
:1058800018461837BD4680BD00E800FE80B588B0D8
:1058900002AFF860084611461A4603467B810B4664
:1058A0003B811346FB80FB6893F84130DBB2202B31
:1058B00040F0FD803B6A002B02D0BB8C002B05D151
:1058C000FB684FF400725A640123F1E0FB6893F81F
:1058D0004030012B01D10223EAE0FB68012283F86A
:1058E0004020FEF7E3FA78617B69009319230122D7
:1058F0004FF40041F86800F0AFF90346002B01D0E7
:105900000123D5E0FB68222283F84120FB68402276
:1059100083F84220FB6800225A64FB683A6A5A62A4
:10592000FB68BA8C5A85FB6800225A63F8883A896A
:1059300079897B690193BB6A00930346F86800F09C
:1059400013F90346002B05D0FB68002283F84020A2
:105950000123ADE0FB685B8D9BB2FF2B0ED9FB688A
:10596000FF221A85FB681B8DDAB27989524B0093AE
:105970004FF08073F86800F029FB0FE0FB685B8D47
:105980009AB2FB681A85FB681B8DDAB279894A4B9B
:1059900000934FF00073F86800F018FB7B690093E8
:1059A000BB6A00220421F86800F056F90346002B78
:1059B00001D001237CE0FB681B685A6AFB685B6AC4
:1059C000D2B21A70FB685B6A5A1CFB685A62FB68A9
:1059D0001B8D013B9AB2FB681A85FB685B8D9BB2FD
:1059E000013B9AB2FB685A85FB685B8D9BB2002B2A
:1059F00034D0FB681B8D002B30D17B690093BB6AD0
:105A000000228021F86800F027F90346002B01D01E
:105A100001234DE0FB685B8D9BB2FF2B0ED9FB6829
:105A2000FF221A85FB681B8DDAB279890023009367
:105A30004FF08073F86800F0C9FA0FE0FB685B8DE7
:105A40009AB2FB681A85FB681B8DDAB2798900234C
:105A500000934FF00073F86800F0B8FAFB685B8DB4
:105A60009BB2002B9AD17A69B96AF86800F08AF97A
:105A70000346002B01D001231AE0FB681B6820229B
:105A8000DA61FB681B685968FB681A680B4B0B40AE
:105A90005360FB68202283F84120FB68002283F8D2
:105AA0004220FB68002283F84020002300E002230C
:105AB00018461837BD4680BD0024008000E800FE6F
:105AC00080B586B002AFF860084611461A46034614
:105AD0007B810B463B811346FB80FB88DAB27989D8
